{
  "_format": "hh-sol-artifact-1",
  "contractName": "PresaleLaunchpadToken",
  "sourceName": "contracts/PresaleLaunchpadToken.sol",
  "abi": [
    {
      "inputs": [],
      "name": "ApprovalCallerNotOwnerNorApprovedd",
      "type": "error"
    },
    {
      "inputs": [],
      "name": "ApprovalQueryForNonexistentTokenn",
      "type": "error"
    },
    {
      "inputs": [],
      "name": "ApprovalToCurrentOwnerr",
      "type": "error"
    },
    {
      "inputs": [],
      "name": "ApproveToCallerr",
      "type": "error"
    },
    {
      "inputs": [],
      "name": "BalanceQueryForZeroAddresss",
      "type": "error"
    },
    {
      "inputs": [],
      "name": "MintToZeroAddresss",
      "type": "error"
    },
    {
      "inputs": [],
      "name": "OwnerIndexOutOfBoundss",
      "type": "error"
    },
    {
      "inputs": [],
      "name": "OwnerQueryForNonexistentTokenn",
      "type": "error"
    },
    {
      "inputs": [],
      "name": "TokenIndexOutOfBoundss",
      "type": "error"
    },
    {
      "inputs": [],
      "name": "TransferCallerNotOwnerNorApprovedd",
      "type": "error"
    },
    {
      "inputs": [],
      "name": "TransferFromIncorrectOwnerr",
      "type": "error"
    },
    {
      "inputs": [],
      "name": "TransferToNonERC721ReceiverImplementerr",
      "type": "error"
    },
    {
      "inputs": [],
      "name": "TransferToZeroAddresss",
      "type": "error"
    },
    {
      "inputs": [],
      "name": "URIQueryForNonexistentTokenn",
      "type": "error"
    },
    {
      "inputs": [],
      "name": "UnableDetermineTokenOwnerr",
      "type": "error"
    },
    {
      "anonymous": false,
      "inputs": [
        {
          "indexed": true,
          "internalType": "address",
          "name": "owner",
          "type": "address"
        },
        {
          "indexed": true,
          "internalType": "address",
          "name": "approved",
          "type": "address"
        },
        {
          "indexed": true,
          "internalType": "uint256",
          "name": "tokenId",
          "type": "uint256"
        }
      ],
      "name": "Approval",
      "type": "event"
    },
    {
      "anonymous": false,
      "inputs": [
        {
          "indexed": true,
          "internalType": "address",
          "name": "owner",
          "type": "address"
        },
        {
          "indexed": true,
          "internalType": "address",
          "name": "operator",
          "type": "address"
        },
        {
          "indexed": false,
          "internalType": "bool",
          "name": "approved",
          "type": "bool"
        }
      ],
      "name": "ApprovalForAll",
      "type": "event"
    },
    {
      "anonymous": false,
      "inputs": [
        {
          "indexed": true,
          "internalType": "address",
          "name": "previousOwner",
          "type": "address"
        },
        {
          "indexed": true,
          "internalType": "address",
          "name": "newOwner",
          "type": "address"
        }
      ],
      "name": "OwnershipTransferred",
      "type": "event"
    },
    {
      "anonymous": false,
      "inputs": [
        {
          "indexed": true,
          "internalType": "address",
          "name": "from",
          "type": "address"
        },
        {
          "indexed": true,
          "internalType": "address",
          "name": "to",
          "type": "address"
        },
        {
          "indexed": true,
          "internalType": "uint256",
          "name": "tokenId",
          "type": "uint256"
        }
      ],
      "name": "Transfer",
      "type": "event"
    },
    {
      "inputs": [
        {
          "internalType": "address",
          "name": "",
          "type": "address"
        }
      ],
      "name": "_preSaleAddressExist",
      "outputs": [
        {
          "internalType": "bool",
          "name": "",
          "type": "bool"
        }
      ],
      "stateMutability": "view",
      "type": "function"
    },
    {
      "inputs": [
        {
          "internalType": "address",
          "name": "",
          "type": "address"
        }
      ],
      "name": "_preSaleAddresses",
      "outputs": [
        {
          "internalType": "address",
          "name": "userAddress",
          "type": "address"
        },
        {
          "internalType": "uint256",
          "name": "counter",
          "type": "uint256"
        }
      ],
      "stateMutability": "view",
      "type": "function"
    },
    {
      "inputs": [
        {
          "internalType": "address",
          "name": "newOwner",
          "type": "address"
        }
      ],
      "name": "_transferOwnership",
      "outputs": [],
      "stateMutability": "nonpayable",
      "type": "function"
    },
    {
      "inputs": [
        {
          "internalType": "address",
          "name": "to",
          "type": "address"
        },
        {
          "internalType": "uint256",
          "name": "tokenId",
          "type": "uint256"
        }
      ],
      "name": "approve",
      "outputs": [],
      "stateMutability": "nonpayable",
      "type": "function"
    },
    {
      "inputs": [
        {
          "internalType": "address",
          "name": "owner",
          "type": "address"
        }
      ],
      "name": "balanceOf",
      "outputs": [
        {
          "internalType": "uint256",
          "name": "",
          "type": "uint256"
        }
      ],
      "stateMutability": "view",
      "type": "function"
    },
    {
      "inputs": [],
      "name": "baseuri",
      "outputs": [
        {
          "internalType": "string",
          "name": "",
          "type": "string"
        }
      ],
      "stateMutability": "view",
      "type": "function"
    },
    {
      "inputs": [
        {
          "internalType": "string",
          "name": "namee",
          "type": "string"
        },
        {
          "internalType": "string",
          "name": "symboll",
          "type": "string"
        },
        {
          "internalType": "uint256",
          "name": "maxSupplyy",
          "type": "uint256"
        },
        {
          "internalType": "uint256",
          "name": "preSaleSupplyy",
          "type": "uint256"
        },
        {
          "internalType": "uint256",
          "name": "maxPerTranss",
          "type": "uint256"
        },
        {
          "internalType": "uint256",
          "name": "reservee",
          "type": "uint256"
        },
        {
          "internalType": "uint256",
          "name": "pricee",
          "type": "uint256"
        },
        {
          "internalType": "uint256",
          "name": "presalePricee",
          "type": "uint256"
        },
        {
          "internalType": "string",
          "name": "baseurii",
          "type": "string"
        },
        {
          "internalType": "uint256",
          "name": "maxPerWallett",
          "type": "uint256"
        },
        {
          "internalType": "bytes32",
          "name": "root",
          "type": "bytes32"
        }
      ],
      "name": "contractDetails",
      "outputs": [],
      "stateMutability": "nonpayable",
      "type": "function"
    },
    {
      "inputs": [],
      "name": "counter",
      "outputs": [
        {
          "internalType": "uint256",
          "name": "",
          "type": "uint256"
        }
      ],
      "stateMutability": "view",
      "type": "function"
    },
    {
      "inputs": [],
      "name": "flipPauseStatus",
      "outputs": [],
      "stateMutability": "nonpayable",
      "type": "function"
    },
    {
      "inputs": [],
      "name": "flipPreSalePauseStatus",
      "outputs": [],
      "stateMutability": "nonpayable",
      "type": "function"
    },
    {
      "inputs": [
        {
          "internalType": "uint256",
          "name": "tokenId",
          "type": "uint256"
        }
      ],
      "name": "getApproved",
      "outputs": [
        {
          "internalType": "address",
          "name": "",
          "type": "address"
        }
      ],
      "stateMutability": "view",
      "type": "function"
    },
    {
      "inputs": [
        {
          "internalType": "address",
          "name": "a",
          "type": "address"
        }
      ],
      "name": "initialize",
      "outputs": [],
      "stateMutability": "nonpayable",
      "type": "function"
    },
    {
      "inputs": [
        {
          "internalType": "address",
          "name": "owner",
          "type": "address"
        },
        {
          "internalType": "address",
          "name": "operator",
          "type": "address"
        }
      ],
      "name": "isApprovedForAll",
      "outputs": [
        {
          "internalType": "bool",
          "name": "",
          "type": "bool"
        }
      ],
      "stateMutability": "view",
      "type": "function"
    },
    {
      "inputs": [],
      "name": "isPresalepPaused",
      "outputs": [
        {
          "internalType": "bool",
          "name": "",
          "type": "bool"
        }
      ],
      "stateMutability": "view",
      "type": "function"
    },
    {
      "inputs": [],
      "name": "isSalepaused",
      "outputs": [
        {
          "internalType": "bool",
          "name": "",
          "type": "bool"
        }
      ],
      "stateMutability": "view",
      "type": "function"
    },
    {
      "inputs": [],
      "name": "maxPerTrans",
      "outputs": [
        {
          "internalType": "uint256",
          "name": "",
          "type": "uint256"
        }
      ],
      "stateMutability": "view",
      "type": "function"
    },
    {
      "inputs": [],
      "name": "maxPerWallet",
      "outputs": [
        {
          "internalType": "uint256",
          "name": "",
          "type": "uint256"
        }
      ],
      "stateMutability": "view",
      "type": "function"
    },
    {
      "inputs": [],
      "name": "maxSupply",
      "outputs": [
        {
          "internalType": "uint256",
          "name": "",
          "type": "uint256"
        }
      ],
      "stateMutability": "view",
      "type": "function"
    },
    {
      "inputs": [
        {
          "internalType": "uint256",
          "name": "quantity",
          "type": "uint256"
        }
      ],
      "name": "mint",
      "outputs": [],
      "stateMutability": "payable",
      "type": "function"
    },
    {
      "inputs": [],
      "name": "name",
      "outputs": [
        {
          "internalType": "string",
          "name": "",
          "type": "string"
        }
      ],
      "stateMutability": "view",
      "type": "function"
    },
    {
      "inputs": [],
      "name": "owner",
      "outputs": [
        {
          "internalType": "address",
          "name": "",
          "type": "address"
        }
      ],
      "stateMutability": "view",
      "type": "function"
    },
    {
      "inputs": [
        {
          "internalType": "uint256",
          "name": "tokenId",
          "type": "uint256"
        }
      ],
      "name": "ownerOf",
      "outputs": [
        {
          "internalType": "address",
          "name": "",
          "type": "address"
        }
      ],
      "stateMutability": "view",
      "type": "function"
    },
    {
      "inputs": [],
      "name": "preSaleSupply",
      "outputs": [
        {
          "internalType": "uint256",
          "name": "",
          "type": "uint256"
        }
      ],
      "stateMutability": "view",
      "type": "function"
    },
    {
      "inputs": [
        {
          "internalType": "bytes32[]",
          "name": "_merkleProof",
          "type": "bytes32[]"
        },
        {
          "internalType": "uint256",
          "name": "quantity",
          "type": "uint256"
        }
      ],
      "name": "preSalemint",
      "outputs": [],
      "stateMutability": "payable",
      "type": "function"
    },
    {
      "inputs": [],
      "name": "presalePrice",
      "outputs": [
        {
          "internalType": "uint256",
          "name": "",
          "type": "uint256"
        }
      ],
      "stateMutability": "view",
      "type": "function"
    },
    {
      "inputs": [],
      "name": "price",
      "outputs": [
        {
          "internalType": "uint256",
          "name": "",
          "type": "uint256"
        }
      ],
      "stateMutability": "view",
      "type": "function"
    },
    {
      "inputs": [],
      "name": "renounceOwnership",
      "outputs": [],
      "stateMutability": "nonpayable",
      "type": "function"
    },
    {
      "inputs": [],
      "name": "reserve",
      "outputs": [
        {
          "internalType": "uint256",
          "name": "",
          "type": "uint256"
        }
      ],
      "stateMutability": "view",
      "type": "function"
    },
    {
      "inputs": [
        {
          "internalType": "uint256",
          "name": "quantity",
          "type": "uint256"
        }
      ],
      "name": "reserveTokens",
      "outputs": [],
      "stateMutability": "nonpayable",
      "type": "function"
    },
    {
      "inputs": [
        {
          "internalType": "address",
          "name": "from",
          "type": "address"
        },
        {
          "internalType": "address",
          "name": "to",
          "type": "address"
        },
        {
          "internalType": "uint256",
          "name": "tokenId",
          "type": "uint256"
        }
      ],
      "name": "safeTransferFrom",
      "outputs": [],
      "stateMutability": "nonpayable",
      "type": "function"
    },
    {
      "inputs": [
        {
          "internalType": "address",
          "name": "from",
          "type": "address"
        },
        {
          "internalType": "address",
          "name": "to",
          "type": "address"
        },
        {
          "internalType": "uint256",
          "name": "tokenId",
          "type": "uint256"
        },
        {
          "internalType": "bytes",
          "name": "_data",
          "type": "bytes"
        }
      ],
      "name": "safeTransferFrom",
      "outputs": [],
      "stateMutability": "nonpayable",
      "type": "function"
    },
    {
      "inputs": [
        {
          "internalType": "address",
          "name": "operator",
          "type": "address"
        },
        {
          "internalType": "bool",
          "name": "approved",
          "type": "bool"
        }
      ],
      "name": "setApprovalForAll",
      "outputs": [],
      "stateMutability": "nonpayable",
      "type": "function"
    },
    {
      "inputs": [
        {
          "internalType": "uint256",
          "name": "_quantity",
          "type": "uint256"
        }
      ],
      "name": "setMaxxQtPerTx",
      "outputs": [],
      "stateMutability": "nonpayable",
      "type": "function"
    },
    {
      "inputs": [
        {
          "internalType": "uint256",
          "name": "_newPrice",
          "type": "uint256"
        }
      ],
      "name": "setPreSalePrice",
      "outputs": [],
      "stateMutability": "nonpayable",
      "type": "function"
    },
    {
      "inputs": [
        {
          "internalType": "uint256",
          "name": "_quantity",
          "type": "uint256"
        }
      ],
      "name": "setPreSalesupply",
      "outputs": [],
      "stateMutability": "nonpayable",
      "type": "function"
    },
    {
      "inputs": [
        {
          "internalType": "uint256",
          "name": "_quantity",
          "type": "uint256"
        }
      ],
      "name": "setPrice",
      "outputs": [],
      "stateMutability": "nonpayable",
      "type": "function"
    },
    {
      "inputs": [
        {
          "internalType": "uint256",
          "name": "_quantity",
          "type": "uint256"
        }
      ],
      "name": "setReserveTokens",
      "outputs": [],
      "stateMutability": "nonpayable",
      "type": "function"
    },
    {
      "inputs": [
        {
          "internalType": "string",
          "name": "_newnBaseUri",
          "type": "string"
        }
      ],
      "name": "setbaseuri",
      "outputs": [],
      "stateMutability": "nonpayable",
      "type": "function"
    },
    {
      "inputs": [
        {
          "internalType": "uint256",
          "name": "_quantity",
          "type": "uint256"
        }
      ],
      "name": "setmaxSupply",
      "outputs": [],
      "stateMutability": "nonpayable",
      "type": "function"
    },
    {
      "inputs": [
        {
          "internalType": "uint256",
          "name": "_quantity",
          "type": "uint256"
        }
      ],
      "name": "setperWallet",
      "outputs": [],
      "stateMutability": "nonpayable",
      "type": "function"
    },
    {
      "inputs": [
        {
          "internalType": "bytes4",
          "name": "interfaceId",
          "type": "bytes4"
        }
      ],
      "name": "supportsInterface",
      "outputs": [
        {
          "internalType": "bool",
          "name": "",
          "type": "bool"
        }
      ],
      "stateMutability": "view",
      "type": "function"
    },
    {
      "inputs": [],
      "name": "symbol",
      "outputs": [
        {
          "internalType": "string",
          "name": "",
          "type": "string"
        }
      ],
      "stateMutability": "view",
      "type": "function"
    },
    {
      "inputs": [
        {
          "internalType": "uint256",
          "name": "index",
          "type": "uint256"
        }
      ],
      "name": "tokenByIndex",
      "outputs": [
        {
          "internalType": "uint256",
          "name": "",
          "type": "uint256"
        }
      ],
      "stateMutability": "view",
      "type": "function"
    },
    {
      "inputs": [
        {
          "internalType": "address",
          "name": "owner",
          "type": "address"
        },
        {
          "internalType": "uint256",
          "name": "index",
          "type": "uint256"
        }
      ],
      "name": "tokenOfOwnerByIndex",
      "outputs": [
        {
          "internalType": "uint256",
          "name": "a",
          "type": "uint256"
        }
      ],
      "stateMutability": "view",
      "type": "function"
    },
    {
      "inputs": [
        {
          "internalType": "uint256",
          "name": "tokenId",
          "type": "uint256"
        }
      ],
      "name": "tokenURI",
      "outputs": [
        {
          "internalType": "string",
          "name": "",
          "type": "string"
        }
      ],
      "stateMutability": "view",
      "type": "function"
    },
    {
      "inputs": [],
      "name": "totalSupply",
      "outputs": [
        {
          "internalType": "uint256",
          "name": "",
          "type": "uint256"
        }
      ],
      "stateMutability": "view",
      "type": "function"
    },
    {
      "inputs": [
        {
          "internalType": "address",
          "name": "from",
          "type": "address"
        },
        {
          "internalType": "address",
          "name": "to",
          "type": "address"
        },
        {
          "internalType": "uint256",
          "name": "tokenId",
          "type": "uint256"
        }
      ],
      "name": "transferFrom",
      "outputs": [],
      "stateMutability": "nonpayable",
      "type": "function"
    },
    {
      "inputs": [
        {
          "internalType": "address",
          "name": "newOwner",
          "type": "address"
        }
      ],
      "name": "transferOwnership",
      "outputs": [],
      "stateMutability": "nonpayable",
      "type": "function"
    },
    {
      "inputs": [],
      "name": "withdraw",
      "outputs": [],
      "stateMutability": "nonpayable",
      "type": "function"
    }
  ],
  "bytecode": "0x608060405273c2c7d10b99bf936effd3cfdd4f5e5f6a6acddcd3600860006101000a81548173ffffffffffffffffffffffffffffffffffffffff021916908373ffffffffffffffffffffffffffffffffffffffff16021790555060006015556001601660006101000a81548160ff0219169083151502179055506001601660016101000a81548160ff021916908315150217905550348015620000a157600080fd5b50620000c2620000b6620000c860201b60201c565b620000d060201b60201c565b62000195565b600033905090565b60008060029054906101000a900473ffffffffffffffffffffffffffffffffffffffff16905081600060026101000a81548173ffffffffffffffffffffffffffffffffffffffff021916908373ffffffffffffffffffffffffffffffffffffffff1602179055508173ffffffffffffffffffffffffffffffffffffffff168173ffffffffffffffffffffffffffffffffffffffff167f8be0079c531659141344cd1fd0a4f28419497f9722a3daafe3b4186f6b6457e060405160405180910390a35050565b614f8b80620001a56000396000f3fe6080604052600436106102ac5760003560e01c8063780425df11610175578063c4d66de8116100dc578063d29d44ee11610095578063e9e3cdc91161006f578063e9e3cdc914610a69578063f2fde38b14610a92578063f3c7fbbb14610abb578063fa62884c14610af8576102ac565b8063d29d44ee146109d8578063d5abeb0114610a01578063e985e9c514610a2c576102ac565b8063c4d66de8146108d7578063c53825b314610900578063c87b56dd1461091c578063cb9f530c14610959578063cd3293de14610984578063d031370b146109af576102ac565b80639d38fd211161012e5780639d38fd21146107ea5780639d97294214610813578063a035b1fe1461083e578063a0712d6814610869578063a22cb46514610885578063b88d4fde146108ae576102ac565b8063780425df146106ee5780637d7eee42146107195780638da5cb5b1461074257806391b7f5ed1461076d578063921cab331461079657806395d89b41146107bf576102ac565b80632f745c591161021957806361bc221a116101d257806361bc221a146105f25780636352211e1461061d57806367f8ccb81461065a5780636a44e1731461067157806370a082311461069a578063715018a6146106d7576102ac565b80632f745c59146104e45780633aad9768146105215780633ccfd60b1461054a57806342842e0e14610561578063453c23101461058a5780634f6ccce7146105b5576102ac565b8063166866cc1161026b578063166866cc146103e857806318160ddd146104115780631a0d4bca1461043c578063228025e81461046757806323b872dd146104905780632e055bcc146104b9576102ac565b80620e7fa8146102b1578062b0e703146102dc57806301ffc9a71461031a57806306fdde0314610357578063081812fc14610382578063095ea7b3146103bf575b600080fd5b3480156102bd57600080fd5b506102c6610b0f565b6040516102d3919061467b565b60405180910390f35b3480156102e857600080fd5b5061030360048036038101906102fe9190613c6b565b610b15565b604051610311929190614455565b60405180910390f35b34801561032657600080fd5b50610341600480360381019061033c9190613e8e565b610b59565b60405161034e919061447e565b60405180910390f35b34801561036357600080fd5b5061036c610ca3565b6040516103799190614499565b60405180910390f35b34801561038e57600080fd5b506103a960048036038101906103a49190614079565b610d35565b6040516103b691906143ee565b60405180910390f35b3480156103cb57600080fd5b506103e660048036038101906103e19190613dee565b610db1565b005b3480156103f457600080fd5b5061040f600480360381019061040a9190614079565b610ebc565b005b34801561041d57600080fd5b50610426610f42565b604051610433919061467b565b60405180910390f35b34801561044857600080fd5b50610451610f4c565b60405161045e9190614499565b60405180910390f35b34801561047357600080fd5b5061048e60048036038101906104899190614079565b610fda565b005b34801561049c57600080fd5b506104b760048036038101906104b29190613cd8565b611060565b005b3480156104c557600080fd5b506104ce611070565b6040516104db919061467b565b60405180910390f35b3480156104f057600080fd5b5061050b60048036038101906105069190613dee565b611076565b604051610518919061467b565b60405180910390f35b34801561052d57600080fd5b5061054860048036038101906105439190613ee8565b611237565b005b34801561055657600080fd5b5061055f6112cd565b005b34801561056d57600080fd5b5061058860048036038101906105839190613cd8565b611497565b005b34801561059657600080fd5b5061059f6114b7565b6040516105ac919061467b565b60405180910390f35b3480156105c157600080fd5b506105dc60048036038101906105d79190614079565b6114bd565b6040516105e9919061467b565b60405180910390f35b3480156105fe57600080fd5b50610607611507565b604051610614919061467b565b60405180910390f35b34801561062957600080fd5b50610644600480360381019061063f9190614079565b61150d565b60405161065191906143ee565b60405180910390f35b34801561066657600080fd5b5061066f611523565b005b34801561067d57600080fd5b5061069860048036038101906106939190614079565b6115cb565b005b3480156106a657600080fd5b506106c160048036038101906106bc9190613c6b565b611651565b6040516106ce919061467b565b60405180910390f35b3480156106e357600080fd5b506106ec611731565b005b3480156106fa57600080fd5b506107036117b9565b604051610710919061467b565b60405180910390f35b34801561072557600080fd5b50610740600480360381019061073b9190614079565b6117bf565b005b34801561074e57600080fd5b50610757611845565b60405161076491906143ee565b60405180910390f35b34801561077957600080fd5b50610794600480360381019061078f9190614079565b61186e565b005b3480156107a257600080fd5b506107bd60048036038101906107b89190614079565b6118f4565b005b3480156107cb57600080fd5b506107d461197a565b6040516107e19190614499565b60405180910390f35b3480156107f657600080fd5b50610811600480360381019061080c9190614079565b611a0c565b005b34801561081f57600080fd5b50610828611a92565b604051610835919061447e565b60405180910390f35b34801561084a57600080fd5b50610853611aa5565b604051610860919061467b565b60405180910390f35b610883600480360381019061087e9190614079565b611aab565b005b34801561089157600080fd5b506108ac60048036038101906108a79190613dae565b611bf3565b005b3480156108ba57600080fd5b506108d560048036038101906108d09190613d2b565b611d6b565b005b3480156108e357600080fd5b506108fe60048036038101906108f99190613c6b565b611dbe565b005b61091a60048036038101906109159190613e2e565b611fca565b005b34801561092857600080fd5b50610943600480360381019061093e9190614079565b61242f565b6040516109509190614499565b60405180910390f35b34801561096557600080fd5b5061096e6124ce565b60405161097b919061447e565b60405180910390f35b34801561099057600080fd5b506109996124e1565b6040516109a6919061467b565b60405180910390f35b3480156109bb57600080fd5b506109d660048036038101906109d19190614079565b6124e7565b005b3480156109e457600080fd5b506109ff60048036038101906109fa9190613c6b565b6125ce565b005b348015610a0d57600080fd5b50610a16612693565b604051610a23919061467b565b60405180910390f35b348015610a3857600080fd5b50610a536004803603810190610a4e9190613c98565b612699565b604051610a60919061447e565b60405180910390f35b348015610a7557600080fd5b50610a906004803603810190610a8b9190613f31565b61272d565b005b348015610a9e57600080fd5b50610ab96004803603810190610ab49190613c6b565b612819565b005b348015610ac757600080fd5b50610ae26004803603810190610add9190613c6b565b612911565b604051610aef919061447e565b60405180910390f35b348015610b0457600080fd5b50610b0d612931565b005b60125481565b60096020528060005260406000206000915090508060000160009054906101000a900473ffffffffffffffffffffffffffffffffffffffff16908060010154905082565b60007f80ac58cd000000000000000000000000000000000000000000000000000000007bffffffffffffffffffffffffffffffffffffffffffffffffffffffff1916827bffffffffffffffffffffffffffffffffffffffffffffffffffffffff19161480610c2457507f5b5e139f000000000000000000000000000000000000000000000000000000007bffffffffffffffffffffffffffffffffffffffffffffffffffffffff1916827bffffffffffffffffffffffffffffffffffffffffffffffffffffffff1916145b80610c8c57507f780e9d63000000000000000000000000000000000000000000000000000000007bffffffffffffffffffffffffffffffffffffffffffffffffffffffff1916827bffffffffffffffffffffffffffffffffffffffffffffffffffffffff1916145b80610c9c5750610c9b826129d9565b5b9050919050565b6060600b8054610cb290614940565b80601f0160208091040260200160405190810160405280929190818152602001828054610cde90614940565b8015610d2b5780601f10610d0057610100808354040283529160200191610d2b565b820191906000526020600020905b815481529060010190602001808311610d0e57829003601f168201915b5050505050905090565b6000610d4082612a43565b610d76576040517fa80ee18600000000000000000000000000000000000000000000000000000000815260040160405180910390fd5b6006600083815260200190815260200160002060009054906101000a900473ffffffffffffffffffffffffffffffffffffffff169050919050565b6000610dbc8261150d565b90508073ffffffffffffffffffffffffffffffffffffffff168373ffffffffffffffffffffffffffffffffffffffff161415610e24576040517fd2f1749b00000000000000000000000000000000000000000000000000000000815260040160405180910390fd5b8073ffffffffffffffffffffffffffffffffffffffff16610e43612a51565b73ffffffffffffffffffffffffffffffffffffffff1614158015610e755750610e7381610e6e612a51565b612699565b155b15610eac576040517f9703ec3a00000000000000000000000000000000000000000000000000000000815260040160405180910390fd5b610eb7838383612a59565b505050565b610ec4612a51565b73ffffffffffffffffffffffffffffffffffffffff16610ee2611845565b73ffffffffffffffffffffffffffffffffffffffff1614610f38576040517f08c379a0000000000000000000000000000000000000000000000000000000008152600401610f2f906145db565b60405180910390fd5b8060138190555050565b6000600154905090565b600d8054610f5990614940565b80601f0160208091040260200160405190810160405280929190818152602001828054610f8590614940565b8015610fd25780601f10610fa757610100808354040283529160200191610fd2565b820191906000526020600020905b815481529060010190602001808311610fb557829003601f168201915b505050505081565b610fe2612a51565b73ffffffffffffffffffffffffffffffffffffffff16611000611845565b73ffffffffffffffffffffffffffffffffffffffff1614611056576040517f08c379a000000000000000000000000000000000000000000000000000000000815260040161104d906145db565b60405180910390fd5b80600e8190555050565b61106b838383612b0b565b505050565b60115481565b600061108183611651565b82106110b9576040517f9e265c8200000000000000000000000000000000000000000000000000000000815260040160405180910390fd5b60006110c3610f42565b905060008060005b8381101561121d576000600460008381526020019081526020016000206040518060400160405290816000820160009054906101000a900473ffffffffffffffffffffffffffffffffffffffff1673ffffffffffffffffffffffffffffffffffffffff1673ffffffffffffffffffffffffffffffffffffffff1681526020016000820160149054906101000a900467ffffffffffffffff1667ffffffffffffffff1667ffffffffffffffff16815250509050600073ffffffffffffffffffffffffffffffffffffffff16816000015173ffffffffffffffffffffffffffffffffffffffff16146111bd57806000015192505b8773ffffffffffffffffffffffffffffffffffffffff168373ffffffffffffffffffffffffffffffffffffffff16141561120f5786841415611206578195505050505050611231565b83806001019450505b5080806001019150506110cb565b50600061122d5761122c614a41565b5b5050505b92915050565b61123f612a51565b73ffffffffffffffffffffffffffffffffffffffff1661125d611845565b73ffffffffffffffffffffffffffffffffffffffff16146112b3576040517f08c379a00000000000000000000000000000000000000000000000000000000081526004016112aa906145db565b60405180910390fd5b80600d90805190602001906112c99291906139da565b5050565b6112d5612a51565b73ffffffffffffffffffffffffffffffffffffffff166112f3611845565b73ffffffffffffffffffffffffffffffffffffffff1614611349576040517f08c379a0000000000000000000000000000000000000000000000000000000008152600401611340906145db565b60405180910390fd5b60004790506000606460058361135f91906147f2565b61136991906147c1565b905060008183611379919061484c565b90506000611385611845565b73ffffffffffffffffffffffffffffffffffffffff16826040516113a8906143d9565b60006040518083038185875af1925050503d80600081146113e5576040519150601f19603f3d011682016040523d82523d6000602084013e6113ea565b606091505b505090506000600860009054906101000a900473ffffffffffffffffffffffffffffffffffffffff1673ffffffffffffffffffffffffffffffffffffffff1684604051611436906143d9565b60006040518083038185875af1925050503d8060008114611473576040519150601f19603f3d011682016040523d82523d6000602084013e611478565b606091505b505090508161148657600080fd5b8061149057600080fd5b5050505050565b6114b283838360405180602001604052806000815250611d6b565b505050565b60135481565b60006114c7610f42565b82106114ff576040517f3fe92d1900000000000000000000000000000000000000000000000000000000815260040160405180910390fd5b819050919050565b60155481565b600061151882613023565b600001519050919050565b61152b612a51565b73ffffffffffffffffffffffffffffffffffffffff16611549611845565b73ffffffffffffffffffffffffffffffffffffffff161461159f576040517f08c379a0000000000000000000000000000000000000000000000000000000008152600401611596906145db565b60405180910390fd5b601660019054906101000a900460ff1615601660016101000a81548160ff021916908315150217905550565b6115d3612a51565b73ffffffffffffffffffffffffffffffffffffffff166115f1611845565b73ffffffffffffffffffffffffffffffffffffffff1614611647576040517f08c379a000000000000000000000000000000000000000000000000000000000815260040161163e906145db565b60405180910390fd5b80600f8190555050565b60008073ffffffffffffffffffffffffffffffffffffffff168273ffffffffffffffffffffffffffffffffffffffff1614156116b9576040517fb43d505900000000000000000000000000000000000000000000000000000000815260040160405180910390fd5b600560008373ffffffffffffffffffffffffffffffffffffffff1673ffffffffffffffffffffffffffffffffffffffff16815260200190815260200160002060000160009054906101000a90046fffffffffffffffffffffffffffffffff166fffffffffffffffffffffffffffffffff169050919050565b611739612a51565b73ffffffffffffffffffffffffffffffffffffffff16611757611845565b73ffffffffffffffffffffffffffffffffffffffff16146117ad576040517f08c379a00000000000000000000000000000000000000000000000000000000081526004016117a4906145db565b60405180910390fd5b6117b760006125ce565b565b60145481565b6117c7612a51565b73ffffffffffffffffffffffffffffffffffffffff166117e5611845565b73ffffffffffffffffffffffffffffffffffffffff161461183b576040517f08c379a0000000000000000000000000000000000000000000000000000000008152600401611832906145db565b60405180910390fd5b8060128190555050565b60008060029054906101000a900473ffffffffffffffffffffffffffffffffffffffff16905090565b611876612a51565b73ffffffffffffffffffffffffffffffffffffffff16611894611845565b73ffffffffffffffffffffffffffffffffffffffff16146118ea576040517f08c379a00000000000000000000000000000000000000000000000000000000081526004016118e1906145db565b60405180910390fd5b8060108190555050565b6118fc612a51565b73ffffffffffffffffffffffffffffffffffffffff1661191a611845565b73ffffffffffffffffffffffffffffffffffffffff1614611970576040517f08c379a0000000000000000000000000000000000000000000000000000000008152600401611967906145db565b60405180910390fd5b8060128190555050565b6060600c805461198990614940565b80601f01602080910402602001604051908101604052809291908181526020018280546119b590614940565b8015611a025780601f106119d757610100808354040283529160200191611a02565b820191906000526020600020905b8154815290600101906020018083116119e557829003601f168201915b5050505050905090565b611a14612a51565b73ffffffffffffffffffffffffffffffffffffffff16611a32611845565b73ffffffffffffffffffffffffffffffffffffffff1614611a88576040517f08c379a0000000000000000000000000000000000000000000000000000000008152600401611a7f906145db565b60405180910390fd5b8060148190555050565b601660019054906101000a900460ff1681565b60105481565b60008111611aee576040517f08c379a0000000000000000000000000000000000000000000000000000000008152600401611ae59061455b565b60405180910390fd5b601454811115611b33576040517f08c379a0000000000000000000000000000000000000000000000000000000008152600401611b2a906145bb565b60405180910390fd5b600f54600e54611b43919061484c565b611b4b610f42565b82611b56919061476b565b1115611b97576040517f08c379a0000000000000000000000000000000000000000000000000000000008152600401611b8e9061459b565b60405180910390fd5b3481601054611ba691906147f2565b14611be6576040517f08c379a0000000000000000000000000000000000000000000000000000000008152600401611bdd9061457b565b60405180910390fd5b611bf033826131ab565b50565b611bfb612a51565b73ffffffffffffffffffffffffffffffffffffffff168273ffffffffffffffffffffffffffffffffffffffff161415611c60576040517fd2f3880f00000000000000000000000000000000000000000000000000000000815260040160405180910390fd5b8060076000611c6d612a51565b73ffffffffffffffffffffffffffffffffffffffff1673ffffffffffffffffffffffffffffffffffffffff16815260200190815260200160002060008473ffffffffffffffffffffffffffffffffffffffff1673ffffffffffffffffffffffffffffffffffffffff16815260200190815260200160002060006101000a81548160ff0219169083151502179055508173ffffffffffffffffffffffffffffffffffffffff16611d1a612a51565b73ffffffffffffffffffffffffffffffffffffffff167f17307eab39ab6107e8899845ad3d59bd9653f200f220920489ca2b5937696c3183604051611d5f919061447e565b60405180910390a35050565b611d76848484612b0b565b611d828484848461347b565b611db8576040517f5bc5144200000000000000000000000000000000000000000000000000000000815260040160405180910390fd5b50505050565b600060019054906101000a900460ff16611de65760008054906101000a900460ff1615611def565b611dee613609565b5b611e2e576040517f08c379a0000000000000000000000000000000000000000000000000000000008152600401611e259061453b565b60405180910390fd5b60008060019054906101000a900460ff161590508015611e7e576001600060016101000a81548160ff02191690831515021790555060016000806101000a81548160ff0219169083151502179055505b611f9c600b8054611e8e90614940565b80601f0160208091040260200160405190810160405280929190818152602001828054611eba90614940565b8015611f075780601f10611edc57610100808354040283529160200191611f07565b820191906000526020600020905b815481529060010190602001808311611eea57829003601f168201915b5050505050600c8054611f1990614940565b80601f0160208091040260200160405190810160405280929190818152602001828054611f4590614940565b8015611f925780601f10611f6757610100808354040283529160200191611f92565b820191906000526020600020905b815481529060010190602001808311611f7557829003601f168201915b505050505061361a565b611fa5826125ce565b8015611fc65760008060016101000a81548160ff0219169083151502179055505b5050565b60001515600a60003373ffffffffffffffffffffffffffffffffffffffff1673ffffffffffffffffffffffffffffffffffffffff16815260200190815260200160002060009054906101000a900460ff161515141561213b5760405180604001604052803373ffffffffffffffffffffffffffffffffffffffff1681526020016000815250600960003373ffffffffffffffffffffffffffffffffffffffff1673ffffffffffffffffffffffffffffffffffffffff16815260200190815260200160002060008201518160000160006101000a81548173ffffffffffffffffffffffffffffffffffffffff021916908373ffffffffffffffffffffffffffffffffffffffff160217905550602082015181600101559050506001600a60003373ffffffffffffffffffffffffffffffffffffffff1673ffffffffffffffffffffffffffffffffffffffff16815260200190815260200160002060006101000a81548160ff0219169083151502179055505b60001515601660019054906101000a900460ff16151514612191576040517f08c379a00000000000000000000000000000000000000000000000000000000081526004016121889061465b565b60405180910390fd5b6014548111156121d6576040517f08c379a00000000000000000000000000000000000000000000000000000000081526004016121cd906145bb565b60405180910390fd5b601154816121e2610f42565b6121ec919061476b565b111561222d576040517f08c379a0000000000000000000000000000000000000000000000000000000008152600401612224906144fb565b60405180910390fd5b60135481600960003373ffffffffffffffffffffffffffffffffffffffff1673ffffffffffffffffffffffffffffffffffffffff1681526020019081526020016000206001015461227e919061476b565b11156122bf576040517f08c379a00000000000000000000000000000000000000000000000000000000081526004016122b69061451b565b60405180910390fd5b34816012546122ce91906147f2565b1461230e576040517f08c379a00000000000000000000000000000000000000000000000000000000081526004016123059061463b565b60405180910390fd5b600033604051602001612321919061439a565b604051602081830303815290604052805190602001209050612387848480806020026020016040519081016040528093929190818152602001838360200280828437600081840152601f19601f8201169050808301925050505050505060175483613677565b6123c6576040517f08c379a00000000000000000000000000000000000000000000000000000000081526004016123bd9061461b565b60405180910390fd5b6123d033836131ab565b81600960003373ffffffffffffffffffffffffffffffffffffffff1673ffffffffffffffffffffffffffffffffffffffff1681526020019081526020016000206001016000828254612422919061476b565b9250508190555050505050565b606061243a82612a43565b612470576040517fc0db38a100000000000000000000000000000000000000000000000000000000815260040160405180910390fd5b600061247a61368e565b905060008151141561249b57604051806020016040528060008152506124c6565b806124a584613720565b6040516020016124b69291906143b5565b6040516020818303038152906040525b915050919050565b601660009054906101000a900460ff1681565b600f5481565b6124ef612a51565b73ffffffffffffffffffffffffffffffffffffffff1661250d611845565b73ffffffffffffffffffffffffffffffffffffffff1614612563576040517f08c379a000000000000000000000000000000000000000000000000000000000815260040161255a906145db565b60405180910390fd5b600f548111156125a8576040517f08c379a000000000000000000000000000000000000000000000000000000000815260040161259f906144db565b60405180910390fd5b80600f60008282546125ba919061484c565b925050819055506125cb33826131ab565b50565b60008060029054906101000a900473ffffffffffffffffffffffffffffffffffffffff16905081600060026101000a81548173ffffffffffffffffffffffffffffffffffffffff021916908373ffffffffffffffffffffffffffffffffffffffff1602179055508173ffffffffffffffffffffffffffffffffffffffff168173ffffffffffffffffffffffffffffffffffffffff167f8be0079c531659141344cd1fd0a4f28419497f9722a3daafe3b4186f6b6457e060405160405180910390a35050565b600e5481565b6000600760008473ffffffffffffffffffffffffffffffffffffffff1673ffffffffffffffffffffffffffffffffffffffff16815260200190815260200160002060008373ffffffffffffffffffffffffffffffffffffffff1673ffffffffffffffffffffffffffffffffffffffff16815260200190815260200160002060009054906101000a900460ff16905092915050565b6001601554106127775761273f611845565b73ffffffffffffffffffffffffffffffffffffffff163373ffffffffffffffffffffffffffffffffffffffff161461277657600080fd5b5b8a600b908051906020019061278d9291906139da565b5089600c90805190602001906127a49291906139da565b5088600e81905550876011819055508660148190555085600f81905550846010819055508360128190555082600d90805190602001906127e59291906139da565b50816013819055508060178190555060156000815480929190612807906149a3565b91905055505050505050505050505050565b612821612a51565b73ffffffffffffffffffffffffffffffffffffffff1661283f611845565b73ffffffffffffffffffffffffffffffffffffffff1614612895576040517f08c379a000000000000000000000000000000000000000000000000000000000815260040161288c906145db565b60405180910390fd5b600073ffffffffffffffffffffffffffffffffffffffff168173ffffffffffffffffffffffffffffffffffffffff161415612905576040517f08c379a00000000000000000000000000000000000000000000000000000000081526004016128fc906144bb565b60405180910390fd5b61290e816125ce565b50565b600a6020528060005260406000206000915054906101000a900460ff1681565b612939612a51565b73ffffffffffffffffffffffffffffffffffffffff16612957611845565b73ffffffffffffffffffffffffffffffffffffffff16146129ad576040517f08c379a00000000000000000000000000000000000000000000000000000000081526004016129a4906145db565b60405180910390fd5b601660009054906101000a900460ff1615601660006101000a81548160ff021916908315150217905550565b60007f01ffc9a7000000000000000000000000000000000000000000000000000000007bffffffffffffffffffffffffffffffffffffffffffffffffffffffff1916827bffffffffffffffffffffffffffffffffffffffffffffffffffffffff1916149050919050565b600060015482109050919050565b600033905090565b826006600084815260200190815260200160002060006101000a81548173ffffffffffffffffffffffffffffffffffffffff021916908373ffffffffffffffffffffffffffffffffffffffff160217905550818373ffffffffffffffffffffffffffffffffffffffff168273ffffffffffffffffffffffffffffffffffffffff167f8c5be1e5ebec7d5bd14f71427d1e84f3dd0314c0f7b2291e5b200ac8c7c3b92560405160405180910390a4505050565b6000612b1682613023565b90506000816000015173ffffffffffffffffffffffffffffffffffffffff16612b3d612a51565b73ffffffffffffffffffffffffffffffffffffffff161480612b995750612b62612a51565b73ffffffffffffffffffffffffffffffffffffffff16612b8184610d35565b73ffffffffffffffffffffffffffffffffffffffff16145b80612bb55750612bb48260000151612baf612a51565b612699565b5b905080612bee576040517f35eece7500000000000000000000000000000000000000000000000000000000815260040160405180910390fd5b8473ffffffffffffffffffffffffffffffffffffffff16826000015173ffffffffffffffffffffffffffffffffffffffff1614612c57576040517fb8ca083600000000000000000000000000000000000000000000000000000000815260040160405180910390fd5b600073ffffffffffffffffffffffffffffffffffffffff168473ffffffffffffffffffffffffffffffffffffffff161415612cbe576040517fb6e84e9700000000000000000000000000000000000000000000000000000000815260040160405180910390fd5b612cce6000848460000151612a59565b6001600560008773ffffffffffffffffffffffffffffffffffffffff1673ffffffffffffffffffffffffffffffffffffffff16815260200190815260200160002060000160008282829054906101000a90046fffffffffffffffffffffffffffffffff160392506101000a8154816fffffffffffffffffffffffffffffffff02191690836fffffffffffffffffffffffffffffffff1602179055506001600560008673ffffffffffffffffffffffffffffffffffffffff1673ffffffffffffffffffffffffffffffffffffffff16815260200190815260200160002060000160008282829054906101000a90046fffffffffffffffffffffffffffffffff160192506101000a8154816fffffffffffffffffffffffffffffffff02191690836fffffffffffffffffffffffffffffffff160217905550836004600085815260200190815260200160002060000160006101000a81548173ffffffffffffffffffffffffffffffffffffffff021916908373ffffffffffffffffffffffffffffffffffffffff160217905550426004600085815260200190815260200160002060000160146101000a81548167ffffffffffffffff021916908367ffffffffffffffff1602179055506000600184019050600073ffffffffffffffffffffffffffffffffffffffff166004600083815260200190815260200160002060000160009054906101000a900473ffffffffffffffffffffffffffffffffffffffff1673ffffffffffffffffffffffffffffffffffffffff161415612fb357612f1281612a43565b15612fb25782600001516004600083815260200190815260200160002060000160006101000a81548173ffffffffffffffffffffffffffffffffffffffff021916908373ffffffffffffffffffffffffffffffffffffffff16021790555082602001516004600083815260200190815260200160002060000160146101000a81548167ffffffffffffffff021916908367ffffffffffffffff1602179055505b5b50828473ffffffffffffffffffffffffffffffffffffffff168673ffffffffffffffffffffffffffffffffffffffff167fddf252ad1be2c89b69c2b068fc378daa952ba7f163c4a11628f55a4df523b3ef60405160405180910390a461301c8585856001613881565b5050505050565b61302b613a60565b61303482612a43565b61306a576040517fd216a13f00000000000000000000000000000000000000000000000000000000815260040160405180910390fd5b60008290505b60008110613173576000600460008381526020019081526020016000206040518060400160405290816000820160009054906101000a900473ffffffffffffffffffffffffffffffffffffffff1673ffffffffffffffffffffffffffffffffffffffff1673ffffffffffffffffffffffffffffffffffffffff1681526020016000820160149054906101000a900467ffffffffffffffff1667ffffffffffffffff1667ffffffffffffffff16815250509050600073ffffffffffffffffffffffffffffffffffffffff16816000015173ffffffffffffffffffffffffffffffffffffffff16146131645780925050506131a6565b50808060019003915050613070565b506040517f0d157e8c00000000000000000000000000000000000000000000000000000000815260040160405180910390fd5b919050565b60006001549050600073ffffffffffffffffffffffffffffffffffffffff168373ffffffffffffffffffffffffffffffffffffffff161415613219576040517fb317706a00000000000000000000000000000000000000000000000000000000815260040160405180910390fd5b81600560008573ffffffffffffffffffffffffffffffffffffffff1673ffffffffffffffffffffffffffffffffffffffff16815260200190815260200160002060000160008282829054906101000a90046fffffffffffffffffffffffffffffffff160192506101000a8154816fffffffffffffffffffffffffffffffff02191690836fffffffffffffffffffffffffffffffff16021790555081600560008573ffffffffffffffffffffffffffffffffffffffff1673ffffffffffffffffffffffffffffffffffffffff16815260200190815260200160002060000160108282829054906101000a90046fffffffffffffffffffffffffffffffff160192506101000a8154816fffffffffffffffffffffffffffffffff02191690836fffffffffffffffffffffffffffffffff160217905550826004600083815260200190815260200160002060000160006101000a81548173ffffffffffffffffffffffffffffffffffffffff021916908373ffffffffffffffffffffffffffffffffffffffff160217905550426004600083815260200190815260200160002060000160146101000a81548167ffffffffffffffff021916908367ffffffffffffffff160217905550600081905060005b8381101561346057818573ffffffffffffffffffffffffffffffffffffffff16600073ffffffffffffffffffffffffffffffffffffffff167fddf252ad1be2c89b69c2b068fc378daa952ba7f163c4a11628f55a4df523b3ef60405160405180910390a4818060010192505080806001019150506133e7565b5080600181905550506134766000848385613881565b505050565b600061349c8473ffffffffffffffffffffffffffffffffffffffff16613887565b156135fc578373ffffffffffffffffffffffffffffffffffffffff1663150b7a026134c5612a51565b8786866040518563ffffffff1660e01b81526004016134e79493929190614409565b602060405180830381600087803b15801561350157600080fd5b505af192505050801561353257506040513d601f19601f8201168201806040525081019061352f9190613ebb565b60015b6135ac573d8060008114613562576040519150601f19603f3d011682016040523d82523d6000602084013e613567565b606091505b506000815114156135a4576040517f5bc5144200000000000000000000000000000000000000000000000000000000815260040160405180910390fd5b805181602001fd5b63150b7a0260e01b7bffffffffffffffffffffffffffffffffffffffffffffffffffffffff1916817bffffffffffffffffffffffffffffffffffffffffffffffffffffffff191614915050613601565b600190505b949350505050565b6000613614306138aa565b15905090565b600060019054906101000a900460ff16613669576040517f08c379a0000000000000000000000000000000000000000000000000000000008152600401613660906145fb565b60405180910390fd5b61367382826138cd565b5050565b600082613684858461394e565b1490509392505050565b6060600d805461369d90614940565b80601f01602080910402602001604051908101604052809291908181526020018280546136c990614940565b80156137165780601f106136eb57610100808354040283529160200191613716565b820191906000526020600020905b8154815290600101906020018083116136f957829003601f168201915b5050505050905090565b60606000821415613768576040518060400160405280600181526020017f3000000000000000000000000000000000000000000000000000000000000000815250905061387c565b600082905060005b6000821461379a578080613783906149a3565b915050600a8261379391906147c1565b9150613770565b60008167ffffffffffffffff8111156137b6576137b5614b2c565b5b6040519080825280601f01601f1916602001820160405280156137e85781602001600182028036833780820191505090505b5090505b6000851461387557600182613801919061484c565b9150600a856138109190614a10565b603061381c919061476b565b60f81b81838151811061383257613831614afd565b5b60200101907effffffffffffffffffffffffffffffffffffffffffffffffffffffffffffff1916908160001a905350600a8561386e91906147c1565b94506137ec565b8093505050505b919050565b50505050565b6000808273ffffffffffffffffffffffffffffffffffffffff163b119050919050565b6000808273ffffffffffffffffffffffffffffffffffffffff163b119050919050565b600060019054906101000a900460ff1661391c576040517f08c379a0000000000000000000000000000000000000000000000000000000008152600401613913906145fb565b60405180910390fd5b81600290805190602001906139329291906139da565b5080600390805190602001906139499291906139da565b505050565b60008082905060005b84518110156139b857600085828151811061397557613974614afd565b5b602002602001015190508083116139975761399083826139c3565b92506139a4565b6139a181846139c3565b92505b5080806139b0906149a3565b915050613957565b508091505092915050565b600082600052816020526040600020905092915050565b8280546139e690614940565b90600052602060002090601f016020900481019282613a085760008555613a4f565b82601f10613a2157805160ff1916838001178555613a4f565b82800160010185558215613a4f579182015b82811115613a4e578251825591602001919060010190613a33565b5b509050613a5c9190613a9a565b5090565b6040518060400160405280600073ffffffffffffffffffffffffffffffffffffffff168152602001600067ffffffffffffffff1681525090565b5b80821115613ab3576000816000905550600101613a9b565b5090565b6000613aca613ac5846146bb565b614696565b905082815260208101848484011115613ae657613ae5614b6a565b5b613af18482856148fe565b509392505050565b6000613b0c613b07846146ec565b614696565b905082815260208101848484011115613b2857613b27614b6a565b5b613b338482856148fe565b509392505050565b600081359050613b4a81614ee2565b92915050565b60008083601f840112613b6657613b65614b60565b5b8235905067ffffffffffffffff811115613b8357613b82614b5b565b5b602083019150836020820283011115613b9f57613b9e614b65565b5b9250929050565b600081359050613bb581614ef9565b92915050565b600081359050613bca81614f10565b92915050565b600081359050613bdf81614f27565b92915050565b600081519050613bf481614f27565b92915050565b600082601f830112613c0f57613c0e614b60565b5b8135613c1f848260208601613ab7565b91505092915050565b600082601f830112613c3d57613c3c614b60565b5b8135613c4d848260208601613af9565b91505092915050565b600081359050613c6581614f3e565b92915050565b600060208284031215613c8157613c80614b74565b5b6000613c8f84828501613b3b565b91505092915050565b60008060408385031215613caf57613cae614b74565b5b6000613cbd85828601613b3b565b9250506020613cce85828601613b3b565b9150509250929050565b600080600060608486031215613cf157613cf0614b74565b5b6000613cff86828701613b3b565b9350506020613d1086828701613b3b565b9250506040613d2186828701613c56565b9150509250925092565b60008060008060808587031215613d4557613d44614b74565b5b6000613d5387828801613b3b565b9450506020613d6487828801613b3b565b9350506040613d7587828801613c56565b925050606085013567ffffffffffffffff811115613d9657613d95614b6f565b5b613da287828801613bfa565b91505092959194509250565b60008060408385031215613dc557613dc4614b74565b5b6000613dd385828601613b3b565b9250506020613de485828601613ba6565b9150509250929050565b60008060408385031215613e0557613e04614b74565b5b6000613e1385828601613b3b565b9250506020613e2485828601613c56565b9150509250929050565b600080600060408486031215613e4757613e46614b74565b5b600084013567ffffffffffffffff811115613e6557613e64614b6f565b5b613e7186828701613b50565b93509350506020613e8486828701613c56565b9150509250925092565b600060208284031215613ea457613ea3614b74565b5b6000613eb284828501613bd0565b91505092915050565b600060208284031215613ed157613ed0614b74565b5b6000613edf84828501613be5565b91505092915050565b600060208284031215613efe57613efd614b74565b5b600082013567ffffffffffffffff811115613f1c57613f1b614b6f565b5b613f2884828501613c28565b91505092915050565b60008060008060008060008060008060006101608c8e031215613f5757613f56614b74565b5b60008c013567ffffffffffffffff811115613f7557613f74614b6f565b5b613f818e828f01613c28565b9b505060208c013567ffffffffffffffff811115613fa257613fa1614b6f565b5b613fae8e828f01613c28565b9a50506040613fbf8e828f01613c56565b9950506060613fd08e828f01613c56565b9850506080613fe18e828f01613c56565b97505060a0613ff28e828f01613c56565b96505060c06140038e828f01613c56565b95505060e06140148e828f01613c56565b9450506101008c013567ffffffffffffffff81111561403657614035614b6f565b5b6140428e828f01613c28565b9350506101206140548e828f01613c56565b9250506101406140668e828f01613bbb565b9150509295989b509295989b9093969950565b60006020828403121561408f5761408e614b74565b5b600061409d84828501613c56565b91505092915050565b6140af81614880565b82525050565b6140c66140c182614880565b6149ec565b82525050565b6140d581614892565b82525050565b60006140e68261471d565b6140f08185614733565b935061410081856020860161490d565b61410981614b79565b840191505092915050565b600061411f82614728565b614129818561474f565b935061413981856020860161490d565b61414281614b79565b840191505092915050565b600061415882614728565b6141628185614760565b935061417281856020860161490d565b80840191505092915050565b600061418b60268361474f565b915061419682614b97565b604082019050919050565b60006141ae60218361474f565b91506141b982614be6565b604082019050919050565b60006141d160298361474f565b91506141dc82614c35565b604082019050919050565b60006141f460278361474f565b91506141ff82614c84565b604082019050919050565b6000614217602e8361474f565b915061422282614cd3565b604082019050919050565b600061423a60128361474f565b915061424582614d22565b602082019050919050565b600061425d601d8361474f565b915061426882614d4b565b602082019050919050565b6000614280600f8361474f565b915061428b82614d74565b602082019050919050565b60006142a360218361474f565b91506142ae82614d9d565b604082019050919050565b60006142c660208361474f565b91506142d182614dec565b602082019050919050565b60006142e9600083614744565b91506142f482614e15565b600082019050919050565b600061430c602b8361474f565b915061431782614e18565b604082019050919050565b600061432f600d8361474f565b915061433a82614e67565b602082019050919050565b6000614352601d8361474f565b915061435d82614e90565b602082019050919050565b600061437560208361474f565b915061438082614eb9565b602082019050919050565b614394816148f4565b82525050565b60006143a682846140b5565b60148201915081905092915050565b60006143c1828561414d565b91506143cd828461414d565b91508190509392505050565b60006143e4826142dc565b9150819050919050565b600060208201905061440360008301846140a6565b92915050565b600060808201905061441e60008301876140a6565b61442b60208301866140a6565b614438604083018561438b565b818103606083015261444a81846140db565b905095945050505050565b600060408201905061446a60008301856140a6565b614477602083018461438b565b9392505050565b600060208201905061449360008301846140cc565b92915050565b600060208201905081810360008301526144b38184614114565b905092915050565b600060208201905081810360008301526144d48161417e565b9050919050565b600060208201905081810360008301526144f4816141a1565b9050919050565b60006020820190508181036000830152614514816141c4565b9050919050565b60006020820190508181036000830152614534816141e7565b9050919050565b600060208201905081810360008301526145548161420a565b9050919050565b600060208201905081810360008301526145748161422d565b9050919050565b6000602082019050818103600083015261459481614250565b9050919050565b600060208201905081810360008301526145b481614273565b9050919050565b600060208201905081810360008301526145d481614296565b9050919050565b600060208201905081810360008301526145f4816142b9565b9050919050565b60006020820190508181036000830152614614816142ff565b9050919050565b6000602082019050818103600083015261463481614322565b9050919050565b6000602082019050818103600083015261465481614345565b9050919050565b6000602082019050818103600083015261467481614368565b9050919050565b6000602082019050614690600083018461438b565b92915050565b60006146a06146b1565b90506146ac8282614972565b919050565b6000604051905090565b600067ffffffffffffffff8211156146d6576146d5614b2c565b5b6146df82614b79565b9050602081019050919050565b600067ffffffffffffffff82111561470757614706614b2c565b5b61471082614b79565b9050602081019050919050565b600081519050919050565b600081519050919050565b600082825260208201905092915050565b600081905092915050565b600082825260208201905092915050565b600081905092915050565b6000614776826148f4565b9150614781836148f4565b9250827fffffffffffffffffffffffffffffffffffffffffffffffffffffffffffffffff038211156147b6576147b5614a70565b5b828201905092915050565b60006147cc826148f4565b91506147d7836148f4565b9250826147e7576147e6614a9f565b5b828204905092915050565b60006147fd826148f4565b9150614808836148f4565b9250817fffffffffffffffffffffffffffffffffffffffffffffffffffffffffffffffff048311821515161561484157614840614a70565b5b828202905092915050565b6000614857826148f4565b9150614862836148f4565b92508282101561487557614874614a70565b5b828203905092915050565b600061488b826148d4565b9050919050565b60008115159050919050565b6000819050919050565b60007fffffffff0000000000000000000000000000000000000000000000000000000082169050919050565b600073ffffffffffffffffffffffffffffffffffffffff82169050919050565b6000819050919050565b82818337600083830152505050565b60005b8381101561492b578082015181840152602081019050614910565b8381111561493a576000848401525b50505050565b6000600282049050600182168061495857607f821691505b6020821081141561496c5761496b614ace565b5b50919050565b61497b82614b79565b810181811067ffffffffffffffff8211171561499a57614999614b2c565b5b80604052505050565b60006149ae826148f4565b91507fffffffffffffffffffffffffffffffffffffffffffffffffffffffffffffffff8214156149e1576149e0614a70565b5b600182019050919050565b60006149f7826149fe565b9050919050565b6000614a0982614b8a565b9050919050565b6000614a1b826148f4565b9150614a26836148f4565b925082614a3657614a35614a9f565b5b828206905092915050565b7f4e487b7100000000000000000000000000000000000000000000000000000000600052600160045260246000fd5b7f4e487b7100000000000000000000000000000000000000000000000000000000600052601160045260246000fd5b7f4e487b7100000000000000000000000000000000000000000000000000000000600052601260045260246000fd5b7f4e487b7100000000000000000000000000000000000000000000000000000000600052602260045260246000fd5b7f4e487b7100000000000000000000000000000000000000000000000000000000600052603260045260246000fd5b7f4e487b7100000000000000000000000000000000000000000000000000000000600052604160045260246000fd5b600080fd5b600080fd5b600080fd5b600080fd5b600080fd5b600080fd5b6000601f19601f8301169050919050565b60008160601b9050919050565b7f4f776e61626c653a206e6577206f776e657220697320746865207a65726f206160008201527f6464726573730000000000000000000000000000000000000000000000000000602082015250565b7f546865207175616e74697479206578636565647320746865207265736572766560008201527f2e00000000000000000000000000000000000000000000000000000000000000602082015250565b7f5175616e746974792069732067726561746572207468616e2072656d61696e6960008201527f6e6720537570706c790000000000000000000000000000000000000000000000602082015250565b7f5175616e74697479204d757374204265204c6573736572205468616e204d617860008201527f20537570706c7900000000000000000000000000000000000000000000000000602082015250565b7f496e697469616c697a61626c653a20636f6e747261637420697320616c72656160008201527f647920696e697469616c697a6564000000000000000000000000000000000000602082015250565b7f7a65726f206e6f7420616c6c6f77656461610000000000000000000000000000600082015250565b7f53656e742065746865722076616c756520697320696e636f7272656374000000600082015250565b7f7075626c69632073616c6520656e640000000000000000000000000000000000600082015250565b7f43686f73656e20416d6f756e742065786365656473204d61785175616e74697460008201527f7900000000000000000000000000000000000000000000000000000000000000602082015250565b7f4f776e61626c653a2063616c6c6572206973206e6f7420746865206f776e6572600082015250565b50565b7f496e697469616c697a61626c653a20636f6e7472616374206973206e6f74206960008201527f6e697469616c697a696e67000000000000000000000000000000000000000000602082015250565b7f496e76616c69642050726f6f6600000000000000000000000000000000000000600082015250565b7f53656e742045746865722056616c756520497320496e636f7272656374000000600082015250565b7f53616c65206973206e6f742061637469766520617420746865206d6f6d656e74600082015250565b614eeb81614880565b8114614ef657600080fd5b50565b614f0281614892565b8114614f0d57600080fd5b50565b614f198161489e565b8114614f2457600080fd5b50565b614f30816148a8565b8114614f3b57600080fd5b50565b614f47816148f4565b8114614f5257600080fd5b5056fea2646970667358221220a2a3d3f9068bd34b1a35d1822509f6b79c2349236ea8ef6b4183b643c61dc30f64736f6c63430008070033",
  "linkReferences": {},
  "deployedLinkReferences": {}
}