{
  "_format": "hh-sol-artifact-1",
  "contractName": "test",
  "sourceName": "contracts/test.sol",
  "abi": [
    {
      "inputs": [
        {
          "internalType": "string",
          "name": "baseUri",
          "type": "string"
        }
      ],
      "stateMutability": "nonpayable",
      "type": "constructor"
    },
    {
      "inputs": [],
      "name": "ApprovalCallerNotOwnerNorApproved",
      "type": "error"
    },
    {
      "inputs": [],
      "name": "ApprovalQueryForNonexistentToken",
      "type": "error"
    },
    {
      "inputs": [],
      "name": "ApprovalToCurrentOwner",
      "type": "error"
    },
    {
      "inputs": [],
      "name": "ApproveToCaller",
      "type": "error"
    },
    {
      "inputs": [],
      "name": "BalanceQueryForZeroAddress",
      "type": "error"
    },
    {
      "inputs": [],
      "name": "MintToZeroAddress",
      "type": "error"
    },
    {
      "inputs": [],
      "name": "OwnerIndexOutOfBounds",
      "type": "error"
    },
    {
      "inputs": [],
      "name": "OwnerQueryForNonexistentToken",
      "type": "error"
    },
    {
      "inputs": [],
      "name": "TokenIndexOutOfBounds",
      "type": "error"
    },
    {
      "inputs": [],
      "name": "TransferCallerNotOwnerNorApproved",
      "type": "error"
    },
    {
      "inputs": [],
      "name": "TransferFromIncorrectOwner",
      "type": "error"
    },
    {
      "inputs": [],
      "name": "TransferToNonERC721ReceiverImplementer",
      "type": "error"
    },
    {
      "inputs": [],
      "name": "TransferToZeroAddress",
      "type": "error"
    },
    {
      "inputs": [],
      "name": "URIQueryForNonexistentToken",
      "type": "error"
    },
    {
      "inputs": [],
      "name": "UnableDetermineTokenOwner",
      "type": "error"
    },
    {
      "anonymous": false,
      "inputs": [
        {
          "indexed": true,
          "internalType": "address",
          "name": "owner",
          "type": "address"
        },
        {
          "indexed": true,
          "internalType": "address",
          "name": "approved",
          "type": "address"
        },
        {
          "indexed": true,
          "internalType": "uint256",
          "name": "tokenId",
          "type": "uint256"
        }
      ],
      "name": "Approval",
      "type": "event"
    },
    {
      "anonymous": false,
      "inputs": [
        {
          "indexed": true,
          "internalType": "address",
          "name": "owner",
          "type": "address"
        },
        {
          "indexed": true,
          "internalType": "address",
          "name": "operator",
          "type": "address"
        },
        {
          "indexed": false,
          "internalType": "bool",
          "name": "approved",
          "type": "bool"
        }
      ],
      "name": "ApprovalForAll",
      "type": "event"
    },
    {
      "anonymous": false,
      "inputs": [
        {
          "indexed": true,
          "internalType": "address",
          "name": "previousOwner",
          "type": "address"
        },
        {
          "indexed": true,
          "internalType": "address",
          "name": "newOwner",
          "type": "address"
        }
      ],
      "name": "OwnershipTransferred",
      "type": "event"
    },
    {
      "anonymous": false,
      "inputs": [
        {
          "indexed": true,
          "internalType": "address",
          "name": "from",
          "type": "address"
        },
        {
          "indexed": true,
          "internalType": "address",
          "name": "to",
          "type": "address"
        },
        {
          "indexed": true,
          "internalType": "uint256",
          "name": "tokenId",
          "type": "uint256"
        }
      ],
      "name": "Transfer",
      "type": "event"
    },
    {
      "inputs": [],
      "name": "_baseURI1",
      "outputs": [
        {
          "internalType": "string",
          "name": "",
          "type": "string"
        }
      ],
      "stateMutability": "view",
      "type": "function"
    },
    {
      "inputs": [
        {
          "internalType": "address",
          "name": "to",
          "type": "address"
        },
        {
          "internalType": "uint256",
          "name": "tokenId",
          "type": "uint256"
        }
      ],
      "name": "approve",
      "outputs": [],
      "stateMutability": "nonpayable",
      "type": "function"
    },
    {
      "inputs": [
        {
          "internalType": "address",
          "name": "owner",
          "type": "address"
        }
      ],
      "name": "balanceOf",
      "outputs": [
        {
          "internalType": "uint256",
          "name": "",
          "type": "uint256"
        }
      ],
      "stateMutability": "view",
      "type": "function"
    },
    {
      "inputs": [],
      "name": "flipPauseStatus",
      "outputs": [],
      "stateMutability": "nonpayable",
      "type": "function"
    },
    {
      "inputs": [
        {
          "internalType": "uint256",
          "name": "tokenId",
          "type": "uint256"
        }
      ],
      "name": "getApproved",
      "outputs": [
        {
          "internalType": "address",
          "name": "",
          "type": "address"
        }
      ],
      "stateMutability": "view",
      "type": "function"
    },
    {
      "inputs": [
        {
          "internalType": "address",
          "name": "owner",
          "type": "address"
        },
        {
          "internalType": "address",
          "name": "operator",
          "type": "address"
        }
      ],
      "name": "isApprovedForAll",
      "outputs": [
        {
          "internalType": "bool",
          "name": "",
          "type": "bool"
        }
      ],
      "stateMutability": "view",
      "type": "function"
    },
    {
      "inputs": [],
      "name": "isPaused",
      "outputs": [
        {
          "internalType": "bool",
          "name": "",
          "type": "bool"
        }
      ],
      "stateMutability": "view",
      "type": "function"
    },
    {
      "inputs": [],
      "name": "maxSupply",
      "outputs": [
        {
          "internalType": "uint256",
          "name": "",
          "type": "uint256"
        }
      ],
      "stateMutability": "view",
      "type": "function"
    },
    {
      "inputs": [
        {
          "internalType": "uint256",
          "name": "quantity",
          "type": "uint256"
        }
      ],
      "name": "mint",
      "outputs": [],
      "stateMutability": "nonpayable",
      "type": "function"
    },
    {
      "inputs": [],
      "name": "name",
      "outputs": [
        {
          "internalType": "string",
          "name": "",
          "type": "string"
        }
      ],
      "stateMutability": "view",
      "type": "function"
    },
    {
      "inputs": [],
      "name": "owner",
      "outputs": [
        {
          "internalType": "address",
          "name": "",
          "type": "address"
        }
      ],
      "stateMutability": "view",
      "type": "function"
    },
    {
      "inputs": [
        {
          "internalType": "uint256",
          "name": "tokenId",
          "type": "uint256"
        }
      ],
      "name": "ownerOf",
      "outputs": [
        {
          "internalType": "address",
          "name": "",
          "type": "address"
        }
      ],
      "stateMutability": "view",
      "type": "function"
    },
    {
      "inputs": [],
      "name": "renounceOwnership",
      "outputs": [],
      "stateMutability": "nonpayable",
      "type": "function"
    },
    {
      "inputs": [
        {
          "internalType": "address",
          "name": "from",
          "type": "address"
        },
        {
          "internalType": "address",
          "name": "to",
          "type": "address"
        },
        {
          "internalType": "uint256",
          "name": "tokenId",
          "type": "uint256"
        }
      ],
      "name": "safeTransferFrom",
      "outputs": [],
      "stateMutability": "nonpayable",
      "type": "function"
    },
    {
      "inputs": [
        {
          "internalType": "address",
          "name": "from",
          "type": "address"
        },
        {
          "internalType": "address",
          "name": "to",
          "type": "address"
        },
        {
          "internalType": "uint256",
          "name": "tokenId",
          "type": "uint256"
        },
        {
          "internalType": "bytes",
          "name": "_data",
          "type": "bytes"
        }
      ],
      "name": "safeTransferFrom",
      "outputs": [],
      "stateMutability": "nonpayable",
      "type": "function"
    },
    {
      "inputs": [
        {
          "internalType": "address",
          "name": "operator",
          "type": "address"
        },
        {
          "internalType": "bool",
          "name": "approved",
          "type": "bool"
        }
      ],
      "name": "setApprovalForAll",
      "outputs": [],
      "stateMutability": "nonpayable",
      "type": "function"
    },
    {
      "inputs": [
        {
          "internalType": "string",
          "name": "baseuri",
          "type": "string"
        }
      ],
      "name": "setBaseURI",
      "outputs": [],
      "stateMutability": "nonpayable",
      "type": "function"
    },
    {
      "inputs": [
        {
          "internalType": "bytes4",
          "name": "interfaceId",
          "type": "bytes4"
        }
      ],
      "name": "supportsInterface",
      "outputs": [
        {
          "internalType": "bool",
          "name": "",
          "type": "bool"
        }
      ],
      "stateMutability": "view",
      "type": "function"
    },
    {
      "inputs": [],
      "name": "symbol",
      "outputs": [
        {
          "internalType": "string",
          "name": "",
          "type": "string"
        }
      ],
      "stateMutability": "view",
      "type": "function"
    },
    {
      "inputs": [
        {
          "internalType": "uint256",
          "name": "index",
          "type": "uint256"
        }
      ],
      "name": "tokenByIndex",
      "outputs": [
        {
          "internalType": "uint256",
          "name": "",
          "type": "uint256"
        }
      ],
      "stateMutability": "view",
      "type": "function"
    },
    {
      "inputs": [
        {
          "internalType": "address",
          "name": "owner",
          "type": "address"
        },
        {
          "internalType": "uint256",
          "name": "index",
          "type": "uint256"
        }
      ],
      "name": "tokenOfOwnerByIndex",
      "outputs": [
        {
          "internalType": "uint256",
          "name": "a",
          "type": "uint256"
        }
      ],
      "stateMutability": "view",
      "type": "function"
    },
    {
      "inputs": [
        {
          "internalType": "uint256",
          "name": "tokenId",
          "type": "uint256"
        }
      ],
      "name": "tokenURI",
      "outputs": [
        {
          "internalType": "string",
          "name": "",
          "type": "string"
        }
      ],
      "stateMutability": "view",
      "type": "function"
    },
    {
      "inputs": [
        {
          "internalType": "address",
          "name": "_owner",
          "type": "address"
        }
      ],
      "name": "tokensOfOwner",
      "outputs": [
        {
          "internalType": "uint256[]",
          "name": "",
          "type": "uint256[]"
        }
      ],
      "stateMutability": "view",
      "type": "function"
    },
    {
      "inputs": [],
      "name": "totalSupply",
      "outputs": [
        {
          "internalType": "uint256",
          "name": "",
          "type": "uint256"
        }
      ],
      "stateMutability": "view",
      "type": "function"
    },
    {
      "inputs": [
        {
          "internalType": "address",
          "name": "from",
          "type": "address"
        },
        {
          "internalType": "address",
          "name": "to",
          "type": "address"
        },
        {
          "internalType": "uint256",
          "name": "tokenId",
          "type": "uint256"
        }
      ],
      "name": "transferFrom",
      "outputs": [],
      "stateMutability": "nonpayable",
      "type": "function"
    },
    {
      "inputs": [
        {
          "internalType": "address",
          "name": "newOwner",
          "type": "address"
        }
      ],
      "name": "transferOwnership",
      "outputs": [],
      "stateMutability": "nonpayable",
      "type": "function"
    }
  ],
  "bytecode": "0x6080604052612710600855600a805460ff191660011790553480156200002457600080fd5b5060405162001bd538038062001bd58339810160408190526200004791620001da565b60408051808201825260048152631d195cdd60e21b602080830191825283518085019094526003845262494e4d60e81b9084015281519192916200008e9160019162000134565b508051620000a490600290602084019062000134565b505050620000c1620000bb620000de60201b60201c565b620000e2565b8051620000d690600990602084019062000134565b505062000303565b3390565b600780546001600160a01b038381166001600160a01b0319831681179093556040519116919082907f8be0079c531659141344cd1fd0a4f28419497f9722a3daafe3b4186f6b6457e090600090a35050565b8280546200014290620002b0565b90600052602060002090601f016020900481019282620001665760008555620001b1565b82601f106200018157805160ff1916838001178555620001b1565b82800160010185558215620001b1579182015b82811115620001b157825182559160200191906001019062000194565b50620001bf929150620001c3565b5090565b5b80821115620001bf5760008155600101620001c4565b60006020808385031215620001ed578182fd5b82516001600160401b038082111562000204578384fd5b818501915085601f83011262000218578384fd5b8151818111156200022d576200022d620002ed565b604051601f8201601f19908116603f01168101908382118183101715620002585762000258620002ed565b81604052828152888684870101111562000270578687fd5b8693505b8284101562000293578484018601518185018701529285019262000274565b82841115620002a457868684830101525b98975050505050505050565b600181811c90821680620002c557607f821691505b60208210811415620002e757634e487b7160e01b600052602260045260246000fd5b50919050565b634e487b7160e01b600052604160045260246000fd5b6118c280620003136000396000f3fe608060405234801561001057600080fd5b506004361061018e5760003560e01c8063715018a6116100de578063b187bd2611610097578063d5abeb0111610071578063d5abeb0114610349578063e985e9c514610352578063f2fde38b1461038e578063fa62884c146103a157600080fd5b8063b187bd2614610316578063b88d4fde14610323578063c87b56dd1461033657600080fd5b8063715018a6146102af5780638462151c146102b75780638da5cb5b146102d757806395d89b41146102e8578063a0712d68146102f0578063a22cb4651461030357600080fd5b806323b872dd1161014b5780634f6ccce7116101255780634f6ccce71461026357806355f804b3146102765780636352211e1461028957806370a082311461029c57600080fd5b806323b872dd1461022a5780632f745c591461023d57806342842e0e1461025057600080fd5b806301ffc9a71461019357806306fdde03146101bb578063081812fc146101d0578063095ea7b3146101fb57806311e0f0631461021057806318160ddd14610218575b600080fd5b6101a66101a1366004611591565b6103a9565b60405190151581526020015b60405180910390f35b6101c3610416565b6040516101b29190611713565b6101e36101de36600461160f565b6104a8565b6040516001600160a01b0390911681526020016101b2565b61020e610209366004611568565b6104ee565b005b6101c361057c565b6000545b6040519081526020016101b2565b61020e61023836600461147a565b61060a565b61021c61024b366004611568565b610615565b61020e61025e36600461147a565b6106ef565b61021c61027136600461160f565b61070a565b61020e6102843660046115c9565b610731565b6101e361029736600461160f565b61077b565b61021c6102aa36600461142e565b61078d565b61020e6107db565b6102ca6102c536600461142e565b610811565b6040516101b291906116cf565b6007546001600160a01b03166101e3565b6101c36108cf565b61020e6102fe36600461160f565b6108de565b61020e61031136600461152e565b6109f2565b600a546101a69060ff1681565b61020e6103313660046114b5565b610a88565b6101c361034436600461160f565b610ac2565b61021c60085481565b6101a6610360366004611448565b6001600160a01b03918216600090815260066020908152604080832093909416825291909152205460ff1690565b61020e61039c36600461142e565b610b49565b61020e610be1565b60006001600160e01b031982166380ac58cd60e01b14806103da57506001600160e01b03198216635b5e139f60e01b145b806103f557506001600160e01b0319821663780e9d6360e01b145b8061041057506301ffc9a760e01b6001600160e01b03198316145b92915050565b606060018054610425906117ca565b80601f0160208091040260200160405190810160405280929190818152602001828054610451906117ca565b801561049e5780601f106104735761010080835404028352916020019161049e565b820191906000526020600020905b81548152906001019060200180831161048157829003601f168201915b5050505050905090565b60006104b5826000541190565b6104d2576040516333d1c03960e21b815260040160405180910390fd5b506000908152600560205260409020546001600160a01b031690565b60006104f98261077b565b9050806001600160a01b0316836001600160a01b0316141561052e5760405163250fdee360e21b815260040160405180910390fd5b336001600160a01b0382161480159061054e575061054c8133610360565b155b1561056c576040516367d9dca160e11b815260040160405180910390fd5b610577838383610c1f565b505050565b60098054610589906117ca565b80601f01602080910402602001604051908101604052809291908181526020018280546105b5906117ca565b80156106025780601f106105d757610100808354040283529160200191610602565b820191906000526020600020905b8154815290600101906020018083116105e557829003601f168201915b505050505081565b610577838383610c7b565b60006106208361078d565b821061063f576040516306ed618760e11b815260040160405180910390fd5b600080549080805b838110156106d8576000818152600360209081526040918290208251808401909352546001600160a01b038116808452600160a01b90910467ffffffffffffffff16918301919091521561069a57805192505b876001600160a01b0316836001600160a01b031614156106cf57868414156106c85750935061041092505050565b6001909301925b50600101610647565b50634e487b7160e01b600052600160045260246000fd5b61057783838360405180602001604052806000815250610a88565b60008054821061072d576040516329c8c00760e21b815260040160405180910390fd5b5090565b6007546001600160a01b031633146107645760405162461bcd60e51b815260040161075b90611726565b60405180910390fd5b805161077790600990602084019061130c565b5050565b600061078682610e9a565b5192915050565b60006001600160a01b0382166107b6576040516323d3ad8160e21b815260040160405180910390fd5b506001600160a01b03166000908152600460205260409020546001600160801b031690565b6007546001600160a01b031633146108055760405162461bcd60e51b815260040161075b90611726565b61080f6000610f2f565b565b6060600061081e8361078d565b905060008167ffffffffffffffff81111561084957634e487b7160e01b600052604160045260246000fd5b604051908082528060200260200182016040528015610872578160200160208202803683370190505b50905060005b828110156108c75761088a8582610615565b8282815181106108aa57634e487b7160e01b600052603260045260246000fd5b6020908102919091010152806108bf81611805565b915050610878565b509392505050565b606060028054610425906117ca565b600081116109385760405162461bcd60e51b815260206004820152602160248201527f7175616e746974792073686f756c642062652067726561746572207468616e206044820152600360fc1b606482015260840161075b565b600a5460ff16156109805760405162461bcd60e51b81526020600482015260126024820152711b5a5b9d1a5b99c81a5cc81cdd1bdc1c195960721b604482015260640161075b565b6008548161098d60005490565b610997919061175b565b11156109e55760405162461bcd60e51b815260206004820152601b60248201527f616c6c20746f6b656e732068617665206265656e206d696e7465640000000000604482015260640161075b565b6109ef3382610f81565b50565b6001600160a01b038216331415610a1c5760405163b06307db60e01b815260040160405180910390fd5b3360008181526006602090815260408083206001600160a01b03871680855290835292819020805460ff191686151590811790915590519081529192917f17307eab39ab6107e8899845ad3d59bd9653f200f220920489ca2b5937696c31910160405180910390a35050565b610a93848484610c7b565b610a9f84848484610f9b565b610abc576040516368d2bf6b60e11b815260040160405180910390fd5b50505050565b6060610acf826000541190565b610aec57604051630a14c4b560e41b815260040160405180910390fd5b6000610af66110aa565b9050805160001415610b175760405180602001604052806000815250610b42565b80610b21846110b9565b604051602001610b32929190611653565b6040516020818303038152906040525b9392505050565b6007546001600160a01b03163314610b735760405162461bcd60e51b815260040161075b90611726565b6001600160a01b038116610bd85760405162461bcd60e51b815260206004820152602660248201527f4f776e61626c653a206e6577206f776e657220697320746865207a65726f206160448201526564647265737360d01b606482015260840161075b565b6109ef81610f2f565b6007546001600160a01b03163314610c0b5760405162461bcd60e51b815260040161075b90611726565b600a805460ff19811660ff90911615179055565b60008281526005602052604080822080546001600160a01b0319166001600160a01b0387811691821790925591518593918516917f8c5be1e5ebec7d5bd14f71427d1e84f3dd0314c0f7b2291e5b200ac8c7c3b92591a4505050565b6000610c8682610e9a565b80519091506000906001600160a01b0316336001600160a01b03161480610cbd575033610cb2846104a8565b6001600160a01b0316145b80610ccf57508151610ccf9033610360565b905080610cef57604051632ce44b5f60e11b815260040160405180910390fd5b846001600160a01b031682600001516001600160a01b031614610d245760405162a1148160e81b815260040160405180910390fd5b6001600160a01b038416610d4b57604051633a954ecd60e21b815260040160405180910390fd5b610d5b6000848460000151610c1f565b6001600160a01b03858116600090815260046020908152604080832080546001600160801b03198082166001600160801b03928316600019018316179092558986168086528386208054938416938316600190810190931693909317909255888552600390935281842080546001600160e01b031916909117600160a01b4267ffffffffffffffff1602179055908601808352912054909116610e5057610e03816000541190565b15610e50578251600082815260036020908152604090912080549186015167ffffffffffffffff16600160a01b026001600160e01b03199092166001600160a01b03909316929092171790555b5082846001600160a01b0316866001600160a01b03167fddf252ad1be2c89b69c2b068fc378daa952ba7f163c4a11628f55a4df523b3ef60405160405180910390a45b5050505050565b6040805180820190915260008082526020820152610eb9826000541190565b610ed657604051636f96cda160e11b815260040160405180910390fd5b815b6000818152600360209081526040918290208251808401909352546001600160a01b038116808452600160a01b90910467ffffffffffffffff169183019190915215610f25579392505050565b5060001901610ed8565b600780546001600160a01b038381166001600160a01b0319831681179093556040519116919082907f8be0079c531659141344cd1fd0a4f28419497f9722a3daafe3b4186f6b6457e090600090a35050565b6107778282604051806020016040528060008152506111d3565b60006001600160a01b0384163b1561109e57604051630a85bd0160e11b81526001600160a01b0385169063150b7a0290610fdf903390899088908890600401611692565b602060405180830381600087803b158015610ff957600080fd5b505af1925050508015611029575060408051601f3d908101601f19168201909252611026918101906115ad565b60015b611084573d808015611057576040519150601f19603f3d011682016040523d82523d6000602084013e61105c565b606091505b50805161107c576040516368d2bf6b60e11b815260040160405180910390fd5b805181602001fd5b6001600160e01b031916630a85bd0160e11b1490506110a2565b5060015b949350505050565b606060098054610425906117ca565b6060816110dd5750506040805180820190915260018152600360fc1b602082015290565b8160005b811561110757806110f181611805565b91506111009050600a83611773565b91506110e1565b60008167ffffffffffffffff81111561113057634e487b7160e01b600052604160045260246000fd5b6040519080825280601f01601f19166020018201604052801561115a576020820181803683370190505b5090505b84156110a25761116f600183611787565b915061117c600a86611820565b61118790603061175b565b60f81b8183815181106111aa57634e487b7160e01b600052603260045260246000fd5b60200101906001600160f81b031916908160001a9053506111cc600a86611773565b945061115e565b61057783838360016000546001600160a01b03851661120457604051622e076360e81b815260040160405180910390fd5b6001600160a01b03851660008181526004602090815260408083208054600160801b6001600160801b031982166001600160801b039283168c01831690811782900483168c01909216021790558483526003909152812080546001600160e01b031916909217600160a01b4267ffffffffffffffff16021790915581905b858110156113035760405182906001600160a01b038916906000907fddf252ad1be2c89b69c2b068fc378daa952ba7f163c4a11628f55a4df523b3ef908290a48380156112d957506112d76000888488610f9b565b155b156112f7576040516368d2bf6b60e11b815260040160405180910390fd5b60019182019101611282565b50600055610e93565b828054611318906117ca565b90600052602060002090601f01602090048101928261133a5760008555611380565b82601f1061135357805160ff1916838001178555611380565b82800160010185558215611380579182015b82811115611380578251825591602001919060010190611365565b5061072d9291505b8082111561072d5760008155600101611388565b600067ffffffffffffffff808411156113b7576113b7611860565b604051601f8501601f19908116603f011681019082821181831017156113df576113df611860565b816040528093508581528686860111156113f857600080fd5b858560208301376000602087830101525050509392505050565b80356001600160a01b038116811461142957600080fd5b919050565b60006020828403121561143f578081fd5b610b4282611412565b6000806040838503121561145a578081fd5b61146383611412565b915061147160208401611412565b90509250929050565b60008060006060848603121561148e578081fd5b61149784611412565b92506114a560208501611412565b9150604084013590509250925092565b600080600080608085870312156114ca578081fd5b6114d385611412565b93506114e160208601611412565b925060408501359150606085013567ffffffffffffffff811115611503578182fd5b8501601f81018713611513578182fd5b6115228782356020840161139c565b91505092959194509250565b60008060408385031215611540578182fd5b61154983611412565b91506020830135801515811461155d578182fd5b809150509250929050565b6000806040838503121561157a578182fd5b61158383611412565b946020939093013593505050565b6000602082840312156115a2578081fd5b8135610b4281611876565b6000602082840312156115be578081fd5b8151610b4281611876565b6000602082840312156115da578081fd5b813567ffffffffffffffff8111156115f0578182fd5b8201601f81018413611600578182fd5b6110a28482356020840161139c565b600060208284031215611620578081fd5b5035919050565b6000815180845261163f81602086016020860161179e565b601f01601f19169290920160200192915050565b6000835161166581846020880161179e565b83519083019061167981836020880161179e565b64173539b7b760d91b9101908152600501949350505050565b6001600160a01b03858116825284166020820152604081018390526080606082018190526000906116c590830184611627565b9695505050505050565b6020808252825182820181905260009190848201906040850190845b81811015611707578351835292840192918401916001016116eb565b50909695505050505050565b602081526000610b426020830184611627565b6020808252818101527f4f776e61626c653a2063616c6c6572206973206e6f7420746865206f776e6572604082015260600190565b6000821982111561176e5761176e611834565b500190565b6000826117825761178261184a565b500490565b60008282101561179957611799611834565b500390565b60005b838110156117b95781810151838201526020016117a1565b83811115610abc5750506000910152565b600181811c908216806117de57607f821691505b602082108114156117ff57634e487b7160e01b600052602260045260246000fd5b50919050565b600060001982141561181957611819611834565b5060010190565b60008261182f5761182f61184a565b500690565b634e487b7160e01b600052601160045260246000fd5b634e487b7160e01b600052601260045260246000fd5b634e487b7160e01b600052604160045260246000fd5b6001600160e01b0319811681146109ef57600080fdfea26469706673582212201a70db806bf6f904b125926351d52294c4ee716d09890856a3edbb8c0efc5afc64736f6c63430008040033",
  "linkReferences": {},
  "deployedLinkReferences": {}
}