{
  "_format": "hh-sol-artifact-1",
  "contractName": "NFTMarketplace",
  "sourceName": "contracts/NFTMarketplace.sol",
  "abi": [
    {
      "inputs": [],
      "stateMutability": "nonpayable",
      "type": "constructor"
    },
    {
      "anonymous": false,
      "inputs": [
        {
          "indexed": false,
          "internalType": "bytes32",
          "name": "id",
          "type": "bytes32"
        }
      ],
      "name": "AuctionCancelled",
      "type": "event"
    },
    {
      "anonymous": false,
      "inputs": [
        {
          "indexed": false,
          "internalType": "bytes32",
          "name": "orderId",
          "type": "bytes32"
        },
        {
          "indexed": true,
          "internalType": "address",
          "name": "seller",
          "type": "address"
        },
        {
          "indexed": true,
          "internalType": "uint256",
          "name": "tokenId",
          "type": "uint256"
        },
        {
          "indexed": false,
          "internalType": "uint256",
          "name": "minBid",
          "type": "uint256"
        },
        {
          "indexed": false,
          "internalType": "uint256",
          "name": "expiryTime",
          "type": "uint256"
        }
      ],
      "name": "AuctionCreated",
      "type": "event"
    },
    {
      "anonymous": false,
      "inputs": [
        {
          "indexed": false,
          "internalType": "address",
          "name": "bidder",
          "type": "address"
        },
        {
          "indexed": false,
          "internalType": "uint256",
          "name": "highestBid",
          "type": "uint256"
        },
        {
          "indexed": false,
          "internalType": "address",
          "name": "highestBidder",
          "type": "address"
        }
      ],
      "name": "LogBid",
      "type": "event"
    },
    {
      "anonymous": false,
      "inputs": [
        {
          "indexed": false,
          "internalType": "address",
          "name": "Buyer",
          "type": "address"
        },
        {
          "indexed": false,
          "internalType": "uint256",
          "name": "Time",
          "type": "uint256"
        },
        {
          "indexed": false,
          "internalType": "uint256",
          "name": "Amount",
          "type": "uint256"
        }
      ],
      "name": "OfferMade",
      "type": "event"
    },
    {
      "anonymous": false,
      "inputs": [
        {
          "indexed": false,
          "internalType": "bytes32",
          "name": "id",
          "type": "bytes32"
        }
      ],
      "name": "OrderCancelled",
      "type": "event"
    },
    {
      "anonymous": false,
      "inputs": [
        {
          "indexed": false,
          "internalType": "bytes32",
          "name": "orderId",
          "type": "bytes32"
        },
        {
          "indexed": true,
          "internalType": "address",
          "name": "seller",
          "type": "address"
        },
        {
          "indexed": true,
          "internalType": "uint256",
          "name": "tokenId",
          "type": "uint256"
        },
        {
          "indexed": false,
          "internalType": "uint256",
          "name": "ethPrice",
          "type": "uint256"
        },
        {
          "indexed": false,
          "internalType": "uint256",
          "name": "auraPrice",
          "type": "uint256"
        }
      ],
      "name": "OrderCreated",
      "type": "event"
    },
    {
      "anonymous": false,
      "inputs": [
        {
          "indexed": false,
          "internalType": "bytes32",
          "name": "orderId",
          "type": "bytes32"
        },
        {
          "indexed": true,
          "internalType": "address",
          "name": "buyer",
          "type": "address"
        }
      ],
      "name": "OrderSuccessfull",
      "type": "event"
    },
    {
      "anonymous": false,
      "inputs": [
        {
          "indexed": false,
          "internalType": "bytes32",
          "name": "orderId",
          "type": "bytes32"
        },
        {
          "indexed": false,
          "internalType": "uint256",
          "name": "ethPrice",
          "type": "uint256"
        },
        {
          "indexed": false,
          "internalType": "uint256",
          "name": "auraPricw",
          "type": "uint256"
        }
      ],
      "name": "OrderUpdated",
      "type": "event"
    },
    {
      "anonymous": false,
      "inputs": [
        {
          "indexed": true,
          "internalType": "address",
          "name": "previousOwner",
          "type": "address"
        },
        {
          "indexed": true,
          "internalType": "address",
          "name": "newOwner",
          "type": "address"
        }
      ],
      "name": "OwnershipTransferred",
      "type": "event"
    },
    {
      "inputs": [
        {
          "internalType": "uint256",
          "name": "",
          "type": "uint256"
        }
      ],
      "name": "OfferArray",
      "outputs": [
        {
          "internalType": "uint256",
          "name": "amount",
          "type": "uint256"
        },
        {
          "internalType": "uint256",
          "name": "expiry",
          "type": "uint256"
        },
        {
          "internalType": "address",
          "name": "buyerAddress",
          "type": "address"
        },
        {
          "internalType": "address",
          "name": "contractaddress",
          "type": "address"
        },
        {
          "internalType": "uint256",
          "name": "tokenid",
          "type": "uint256"
        },
        {
          "internalType": "bytes32",
          "name": "offerid",
          "type": "bytes32"
        },
        {
          "internalType": "address",
          "name": "coinAddress",
          "type": "address"
        }
      ],
      "stateMutability": "view",
      "type": "function"
    },
    {
      "inputs": [
        {
          "internalType": "address",
          "name": "",
          "type": "address"
        }
      ],
      "name": "Royalties",
      "outputs": [
        {
          "internalType": "address",
          "name": "contractADDress",
          "type": "address"
        },
        {
          "internalType": "address",
          "name": "owner",
          "type": "address"
        },
        {
          "internalType": "uint256",
          "name": "amount",
          "type": "uint256"
        }
      ],
      "stateMutability": "view",
      "type": "function"
    },
    {
      "inputs": [],
      "name": "_INTERFACE_ID_ERC721",
      "outputs": [
        {
          "internalType": "bytes4",
          "name": "",
          "type": "bytes4"
        }
      ],
      "stateMutability": "view",
      "type": "function"
    },
    {
      "inputs": [
        {
          "internalType": "address",
          "name": "_tokenAddress",
          "type": "address"
        },
        {
          "internalType": "uint256",
          "name": "_tokenId",
          "type": "uint256"
        },
        {
          "internalType": "uint256",
          "name": "_minBid",
          "type": "uint256"
        },
        {
          "internalType": "uint256",
          "name": "_expiryTime",
          "type": "uint256"
        }
      ],
      "name": "_createAuctionByEth",
      "outputs": [],
      "stateMutability": "nonpayable",
      "type": "function"
    },
    {
      "inputs": [
        {
          "internalType": "address",
          "name": "_tokenAddress",
          "type": "address"
        },
        {
          "internalType": "uint256",
          "name": "_tokenId",
          "type": "uint256"
        },
        {
          "internalType": "uint256",
          "name": "_minBid",
          "type": "uint256"
        },
        {
          "internalType": "uint256",
          "name": "_expiryTime",
          "type": "uint256"
        },
        {
          "internalType": "address",
          "name": "_coinAddress",
          "type": "address"
        }
      ],
      "name": "_createAuctionByToken",
      "outputs": [],
      "stateMutability": "nonpayable",
      "type": "function"
    },
    {
      "inputs": [
        {
          "internalType": "address",
          "name": "_tokenAddress",
          "type": "address"
        },
        {
          "internalType": "uint256",
          "name": "_tokenId",
          "type": "uint256"
        }
      ],
      "name": "acceptBid",
      "outputs": [],
      "stateMutability": "nonpayable",
      "type": "function"
    },
    {
      "inputs": [
        {
          "internalType": "address",
          "name": "_tokenAddress",
          "type": "address"
        },
        {
          "internalType": "uint256",
          "name": "tokenId",
          "type": "uint256"
        },
        {
          "internalType": "uint256",
          "name": "_amount",
          "type": "uint256"
        },
        {
          "internalType": "address",
          "name": "_buyer",
          "type": "address"
        },
        {
          "internalType": "address",
          "name": "_coinAddress",
          "type": "address"
        }
      ],
      "name": "acceptOffer",
      "outputs": [],
      "stateMutability": "nonpayable",
      "type": "function"
    },
    {
      "inputs": [
        {
          "internalType": "address",
          "name": "",
          "type": "address"
        },
        {
          "internalType": "uint256",
          "name": "",
          "type": "uint256"
        }
      ],
      "name": "auctionById",
      "outputs": [
        {
          "internalType": "bytes32",
          "name": "auctionId",
          "type": "bytes32"
        },
        {
          "internalType": "address payable",
          "name": "seller",
          "type": "address"
        },
        {
          "internalType": "uint256",
          "name": "minBid",
          "type": "uint256"
        },
        {
          "internalType": "uint256",
          "name": "expiryTime",
          "type": "uint256"
        },
        {
          "internalType": "address",
          "name": "coinAddress",
          "type": "address"
        }
      ],
      "stateMutability": "view",
      "type": "function"
    },
    {
      "inputs": [
        {
          "internalType": "uint256",
          "name": "",
          "type": "uint256"
        }
      ],
      "name": "auctionnID",
      "outputs": [
        {
          "internalType": "uint256",
          "name": "",
          "type": "uint256"
        }
      ],
      "stateMutability": "view",
      "type": "function"
    },
    {
      "inputs": [
        {
          "internalType": "address",
          "name": "",
          "type": "address"
        },
        {
          "internalType": "uint256",
          "name": "",
          "type": "uint256"
        }
      ],
      "name": "bidByTokenId",
      "outputs": [
        {
          "internalType": "bytes32",
          "name": "bidId",
          "type": "bytes32"
        },
        {
          "internalType": "uint256",
          "name": "bidCounter",
          "type": "uint256"
        },
        {
          "internalType": "uint256",
          "name": "newBid",
          "type": "uint256"
        },
        {
          "internalType": "uint256",
          "name": "auctionEndTime",
          "type": "uint256"
        },
        {
          "internalType": "address",
          "name": "highestBidder",
          "type": "address"
        },
        {
          "internalType": "uint256",
          "name": "highestBid",
          "type": "uint256"
        }
      ],
      "stateMutability": "view",
      "type": "function"
    },
    {
      "inputs": [
        {
          "internalType": "address",
          "name": "_nftAddress",
          "type": "address"
        },
        {
          "internalType": "uint256",
          "name": "_tokenId",
          "type": "uint256"
        }
      ],
      "name": "cancelAuction",
      "outputs": [],
      "stateMutability": "nonpayable",
      "type": "function"
    },
    {
      "inputs": [
        {
          "internalType": "address",
          "name": "_tokenAddress",
          "type": "address"
        },
        {
          "internalType": "uint256",
          "name": "_tokenId",
          "type": "uint256"
        }
      ],
      "name": "cancelOrder",
      "outputs": [],
      "stateMutability": "nonpayable",
      "type": "function"
    },
    {
      "inputs": [
        {
          "internalType": "address",
          "name": "_tokenAddress",
          "type": "address"
        },
        {
          "internalType": "uint256",
          "name": "_tokenId",
          "type": "uint256"
        },
        {
          "internalType": "uint256",
          "name": "_ethPrice",
          "type": "uint256"
        },
        {
          "internalType": "uint256",
          "name": "_tokenPrice",
          "type": "uint256"
        },
        {
          "internalType": "address",
          "name": "_coinAddress",
          "type": "address"
        }
      ],
      "name": "createOrder",
      "outputs": [],
      "stateMutability": "nonpayable",
      "type": "function"
    },
    {
      "inputs": [
        {
          "internalType": "address",
          "name": "",
          "type": "address"
        }
      ],
      "name": "fundsByBidder",
      "outputs": [
        {
          "internalType": "uint256",
          "name": "",
          "type": "uint256"
        }
      ],
      "stateMutability": "view",
      "type": "function"
    },
    {
      "inputs": [
        {
          "internalType": "address",
          "name": "_contract",
          "type": "address"
        },
        {
          "internalType": "address",
          "name": "_owner",
          "type": "address"
        }
      ],
      "name": "getAuctionTokenIds",
      "outputs": [
        {
          "internalType": "uint256",
          "name": "auctionId",
          "type": "uint256"
        }
      ],
      "stateMutability": "view",
      "type": "function"
    },
    {
      "inputs": [
        {
          "internalType": "address",
          "name": "_tokenAddress",
          "type": "address"
        },
        {
          "internalType": "uint256",
          "name": "_tokenId",
          "type": "uint256"
        }
      ],
      "name": "getHighestBid",
      "outputs": [
        {
          "internalType": "uint256",
          "name": "",
          "type": "uint256"
        }
      ],
      "stateMutability": "view",
      "type": "function"
    },
    {
      "inputs": [
        {
          "internalType": "address",
          "name": "_owner",
          "type": "address"
        },
        {
          "internalType": "address",
          "name": "_contract",
          "type": "address"
        }
      ],
      "name": "getOrderTokenIds",
      "outputs": [
        {
          "internalType": "uint256",
          "name": "orderId",
          "type": "uint256"
        }
      ],
      "stateMutability": "view",
      "type": "function"
    },
    {
      "inputs": [
        {
          "internalType": "address",
          "name": "_contractaddress",
          "type": "address"
        },
        {
          "internalType": "uint256",
          "name": "_tokenid",
          "type": "uint256"
        }
      ],
      "name": "getoffers",
      "outputs": [
        {
          "internalType": "uint256[]",
          "name": "amount",
          "type": "uint256[]"
        },
        {
          "internalType": "uint256[]",
          "name": "time",
          "type": "uint256[]"
        },
        {
          "internalType": "uint256[]",
          "name": "tokenid",
          "type": "uint256[]"
        },
        {
          "internalType": "address[]",
          "name": "buyeraddress",
          "type": "address[]"
        },
        {
          "internalType": "address[]",
          "name": "contractaddress",
          "type": "address[]"
        }
      ],
      "stateMutability": "view",
      "type": "function"
    },
    {
      "inputs": [
        {
          "internalType": "address",
          "name": "_tokenAddress",
          "type": "address"
        },
        {
          "internalType": "uint256",
          "name": "_amount",
          "type": "uint256"
        },
        {
          "internalType": "uint256",
          "name": "_tokenId",
          "type": "uint256"
        },
        {
          "internalType": "uint256",
          "name": "_time",
          "type": "uint256"
        },
        {
          "internalType": "address",
          "name": "_coinAddress",
          "type": "address"
        }
      ],
      "name": "makeOffer",
      "outputs": [],
      "stateMutability": "nonpayable",
      "type": "function"
    },
    {
      "inputs": [],
      "name": "marketOwner",
      "outputs": [
        {
          "internalType": "address",
          "name": "",
          "type": "address"
        }
      ],
      "stateMutability": "view",
      "type": "function"
    },
    {
      "inputs": [],
      "name": "marketplaceFEE",
      "outputs": [
        {
          "internalType": "uint256",
          "name": "",
          "type": "uint256"
        }
      ],
      "stateMutability": "view",
      "type": "function"
    },
    {
      "inputs": [
        {
          "internalType": "bytes32",
          "name": "",
          "type": "bytes32"
        }
      ],
      "name": "offerByBuyer",
      "outputs": [
        {
          "internalType": "uint256",
          "name": "amount",
          "type": "uint256"
        },
        {
          "internalType": "uint256",
          "name": "expiry",
          "type": "uint256"
        },
        {
          "internalType": "address",
          "name": "buyerAddress",
          "type": "address"
        },
        {
          "internalType": "address",
          "name": "contractaddress",
          "type": "address"
        },
        {
          "internalType": "uint256",
          "name": "tokenid",
          "type": "uint256"
        },
        {
          "internalType": "bytes32",
          "name": "offerid",
          "type": "bytes32"
        },
        {
          "internalType": "address",
          "name": "coinAddress",
          "type": "address"
        }
      ],
      "stateMutability": "view",
      "type": "function"
    },
    {
      "inputs": [
        {
          "internalType": "address",
          "name": "",
          "type": "address"
        },
        {
          "internalType": "address",
          "name": "",
          "type": "address"
        },
        {
          "internalType": "uint256",
          "name": "",
          "type": "uint256"
        },
        {
          "internalType": "bytes",
          "name": "",
          "type": "bytes"
        }
      ],
      "name": "onERC721Received",
      "outputs": [
        {
          "internalType": "bytes4",
          "name": "",
          "type": "bytes4"
        }
      ],
      "stateMutability": "nonpayable",
      "type": "function"
    },
    {
      "inputs": [
        {
          "internalType": "address",
          "name": "",
          "type": "address"
        },
        {
          "internalType": "uint256",
          "name": "",
          "type": "uint256"
        }
      ],
      "name": "orderByTokenId",
      "outputs": [
        {
          "internalType": "bytes32",
          "name": "orderId",
          "type": "bytes32"
        },
        {
          "internalType": "address payable",
          "name": "seller",
          "type": "address"
        },
        {
          "internalType": "uint256",
          "name": "ethPrice",
          "type": "uint256"
        },
        {
          "internalType": "uint256",
          "name": "tokenPrice",
          "type": "uint256"
        },
        {
          "internalType": "address",
          "name": "coinAddress",
          "type": "address"
        }
      ],
      "stateMutability": "view",
      "type": "function"
    },
    {
      "inputs": [
        {
          "internalType": "uint256",
          "name": "",
          "type": "uint256"
        }
      ],
      "name": "orderrID",
      "outputs": [
        {
          "internalType": "uint256",
          "name": "",
          "type": "uint256"
        }
      ],
      "stateMutability": "view",
      "type": "function"
    },
    {
      "inputs": [],
      "name": "owner",
      "outputs": [
        {
          "internalType": "address",
          "name": "",
          "type": "address"
        }
      ],
      "stateMutability": "view",
      "type": "function"
    },
    {
      "inputs": [
        {
          "internalType": "address",
          "name": "_tokenAddress",
          "type": "address"
        },
        {
          "internalType": "uint256",
          "name": "_tokenId",
          "type": "uint256"
        }
      ],
      "name": "placeBidEth",
      "outputs": [],
      "stateMutability": "payable",
      "type": "function"
    },
    {
      "inputs": [
        {
          "internalType": "address",
          "name": "_tokenAddress",
          "type": "address"
        },
        {
          "internalType": "uint256",
          "name": "_tokenId",
          "type": "uint256"
        },
        {
          "internalType": "uint256",
          "name": "_bid",
          "type": "uint256"
        },
        {
          "internalType": "address",
          "name": "_coinAddress",
          "type": "address"
        }
      ],
      "name": "placeBidToken",
      "outputs": [],
      "stateMutability": "nonpayable",
      "type": "function"
    },
    {
      "inputs": [],
      "name": "renounceOwnership",
      "outputs": [],
      "stateMutability": "nonpayable",
      "type": "function"
    },
    {
      "inputs": [
        {
          "internalType": "address",
          "name": "_tokenAddress",
          "type": "address"
        },
        {
          "internalType": "uint256",
          "name": "_tokenId",
          "type": "uint256"
        },
        {
          "internalType": "address",
          "name": "_coinAddress",
          "type": "address"
        }
      ],
      "name": "safeExecuteOrderByAura",
      "outputs": [],
      "stateMutability": "nonpayable",
      "type": "function"
    },
    {
      "inputs": [
        {
          "internalType": "address",
          "name": "_tokenAddress",
          "type": "address"
        },
        {
          "internalType": "uint256",
          "name": "_tokenId",
          "type": "uint256"
        }
      ],
      "name": "safeExecuteOrderByEth",
      "outputs": [],
      "stateMutability": "payable",
      "type": "function"
    },
    {
      "inputs": [
        {
          "internalType": "address",
          "name": "_tokenAddress",
          "type": "address"
        },
        {
          "internalType": "uint256",
          "name": "_royaltyAmount",
          "type": "uint256"
        }
      ],
      "name": "setRoyaltie",
      "outputs": [],
      "stateMutability": "nonpayable",
      "type": "function"
    },
    {
      "inputs": [
        {
          "internalType": "address",
          "name": "_marketOwner",
          "type": "address"
        }
      ],
      "name": "setmarketOwner",
      "outputs": [],
      "stateMutability": "nonpayable",
      "type": "function"
    },
    {
      "inputs": [
        {
          "internalType": "uint256",
          "name": "_newPrice",
          "type": "uint256"
        }
      ],
      "name": "setmarketplaceFEE",
      "outputs": [],
      "stateMutability": "nonpayable",
      "type": "function"
    },
    {
      "inputs": [
        {
          "internalType": "address",
          "name": "_tokenAddress",
          "type": "address"
        },
        {
          "internalType": "address",
          "name": "_owner",
          "type": "address"
        }
      ],
      "name": "tokensOfOwner",
      "outputs": [
        {
          "internalType": "uint256[]",
          "name": "OrderId",
          "type": "uint256[]"
        },
        {
          "internalType": "uint256[]",
          "name": "AuctionId",
          "type": "uint256[]"
        },
        {
          "internalType": "uint256[]",
          "name": "TokensOfOwner",
          "type": "uint256[]"
        }
      ],
      "stateMutability": "view",
      "type": "function"
    },
    {
      "inputs": [
        {
          "internalType": "address",
          "name": "newOwner",
          "type": "address"
        }
      ],
      "name": "transferOwnership",
      "outputs": [],
      "stateMutability": "nonpayable",
      "type": "function"
    },
    {
      "inputs": [
        {
          "internalType": "address",
          "name": "_tokenAddress",
          "type": "address"
        },
        {
          "internalType": "uint256",
          "name": "_tokenId",
          "type": "uint256"
        },
        {
          "internalType": "uint256",
          "name": "_ethPrice",
          "type": "uint256"
        },
        {
          "internalType": "uint256",
          "name": "_auraPrice",
          "type": "uint256"
        },
        {
          "internalType": "address",
          "name": "_coinAddress",
          "type": "address"
        }
      ],
      "name": "updateOrder",
      "outputs": [],
      "stateMutability": "nonpayable",
      "type": "function"
    },
    {
      "inputs": [],
      "name": "withdraw",
      "outputs": [],
      "stateMutability": "nonpayable",
      "type": "function"
    }
  ],
  "bytecode": "0x60806040523480156200001157600080fd5b506200001d3362000023565b62000073565b600080546001600160a01b038381166001600160a01b0319831681178455604051919092169283917f8be0079c531659141344cd1fd0a4f28419497f9722a3daafe3b4186f6b6457e09190a35050565b6156a380620000836000396000f3fe6080604052600436106102255760003560e01c80638da5cb5b11610123578063b98473b4116100ab578063d566ce401161006f578063d566ce4014610879578063dbe11bb314610899578063dece6854146108b9578063f2fde38b146108d4578063fa3fd6f0146108f457600080fd5b8063b98473b41461077c578063bb43d6771461079c578063ce10cf80146107fd578063cfe8f4871461082a578063d34036f21461085957600080fd5b80639a8d2ebf116100f25780639a8d2ebf146106e95780639e20b63014610709578063a18b8d9114610729578063ad56d02114610749578063b4ce4b871461076957600080fd5b80638da5cb5b146105fa578063955a5a761461061857806398858780146106385780639a7c5afc1461065857600080fd5b8063715018a6116101b157806380e792181161017557806380e79218146104f4578063815c7c6e1461050a5780638226508d1461051d578063859b97fe1461053d5780638cd1de7c1461055d57600080fd5b8063715018a61461044e578063725d242f1461046357806377118f81146104835780637f46b595146104b45780637fb1235a146104d457600080fd5b80633746ff0d116101f85780633746ff0d1461031b57806339e7f8601461033b5780633ccfd60b146103e157806347d90b5c146103f65780636a2061371461042e57600080fd5b8063150b7a021461022a5780631aa39ae01461027357806320dd9bb3146102cb5780632467065d146102ed575b600080fd5b34801561023657600080fd5b50610255610245366004614f51565b630a85bd0160e11b949350505050565b6040516001600160e01b031990911681526020015b60405180910390f35b34801561027f57600080fd5b506102bc61028e366004614eda565b6005602052600090815260409020805460018201546002909201546001600160a01b03918216929091169083565b60405161026a939291906152b6565b3480156102d757600080fd5b506102eb6102e636600461513d565b610914565b005b3480156102f957600080fd5b5061030d6103083660046151de565b610c91565b60405190815260200161026a565b34801561032757600080fd5b506102eb6103363660046151de565b610cb2565b34801561034757600080fd5b506103a06103563660046151de565b600a602052600090815260409020805460018201546002830154600384015460048501546005860154600690960154949593946001600160a01b0393841694928416939192911687565b6040805197885260208801969096526001600160a01b03948516958701959095529183166060860152608085015260a08401521660c082015260e00161026a565b3480156103ed57600080fd5b506102eb610ce1565b34801561040257600080fd5b50600254610416906001600160a01b031681565b6040516001600160a01b03909116815260200161026a565b34801561043a57600080fd5b506102eb61044936600461502a565b610d81565b34801561045a57600080fd5b506102eb610e2a565b34801561046f57600080fd5b506102eb61047e36600461502a565b610e60565b34801561048f57600080fd5b506104a361049e36600461502a565b610fbc565b60405161026a95949392919061531d565b3480156104c057600080fd5b506102eb6104cf366004614eda565b611489565b3480156104e057600080fd5b506102eb6104ef3660046150df565b6114d5565b34801561050057600080fd5b5061030d60015481565b6102eb61051836600461502a565b611b00565b34801561052957600080fd5b5061030d61053836600461502a565b611d85565b34801561054957600080fd5b506102eb61055836600461502a565b611db8565b34801561056957600080fd5b506105c461057836600461502a565b600960209081526000928352604080842090915290825290208054600182015460028301546003840154600485015460059095015493949293919290916001600160a01b039091169086565b6040805196875260208701959095529385019290925260608401526001600160a01b0316608083015260a082015260c00161026a565b34801561060657600080fd5b506000546001600160a01b0316610416565b34801561062457600080fd5b506102eb61063336600461502a565b6120c5565b34801561064457600080fd5b506102eb610653366004615177565b6126de565b34801561066457600080fd5b506106b961067336600461502a565b60086020908152600092835260408084209091529082529020805460018201546002830154600384015460049094015492936001600160a01b0392831693919290911685565b604080519586526001600160a01b039485166020870152850192909252606084015216608082015260a00161026a565b3480156106f557600080fd5b5061030d6107043660046151de565b612a53565b34801561071557600080fd5b506102eb610724366004615055565b612a63565b34801561073557600080fd5b506102eb610744366004615177565b612fb9565b34801561075557600080fd5b506102eb610764366004615096565b61346e565b6102eb61077736600461502a565b61390a565b34801561078857600080fd5b506102eb610797366004615177565b613bbc565b3480156107a857600080fd5b506106b96107b736600461502a565b60076020908152600092835260408084209091529082529020805460018201546002830154600384015460049094015492936001600160a01b0392831693919290911685565b34801561080957600080fd5b5061030d610818366004614eda565b600b6020526000908152604090205481565b34801561083657600080fd5b5061084a610845366004614f19565b613ea6565b60405161026a939291906152da565b34801561086557600080fd5b506103a06108743660046151de565b61445b565b34801561088557600080fd5b5061030d610894366004614f19565b6144b8565b3480156108a557600080fd5b506102eb6108b4366004615177565b614593565b3480156108c557600080fd5b506102556380ac58cd60e01b81565b3480156108e057600080fd5b506102eb6108ef366004614eda565b6145a7565b34801561090057600080fd5b5061030d61090f366004614f19565b614642565b6040516331a9108f60e11b81526004810184905284906000906001600160a01b03831690636352211e9060240160206040518083038186803b15801561095957600080fd5b505afa15801561096d573d6000803e3d6000fd5b505050506040513d601f19601f820116820180604052508101906109919190614efd565b90506001600160a01b03811633146109c45760405162461bcd60e51b81526004016109bb906153d4565b60405180910390fd5b600084116109e45760405162461bcd60e51b81526004016109bb90615574565b604051632142170760e11b81526001600160a01b038316906342842e0e90610a1490849030908a906004016152b6565b600060405180830381600087803b158015610a2e57600080fd5b505af1158015610a42573d6000803e3d6000fd5b50506040805160208101899052908101879052606081018690526000925060800190506040516020818303038152906040528051906020012090506040518060a00160405280828152602001336001600160a01b0316815260200186815260200185815260200160006001600160a01b031681525060086000896001600160a01b03166001600160a01b0316815260200190815260200160002060008881526020019081526020016000206000820151816000015560208201518160010160006101000a8154816001600160a01b0302191690836001600160a01b03160217905550604082015181600201556060820151816003015560808201518160040160006101000a8154816001600160a01b0302191690836001600160a01b031602179055509050506040518060c0016040528082815260200160008152602001600081526020018542610b9391906155a3565b81526000602080830182905260409283018290526001600160a01b038b81168352600982528383208b84528252838320855181558583015160018083019190915586860151600283015560608088015160038085019190915560808901516004850180546001600160a01b031916919096161790945560a0909701516005909201919091558154908101825592527fc2575a0e9e593c00f959f8c92f12db2869c3395a3b0502d05e2516446f71f85b9091018990558151848152908101889052908101869052879133917fa788de59458f53148e09ca862c60124c9a559845863655fb6750ad1430d651db910160405180910390a350505050505050565b60038181548110610ca157600080fd5b600091825260209091200154905081565b6000546001600160a01b03163314610cdc5760405162461bcd60e51b81526004016109bb906154fa565b600155565b6000546001600160a01b03163314610d0b5760405162461bcd60e51b81526004016109bb906154fa565b476000610d206000546001600160a01b031690565b6001600160a01b03168260405160006040518083038185875af1925050503d8060008114610d6a576040519150601f19603f3d011682016040523d82523d6000602084013e610d6f565b606091505b5050905080610d7d57600080fd5b5050565b6001600160a01b038083166000908152600760209081526040808320858452825291829020825160a08101845281548152600182015485169281018390526002820154938101939093526003810154606084015260040154909216608082015290331480610df957506000546001600160a01b031633145b610e155760405162461bcd60e51b81526004016109bb90615490565b610e258382600001518433614713565b505050565b6000546001600160a01b03163314610e545760405162461bcd60e51b81526004016109bb906154fa565b610e5e6000614801565b565b678ac7230489e80000811115610eb85760405162461bcd60e51b815260206004820152601f60248201527f706c6561736520656e7465722076616c75652062657465656e20302d3130200060448201526064016109bb565b6000829050336001600160a01b0316816001600160a01b0316638da5cb5b6040518163ffffffff1660e01b815260040160206040518083038186803b158015610f0057600080fd5b505afa158015610f14573d6000803e3d6000fd5b505050506040513d601f19601f82011682018060405250810190610f389190614efd565b6001600160a01b031614610f7b5760405162461bcd60e51b815260206004820152600a60248201526937b7363c9037bbb732b960b11b60448201526064016109bb565b506001600160a01b03909116600081815260056020526040902080546001600160a01b03199081169092178155600181018054909216331790915560020155565b6060806060806060600080610fd1888a614851565b67ffffffffffffffff811115610ff757634e487b7160e01b600052604160045260246000fd5b604051908082528060200260200182016040528015611020578160200160208202803683370190505b509050600061102f898b614851565b67ffffffffffffffff81111561105557634e487b7160e01b600052604160045260246000fd5b60405190808252806020026020018201604052801561107e578160200160208202803683370190505b509050600061108d8a8c614851565b67ffffffffffffffff8111156110b357634e487b7160e01b600052604160045260246000fd5b6040519080825280602002602001820160405280156110dc578160200160208202803683370190505b50905060006110eb8b8d614851565b67ffffffffffffffff81111561111157634e487b7160e01b600052604160045260246000fd5b60405190808252806020026020018201604052801561113a578160200160208202803683370190505b50905060006111498c8e614851565b67ffffffffffffffff81111561116f57634e487b7160e01b600052604160045260246000fd5b604051908082528060200260200182016040528015611198578160200160208202803683370190505b50905060005b600654811015611474578c600682815481106111ca57634e487b7160e01b600052603260045260246000fd5b90600052602060002090600702016004015414801561122e57508d6001600160a01b03166006828154811061120f57634e487b7160e01b600052603260045260246000fd5b60009182526020909120600360079092020101546001600160a01b0316145b15611462576006818154811061125457634e487b7160e01b600052603260045260246000fd5b90600052602060002090600702016000015486888151811061128657634e487b7160e01b600052603260045260246000fd5b602002602001018181525050600681815481106112b357634e487b7160e01b600052603260045260246000fd5b9060005260206000209060070201600101548588815181106112e557634e487b7160e01b600052603260045260246000fd5b6020026020010181815250506006818154811061131257634e487b7160e01b600052603260045260246000fd5b90600052602060002090600702016004015484888151811061134457634e487b7160e01b600052603260045260246000fd5b6020026020010181815250506006818154811061137157634e487b7160e01b600052603260045260246000fd5b906000526020600020906007020160020160009054906101000a90046001600160a01b03168388815181106113b657634e487b7160e01b600052603260045260246000fd5b60200260200101906001600160a01b031690816001600160a01b031681525050600681815481106113f757634e487b7160e01b600052603260045260246000fd5b906000526020600020906007020160030160009054906101000a90046001600160a01b031682888151811061143c57634e487b7160e01b600052603260045260246000fd5b6001600160a01b03909216602092830291909101909101528661145e81615611565b9750505b8061146c81615611565b91505061119e565b50939c929b5090995097509095509350505050565b6000546001600160a01b031633146114b35760405162461bcd60e51b81526004016109bb906154fa565b600280546001600160a01b0319166001600160a01b0392909216919091179055565b6000858486856040516020016114ee9493929190615280565b60408051601f1981840301815282825280516020918201206000818152600a835283902060e0850184528054855260018101549285019290925260028201546001600160a01b039081169385019390935260038201548316606085015260048201546080850152600582015460a0850152600690910154821660c0840181905290935084918216146115925760405162461bcd60e51b81526004016109bb90615468565b6000838152600a602052604090206005015483146115e25760405162461bcd60e51b815260206004820152600d60248201526c34b73b30b634b21037b33332b960991b60448201526064016109bb565b6000838152600a602052604090206001015442106116325760405162461bcd60e51b815260206004820152600d60248201526c6f66666572206578706972657360981b60448201526064016109bb565b6040516331a9108f60e11b81526004810188905288906000906001600160a01b03831690636352211e9060240160206040518083038186803b15801561167757600080fd5b505afa15801561168b573d6000803e3d6000fd5b505050506040513d601f19601f820116820180604052508101906116af9190614efd565b90506001600160a01b03811633146116fd5760405162461bcd60e51b81526020600482015260116024820152703ab9b2b91034b9903737ba1037bbb732b960791b60448201526064016109bb565b6000858152600a6020526040908190206002015490516323b872dd60e01b81526001600160a01b03918216918416906323b872dd9061174490339085908f906004016152b6565b600060405180830381600087803b15801561175e57600080fd5b505af1158015611772573d6000803e3d6000fd5b505050506001600160a01b038b8116600090815260056020526040812060028101546001909101549092169068056bc75e2d631000006117b2848e6155db565b6117bc91906155bb565b9050600068056bc75e2d631000006001548e6117d891906155db565b6117e291906155bb565b905060006117f082846155a3565b6117fa908f6155fa565b905084611910576040516323b872dd60e01b81526001600160a01b038a16906323b872dd90611831908990339086906004016152b6565b602060405180830381600087803b15801561184b57600080fd5b505af115801561185f573d6000803e3d6000fd5b505050506040513d601f19601f8201168201806040525081019061188391906151be565b506002546040516323b872dd60e01b81526001600160a01b03808c16926323b872dd926118b8928b92169087906004016152b6565b602060405180830381600087803b1580156118d257600080fd5b505af11580156118e6573d6000803e3d6000fd5b505050506040513d601f19601f8201168201806040525081019061190a91906151be565b50611a9e565b6040516323b872dd60e01b81526001600160a01b038a16906323b872dd90611940908990339086906004016152b6565b602060405180830381600087803b15801561195a57600080fd5b505af115801561196e573d6000803e3d6000fd5b505050506040513d601f19601f8201168201806040525081019061199291906151be565b506040516323b872dd60e01b81526001600160a01b038a16906323b872dd906119c3908990889088906004016152b6565b602060405180830381600087803b1580156119dd57600080fd5b505af11580156119f1573d6000803e3d6000fd5b505050506040513d601f19601f82011682018060405250810190611a1591906151be565b506002546040516323b872dd60e01b81526001600160a01b03808c16926323b872dd92611a4a928b92169087906004016152b6565b602060405180830381600087803b158015611a6457600080fd5b505af1158015611a78573d6000803e3d6000fd5b505050506040513d601f19601f82011682018060405250810190611a9c91906151be565b505b50505060009788525050600a602052505060408420848155600181018590556002810180546001600160a01b03199081169091556003820180548216905560048201869055600582019590955560060180549094169093555050505050505050565b6000611b0c8383614913565b90506000611b1a848461499b565b90508160400151341015611b405760405162461bcd60e51b81526004016109bb90615427565b8060600151421115611b875760405162461bcd60e51b815260206004820152601060248201526f185d58dd1a5bdb8818d85b98d95b195960821b60448201526064016109bb565b60808101516001600160a01b03166000908152600b60205260409020543411611bc25760405162461bcd60e51b81526004016109bb9061552f565b602081015115611c7057600081608001516001600160a01b03168260a0015160405160006040518083038185875af1925050503d8060008114611c21576040519150601f19603f3d011682016040523d82523d6000602084013e611c26565b606091505b5050905080611c6e5760405162461bcd60e51b81526020600482015260146024820152732330b4b632b2103a379039b2b7321022ba3432b960611b60448201526064016109bb565b505b336000908152600b6020908152604091829020349055815160c08101909252835182528281015190820190611ca69060016155a3565b8152346020808301829052606085810151604080860191909152338286018190526080958601949094526001600160a01b038a81166000908152600985528281208b8252855282902087518155878501516001820155878301516002820155878401516003820155878701516004820180546001600160a01b03191691841691909117905560a09788015160059091015595870151948701518151948552928401949094529316918101919091527fb35ca26b2ab5978e9de2fdcfe993212f5135cc71e090a641b05ec895561222da910160405180910390a150505050565b600080611d92848461499b565b608001516001600160a01b03166000908152600b60205260409020549150505b92915050565b6001600160a01b0380831660009081526008602090815260408083208584528252808320815160a08101835281548152600182015486169381019390935260028101549183019190915260038101546060830152600401549092166080830181905290611e25858561499b565b602084015190915085906001600160a01b0316331480611e4f57506000546001600160a01b031633145b611e6b5760405162461bcd60e51b81526004016109bb90615490565b6001600160a01b038616600090815260086020908152604080832088845290915281208181556001810180546001600160a01b03199081169091556002820183905560038201929092556004018054909116905560a0820151156120255760808401516001600160a01b0316611f225781608001516001600160a01b03166108fc8360a001519081150290604051600060405180830381858888f19350505050158015611f1c573d6000803e3d6000fd5b50611fbe565b608082015160a083015160405163a9059cbb60e01b81526001600160a01b0386169263a9059cbb92611f6a926004016001600160a01b03929092168252602082015260400190565b602060405180830381600087803b158015611f8457600080fd5b505af1158015611f98573d6000803e3d6000fd5b505050506040513d601f19601f82011682018060405250810190611fbc91906151be565b505b604051632142170760e11b81526001600160a01b038216906342842e0e90611fee90309033908a906004016152b6565b600060405180830381600087803b15801561200857600080fd5b505af115801561201c573d6000803e3d6000fd5b50505050612088565b604051632142170760e11b81526001600160a01b038216906342842e0e9061205590309033908a906004016152b6565b600060405180830381600087803b15801561206f57600080fd5b505af1158015612083573d6000803e3d6000fd5b505050505b83516040519081527fd88fab4b08bf76f15cf2d6e03e382acf1edd6790ab82967e406abac37db202889060200160405180910390a1505050505050565b8160006120d28284614913565b60808101516020820151919250906001600160a01b0316331461212b5760405162461bcd60e51b81526020600482015260116024820152703ab9b2b91034b9903737ba1037bbb732b960791b60448201526064016109bb565b6000612137868661499b565b9050806060015142116121835760405162461bcd60e51b8152602060048201526014602482015273105d58dd1a5bdb881a5cc81b9bdd08195b99195960621b60448201526064016109bb565b6080810151604051632142170760e11b81526001600160a01b038616916342842e0e916121b69130918a906004016152b6565b600060405180830381600087803b1580156121d057600080fd5b505af11580156121e4573d6000803e3d6000fd5b5050506001600160a01b0380881660009081526005602052604090206002810154600190910154909250168161233157600068056bc75e2d631000006001548560a0015161223291906155db565b61223c91906155bb565b90506000818560a0015161225091906155fa565b60808801519091506001600160a01b03166122a85786602001516001600160a01b03166108fc829081150290604051600060405180830381858888f193505050501580156122a2573d6000803e3d6000fd5b5061232a565b60405163a9059cbb60e01b8152336004820152602481018290526001600160a01b0387169063a9059cbb90604401602060405180830381600087803b1580156122f057600080fd5b505af1158015612304573d6000803e3d6000fd5b505050506040513d601f19601f8201168201806040525081019061232891906151be565b505b50506125bd565b600068056bc75e2d63100000838560a0015161234d91906155db565b61235791906155bb565b9050600068056bc75e2d631000006001548660a0015161237791906155db565b61238191906155bb565b9050600061238f82846155a3565b8660a0015161239e91906155fa565b60808901519091506001600160a01b031661242d5787602001516001600160a01b03166108fc829081150290604051600060405180830381858888f193505050501580156123f0573d6000803e3d6000fd5b506040516001600160a01b0385169084156108fc029085906000818181858888f19350505050158015612427573d6000803e3d6000fd5b506125b9565b60405163a9059cbb60e01b8152336004820152602481018290526001600160a01b0388169063a9059cbb90604401602060405180830381600087803b15801561247557600080fd5b505af1158015612489573d6000803e3d6000fd5b505050506040513d601f19601f820116820180604052508101906124ad91906151be565b5060405163a9059cbb60e01b81526001600160a01b0385811660048301526024820185905288169063a9059cbb90604401602060405180830381600087803b1580156124f857600080fd5b505af115801561250c573d6000803e3d6000fd5b505050506040513d601f19601f8201168201806040525081019061253091906151be565b5060025460405163a9059cbb60e01b81526001600160a01b039182166004820152602481018490529088169063a9059cbb90604401602060405180830381600087803b15801561257f57600080fd5b505af1158015612593573d6000803e3d6000fd5b505050506040513d601f19601f820116820180604052508101906125b791906151be565b505b5050505b6001600160a01b03881660009081526008602090815260408083208a845290915281208181556001810180546001600160a01b031990811690915560028201839055600382019290925560040180549091169055865b600354612622906001906155fa565b81101561269e5760036126368260016155a3565b8154811061265457634e487b7160e01b600052603260045260246000fd5b90600052602060002001546003828154811061268057634e487b7160e01b600052603260045260246000fd5b6000918252602090912001558061269681615611565b915050612613565b5060038054806126be57634e487b7160e01b600052603160045260246000fd5b600190038181906000526020600020016000905590555050505050505050565b6040516331a9108f60e11b81526004810185905285906000906001600160a01b03831690636352211e9060240160206040518083038186803b15801561272357600080fd5b505afa158015612737573d6000803e3d6000fd5b505050506040513d601f19601f8201168201806040525081019061275b9190614efd565b90506001600160a01b03811633146127855760405162461bcd60e51b81526004016109bb906153d4565b600085116127a55760405162461bcd60e51b81526004016109bb90615574565b604051632142170760e11b81526001600160a01b038316906342842e0e906127d590849030908b906004016152b6565b600060405180830381600087803b1580156127ef57600080fd5b505af1158015612803573d6000803e3d6000fd5b505060408051602081018a9052908101889052606081018790526000925060800190506040516020818303038152906040528051906020012090506040518060a00160405280828152602001336001600160a01b03168152602001878152602001868152602001856001600160a01b0316815250600860008a6001600160a01b03166001600160a01b0316815260200190815260200160002060008981526020019081526020016000206000820151816000015560208201518160010160006101000a8154816001600160a01b0302191690836001600160a01b03160217905550604082015181600201556060820151816003015560808201518160040160006101000a8154816001600160a01b0302191690836001600160a01b031602179055509050506040518060c001604052808281526020016000815260200160008152602001864261295391906155a3565b81526000602080830182905260409283018290526001600160a01b038c81168352600982528383208c84528252838320855181558583015160018083019190915586860151600283015560608088015160038085019190915560808901516004850180546001600160a01b031916919096161790945560a0909701516005909201919091558154908101825592527fc2575a0e9e593c00f959f8c92f12db2869c3395a3b0502d05e2516446f71f85b9091018a90558151848152908101899052908101879052889133917fa788de59458f53148e09ca862c60124c9a559845863655fb6750ad1430d651db91015b60405180910390a35050505050505050565b60048181548110610ca157600080fd5b806000612a708585614a6a565b60808101519091506001600160a01b0380821690851614612aa35760405162461bcd60e51b81526004016109bb90615468565b6040516370a0823160e01b81523360048201526001600160a01b038416906370a082319060240160206040518083038186803b158015612ae257600080fd5b505afa158015612af6573d6000803e3d6000fd5b505050506040513d601f19601f82011682018060405250810190612b1a91906151f6565b82606001511115612b6d5760405162461bcd60e51b815260206004820152601a60248201527f4d61726b6574706c6163653a20696e76616c696420707269636500000000000060448201526064016109bb565b60208201516001600160a01b0316331415612b9a5760405162461bcd60e51b81526004016109bb90615490565b612baa8683600001513388614af2565b6001600160a01b03808716600090815260056020526040812060028101546001909101546060860151919316919068056bc75e2d6310000090612bee9085906155db565b612bf891906155bb565b9050600068056bc75e2d631000006001548760600151612c1891906155db565b612c2291906155bb565b90506000612c3082846155a3565b8760600151612c3f91906155fa565b905084612d585760208701516040516323b872dd60e01b81526001600160a01b038a16916323b872dd91612c7991339186906004016152b6565b602060405180830381600087803b158015612c9357600080fd5b505af1158015612ca7573d6000803e3d6000fd5b505050506040513d601f19601f82011682018060405250810190612ccb91906151be565b506002546040516323b872dd60e01b81526001600160a01b03808b16926323b872dd92612d00923392169087906004016152b6565b602060405180830381600087803b158015612d1a57600080fd5b505af1158015612d2e573d6000803e3d6000fd5b505050506040513d601f19601f82011682018060405250810190612d5291906151be565b50612ee9565b60208701516040516323b872dd60e01b81526001600160a01b038a16916323b872dd91612d8b91339186906004016152b6565b602060405180830381600087803b158015612da557600080fd5b505af1158015612db9573d6000803e3d6000fd5b505050506040513d601f19601f82011682018060405250810190612ddd91906151be565b506040516323b872dd60e01b81526001600160a01b038916906323b872dd90612e0e903390889088906004016152b6565b602060405180830381600087803b158015612e2857600080fd5b505af1158015612e3c573d6000803e3d6000fd5b505050506040513d601f19601f82011682018060405250810190612e6091906151be565b506002546040516323b872dd60e01b81526001600160a01b03808b16926323b872dd92612e95923392169087906004016152b6565b602060405180830381600087803b158015612eaf57600080fd5b505af1158015612ec3573d6000803e3d6000fd5b505050506040513d601f19601f82011682018060405250810190612ee791906151be565b505b895b600454612efa906001906155fa565b811015612f76576004612f0e8260016155a3565b81548110612f2c57634e487b7160e01b600052603260045260246000fd5b906000526020600020015460048281548110612f5857634e487b7160e01b600052603260045260246000fd5b60009182526020909120015580612f6e81615611565b915050612eeb565b506004805480612f9657634e487b7160e01b600052603160045260246000fd5b600190038181906000526020600020016000905590555050505050505050505050565b6040516331a9108f60e11b815260048101849052819086906000906001600160a01b03831690636352211e9060240160206040518083038186803b15801561300057600080fd5b505afa158015613014573d6000803e3d6000fd5b505050506040513d601f19601f820116820180604052508101906130389190614efd565b90506001600160a01b0381163314156130935760405162461bcd60e51b815260206004820152601960248201527f206f776e65722063616e206e6f74206d616b65206f666665720000000000000060448201526064016109bb565b604051636eb1769f60e11b81523360048201523060248201526000906001600160a01b0385169063dd62ed3e9060440160206040518083038186803b1580156130db57600080fd5b505afa1580156130ef573d6000803e3d6000fd5b505050506040513d601f19601f8201168201806040525081019061311391906151f6565b9050878110156131555760405162461bcd60e51b815260206004820152600d60248201526c6c6f7720616c6c6f77616e636560981b60448201526064016109bb565b60008989893360405160200161316e9493929190615280565b60408051601f19818403018152828252805160209182012060e084019092528b8352909250810161319f89426155a3565b8152336020808301919091526001600160a01b038d811660408085019190915260608085018e905260808086018890528c841660a0968701526000888152600a865283812088518155888701516001820155888501516002820180549188166001600160a01b03199283161790558985015160038301805491891691831691909117905589840151600483015589890151600583015560c0998a01516006909201805492909716911617909455825160e081018452848152948501849052918401839052830182905282018190529181018290529182015289815261328488426155a3565b602082019081523360408084018281526001600160a01b038f811660608701908152608087018f81528d831660c0890190815260068054600181018255600091909152895160079091027ff652222313e28459528d920b65115c16c04f3efc82aaedc97be59f3f377c0d3f81019190915597517ff652222313e28459528d920b65115c16c04f3efc82aaedc97be59f3f377c0d4089015593517ff652222313e28459528d920b65115c16c04f3efc82aaedc97be59f3f377c0d41880180549185166001600160a01b031992831617905591517ff652222313e28459528d920b65115c16c04f3efc82aaedc97be59f3f377c0d4288018054918516918416919091179055517ff652222313e28459528d920b65115c16c04f3efc82aaedc97be59f3f377c0d4387015560a08701517ff652222313e28459528d920b65115c16c04f3efc82aaedc97be59f3f377c0d4487015591517ff652222313e28459528d920b65115c16c04f3efc82aaedc97be59f3f377c0d45909501805495909116949091169390931790925590517f7beddbbf70d8b2a25af77e15d4a173af5f34673a1e7302c7af208aac599dc6db91613459918b908e906001600160a01b039390931683526020830191909152604082015260600190565b60405180910390a15050505050505050505050565b80600061347b8686614913565b60808101519091506001600160a01b03808216908516146134ae5760405162461bcd60e51b81526004016109bb90615468565b60006134ba888861499b565b60408085015190516370a0823160e01b8152336004820152919250906001600160a01b038616906370a082319060240160206040518083038186803b15801561350257600080fd5b505afa158015613516573d6000803e3d6000fd5b505050506040513d601f19601f8201168201806040525081019061353a91906151f6565b10156135705760405162461bcd60e51b815260206004820152600560248201526432b93937b960d91b60448201526064016109bb565b85836040015111156135945760405162461bcd60e51b81526004016109bb90615427565b858160a00151106135b75760405162461bcd60e51b81526004016109bb9061552f565b80606001514211156135fe5760405162461bcd60e51b815260206004820152601060248201526f185d58dd1a5bdb8818d85b98d95b195960821b60448201526064016109bb565b60808101516001600160a01b039081166000908152600b6020526040908190205490516370a0823160e01b815233600482015290918616906370a082319060240160206040518083038186803b15801561365757600080fd5b505afa15801561366b573d6000803e3d6000fd5b505050506040513d601f19601f8201168201806040525081019061368f91906151f6565b116136c45760405162461bcd60e51b815260206004820152600560248201526432b93937b960d91b60448201526064016109bb565b60208101511561376a57608081015160a082015160405163a9059cbb60e01b81526001600160a01b0387169263a9059cbb92613716926004016001600160a01b03929092168252602082015260400190565b602060405180830381600087803b15801561373057600080fd5b505af1158015613744573d6000803e3d6000fd5b505050506040513d601f19601f8201168201806040525081019061376891906151be565b505b336000908152600b6020908152604091829020889055815160c081019092528451825282810151908201906137a09060016155a3565b815260208082018990526060848101516040808501919091523382850181905260809485018c90526001600160a01b038e81166000908152600986528381208f825286528390208751815594870151600186015586830151600286015592860151600385015593850151600480850180546001600160a01b0319169285169290921790915560a09095015160059093019290925590516323b872dd60e01b8152908716926323b872dd9261385a92909130918c91016152b6565b602060405180830381600087803b15801561387457600080fd5b505af1158015613888573d6000803e3d6000fd5b505050506040513d601f19601f820116820180604052508101906138ac91906151be565b5060a081015160808201516040805133815260208101939093526001600160a01b0390911682820152517fb35ca26b2ab5978e9de2fdcfe993212f5135cc71e090a641b05ec895561222da9181900360600190a15050505050505050565b60006139168383614a6a565b90503481604001511461396b5760405162461bcd60e51b815260206004820152601a60248201527f4d61726b6574706c6163653a20696e76616c696420707269636500000000000060448201526064016109bb565b60208101516001600160a01b03163314156139985760405162461bcd60e51b81526004016109bb90615490565b6139a88382600001513385614af2565b6001600160a01b038084166000908152600560205260408120600281015460019091015490921690349068056bc75e2d631000006139e685846155db565b6139f091906155bb565b9050600068056bc75e2d6310000060015484613a0c91906155db565b613a1691906155bb565b90506000613a2482846155a3565b613a2e90856155fa565b905085613a785786602001516001600160a01b03166108fc829081150290604051600060405180830381858888f19350505050158015613a72573d6000803e3d6000fd5b50613aee565b86602001516001600160a01b03166108fc829081150290604051600060405180830381858888f19350505050158015613ab5573d6000803e3d6000fd5b506040516001600160a01b0386169084156108fc029085906000818181858888f19350505050158015613aec573d6000803e3d6000fd5b505b875b600454613aff906001906155fa565b811015613b7b576004613b138260016155a3565b81548110613b3157634e487b7160e01b600052603260045260246000fd5b906000526020600020015460048281548110613b5d57634e487b7160e01b600052603260045260246000fd5b60009182526020909120015580613b7381615611565b915050613af0565b506004805480613b9b57634e487b7160e01b600052603160045260246000fd5b60019003818190600052602060002001600090559055505050505050505050565b6001600160a01b038086166000908152600760209081526040808320888452825291829020825160a081018452815480825260018301548616938201939093526002820154938101939093526003810154606084015260040154909216608082015290613c775760405162461bcd60e51b815260206004820152602360248201527f4d61726b65706c6163653a204f72646572206e6f7420796574207075626c69736044820152621a195960ea1b60648201526084016109bb565b60208101516001600160a01b03163314613cdd5760405162461bcd60e51b815260206004820152602160248201527f4d61726b65706c6163653a2073656e646572206973206e6f7420616c6c6f77656044820152601960fa1b60648201526084016109bb565b6000816040015111613d015760405162461bcd60e51b81526004016109bb9061538a565b6000816060015111613d255760405162461bcd60e51b81526004016109bb9061538a565b600060076000886001600160a01b03166001600160a01b0316815260200190815260200160002060008781526020019081526020016000206000015490506040518060a00160405280828152602001336001600160a01b03168152602001868152602001858152602001846001600160a01b031681525060076000896001600160a01b03166001600160a01b0316815260200190815260200160002060008881526020019081526020016000206000820151816000015560208201518160010160006101000a8154816001600160a01b0302191690836001600160a01b03160217905550604082015181600201556060820151816003015560808201518160040160006101000a8154816001600160a01b0302191690836001600160a01b031602179055509050507f37de993802f8ab9c75f6d7d3065ba8ab95ce30051219b14251415925e68e0a4882600001518686604051613e95939291909283526020830191909152604082015260600190565b60405180910390a150505050505050565b6040516370a0823160e01b81526001600160a01b03808316600483015260609182918291869186918391600091908316906370a082319060240160206040518083038186803b158015613ef857600080fd5b505afa158015613f0c573d6000803e3d6000fd5b505050506040513d601f19601f82011682018060405250810190613f3091906151f6565b9050613f3a614eac565b613f42614eac565b60008367ffffffffffffffff811115613f6b57634e487b7160e01b600052604160045260246000fd5b604051908082528060200260200182016040528015613f94578160200160208202803683370190505b5090506000613fa387896144b8565b67ffffffffffffffff811115613fc957634e487b7160e01b600052604160045260246000fd5b604051908082528060200260200182016040528015613ff2578160200160208202803683370190505b50905060006140018989614642565b67ffffffffffffffff81111561402757634e487b7160e01b600052604160045260246000fd5b604051908082528060200260200182016040528015614050578160200160208202803683370190505b50905060008060005b6003548110156141e85760006003828154811061408657634e487b7160e01b600052603260045260246000fd5b90600052602060002001549050600860008e6001600160a01b03166001600160a01b0316815260200190815260200160002060008281526020019081526020016000206040518060a0016040529081600082015481526020016001820160009054906101000a90046001600160a01b03166001600160a01b03166001600160a01b0316815260200160028201548152602001600382015481526020016004820160009054906101000a90046001600160a01b03166001600160a01b03166001600160a01b03168152505098508b6001600160a01b031689602001516001600160a01b031614156141d5576003828154811061419157634e487b7160e01b600052603260045260246000fd5b90600052602060002001548584815181106141bc57634e487b7160e01b600052603260045260246000fd5b6020908102919091010152826141d181615611565b9350505b50806141e081615611565b915050614059565b5060005b60045481101561437b5760006004828154811061421957634e487b7160e01b600052603260045260246000fd5b90600052602060002001549050600760008e6001600160a01b03166001600160a01b0316815260200190815260200160002060008281526020019081526020016000206040518060a0016040529081600082015481526020016001820160009054906101000a90046001600160a01b03166001600160a01b03166001600160a01b0316815260200160028201548152602001600382015481526020016004820160009054906101000a90046001600160a01b03166001600160a01b03166001600160a01b03168152505097508b6001600160a01b031688602001516001600160a01b03161415614368576004828154811061432457634e487b7160e01b600052603260045260246000fd5b906000526020600020015486858151811061434f57634e487b7160e01b600052603260045260246000fd5b60209081029190910101528361436481615611565b9450505b508061437381615611565b9150506141ec565b5060005b8881101561444457604051632f745c5960e01b81526001600160a01b038c81166004830152602482018390528b1690632f745c599060440160206040518083038186803b1580156143cf57600080fd5b505afa1580156143e3573d6000803e3d6000fd5b505050506040513d601f19601f8201168201806040525081019061440791906151f6565b86828151811061442757634e487b7160e01b600052603260045260246000fd5b60209081029190910101528061443c81615611565b91505061437f565b50929f919e50929c509a5050505050505050505050565b6006818154811061446b57600080fd5b6000918252602090912060079091020180546001820154600283015460038401546004850154600586015460069096015494965092946001600160a01b0392831694918316939290911687565b6000806144c3614eac565b60005b600454811015614589576000600482815481106144f357634e487b7160e01b600052603260045260246000fd5b60009182526020808320909101546001600160a01b03808a168452600783526040808520838652845293849020845160a081018652815481526001820154831694810185905260028201549581019590955260038101546060860152600401548116608085015292955092509088161415614576576145736001856155a3565b93505b508061458181615611565b9150506144c6565b5090949350505050565b6145a08585858585614bea565b5050505050565b6000546001600160a01b031633146145d15760405162461bcd60e51b81526004016109bb906154fa565b6001600160a01b0381166146365760405162461bcd60e51b815260206004820152602660248201527f4f776e61626c653a206e6577206f776e657220697320746865207a65726f206160448201526564647265737360d01b60648201526084016109bb565b61463f81614801565b50565b60008061464d614eac565b60005b6003548110156145895760006003828154811061467d57634e487b7160e01b600052603260045260246000fd5b60009182526020808320909101546001600160a01b03808b168452600883526040808520838652845293849020845160a081018652815481526001820154831694810185905260028201549581019590955260038101546060860152600401548116608085015292955092509087161415614700576146fd6001856155a3565b93505b508061470b81615611565b915050614650565b6001600160a01b03841660008181526007602090815260408083208684529091528082208281556001810180546001600160a01b03199081169091556002820184905560038201939093556004908101805490931690925551632142170760e11b81528692916342842e0e9161478f91309187918991016152b6565b600060405180830381600087803b1580156147a957600080fd5b505af11580156147bd573d6000803e3d6000fd5b505050507f5152abf959f6564662358c2e52b702259b78bac5ee7842a0f01937e670efcc7d846040516147f291815260200190565b60405180910390a15050505050565b600080546001600160a01b038381166001600160a01b0319831681178455604051919092169283917f8be0079c531659141344cd1fd0a4f28419497f9722a3daafe3b4186f6b6457e09190a35050565b600080805b60065481101561490b57846006828154811061488257634e487b7160e01b600052603260045260246000fd5b9060005260206000209060070201600401541480156148e65750836001600160a01b0316600682815481106148c757634e487b7160e01b600052603260045260246000fd5b60009182526020909120600360079092020101546001600160a01b0316145b156148f9576148f66001836155a3565b91505b8061490381615611565b915050614856565b509392505050565b61491b614eac565b506001600160a01b038083166000908152600860209081526040808320858452825291829020825160a081018452815480825260018301548616938201939093526002820154938101939093526003810154606084015260040154909216608082015290611db25760405162461bcd60e51b81526004016109bb906154c5565b6149e06040518060c001604052806000801916815260200160008152602001600081526020016000815260200160006001600160a01b03168152602001600081525090565b506001600160a01b038083166000908152600960209081526040808320858452825291829020825160c0810184528154808252600183015493820193909352600282015493810193909352600381015460608401526004810154909316608083015260059092015460a082015290611db25760405162461bcd60e51b81526004016109bb906154c5565b614a72614eac565b506001600160a01b038083166000908152600760209081526040808320858452825291829020825160a081018452815480825260018301548616938201939093526002820154938101939093526003810154606084015260040154909216608082015290611db25760405162461bcd60e51b81526004016109bb906154c5565b6001600160a01b03841660008181526007602090815260408083208584529091528082208281556001810180546001600160a01b03199081169091556002820184905560038201939093556004908101805490931690925551632142170760e11b81528692916342842e0e91614b6e91309188918891016152b6565b600060405180830381600087803b158015614b8857600080fd5b505af1158015614b9c573d6000803e3d6000fd5b50505050826001600160a01b03167fa499d96916807cf4b89e0622286b8398722d351e708460545de5afaafc6b9a4585604051614bdb91815260200190565b60405180910390a25050505050565b6040516331a9108f60e11b81526004810185905285906000906001600160a01b03831690636352211e9060240160206040518083038186803b158015614c2f57600080fd5b505afa158015614c43573d6000803e3d6000fd5b505050506040513d601f19601f82011682018060405250810190614c679190614efd565b90506001600160a01b0381163314614c915760405162461bcd60e51b81526004016109bb906153d4565b60008511614cb15760405162461bcd60e51b81526004016109bb90615574565b604051632142170760e11b81526001600160a01b038316906342842e0e90614ce190849030908b906004016152b6565b600060405180830381600087803b158015614cfb57600080fd5b505af1158015614d0f573d6000803e3d6000fd5b505060408051602081018a9052908101889052606081018790526000925060800190506040516020818303038152906040528051906020012090506040518060a00160405280828152602001336001600160a01b03168152602001878152602001868152602001856001600160a01b0316815250600760008a6001600160a01b03166001600160a01b0316815260200190815260200160002060008981526020019081526020016000206000820151816000015560208201518160010160006101000a8154816001600160a01b0302191690836001600160a01b03160217905550604082015181600201556060820151816003015560808201518160040160006101000a8154816001600160a01b0302191690836001600160a01b03160217905550905050600487908060018154018082558091505060019003906000526020600020016000909190919091505586336001600160a01b03167f2b7a95a61cb6efaffa9e5e6acf07d9ee462803776ac14bdd4500fa29bcadfed5838989604051612a41939291909283526020830191909152604082015260600190565b6040805160a08101825260008082526020820181905291810182905260608101829052608081019190915290565b600060208284031215614eeb578081fd5b8135614ef681615658565b9392505050565b600060208284031215614f0e578081fd5b8151614ef681615658565b60008060408385031215614f2b578081fd5b8235614f3681615658565b91506020830135614f4681615658565b809150509250929050565b60008060008060808587031215614f66578182fd5b8435614f7181615658565b93506020850135614f8181615658565b925060408501359150606085013567ffffffffffffffff80821115614fa4578283fd5b818701915087601f830112614fb7578283fd5b813581811115614fc957614fc9615642565b604051601f8201601f19908116603f01168101908382118183101715614ff157614ff1615642565b816040528281528a6020848701011115615009578586fd5b82602086016020830137918201602001949094529598949750929550505050565b6000806040838503121561503c578182fd5b823561504781615658565b946020939093013593505050565b600080600060608486031215615069578283fd5b833561507481615658565b925060208401359150604084013561508b81615658565b809150509250925092565b600080600080608085870312156150ab578384fd5b84356150b681615658565b9350602085013592506040850135915060608501356150d481615658565b939692955090935050565b600080600080600060a086880312156150f6578081fd5b853561510181615658565b94506020860135935060408601359250606086013561511f81615658565b9150608086013561512f81615658565b809150509295509295909350565b60008060008060808587031215615152578384fd5b843561515d81615658565b966020860135965060408601359560600135945092505050565b600080600080600060a0868803121561518e578081fd5b853561519981615658565b9450602086013593506040860135925060608601359150608086013561512f81615658565b6000602082840312156151cf578081fd5b81518015158114614ef6578182fd5b6000602082840312156151ef578081fd5b5035919050565b600060208284031215615207578081fd5b5051919050565b6000815180845260208085019450808401835b838110156152465781516001600160a01b031687529582019590820190600101615221565b509495945050505050565b6000815180845260208085019450808401835b8381101561524657815187529582019590820190600101615264565b6bffffffffffffffffffffffff19606095861b811682526014820194909452603481019290925290921b16605482015260680190565b6001600160a01b039384168152919092166020820152604081019190915260600190565b6060815260006152ed6060830186615251565b82810360208401526152ff8186615251565b905082810360408401526153138185615251565b9695505050505050565b60a08152600061533060a0830188615251565b82810360208401526153428188615251565b905082810360408401526153568187615251565b9050828103606084015261536a818661520e565b9050828103608084015261537e818561520e565b98975050505050505050565b6020808252602a908201527f4d61726b6574706c6163653a2050726963652073686f756c64206265206269676040820152690676572207468616e20360b41b606082015260800190565b60208082526033908201527f4d61726b6574706c6163653a204f6e6c7920746865206173736574206f776e65604082015272722063616e20637265617465206f726465727360681b606082015260800190565b60208082526021908201527f6e6577206269642073686f756c642062652067726561746572206d696e2062696040820152601960fa1b606082015260800190565b6020808252600e908201526d3ab9b29039b0b6b2903a37b5b2b760911b604082015260600190565b6020808252818101527f4d61726b6574706c6163653a20756e617574686f72697a65642073656e646572604082015260600190565b6020808252818101527f4d61726b6574706c6163653a206173736574206e6f74207075626c6973686564604082015260600190565b6020808252818101527f4f776e61626c653a2063616c6c6572206973206e6f7420746865206f776e6572604082015260600190565b60208082526025908201527f6e6577206269642073686f756c642062652067726561746572206869676865736040820152641d08189a5960da1b606082015260800190565b6020808252601590820152741b9bdd08195b9bdd59da08199d5b991cc81cd95b99605a1b604082015260600190565b600082198211156155b6576155b661562c565b500190565b6000826155d657634e487b7160e01b81526012600452602481fd5b500490565b60008160001904831182151516156155f5576155f561562c565b500290565b60008282101561560c5761560c61562c565b500390565b60006000198214156156255761562561562c565b5060010190565b634e487b7160e01b600052601160045260246000fd5b634e487b7160e01b600052604160045260246000fd5b6001600160a01b038116811461463f57600080fdfea2646970667358221220e038a0945e190b7b0d2e31c97417fa645991a8aa68af66b318989e64e461198064736f6c63430008040033",
  "linkReferences": {},
  "deployedLinkReferences": {}
}