{
  "_format": "hh-sol-artifact-1",
  "contractName": "ERC721A",
  "sourceName": "contracts/PublicsaleLaunchpadToken.sol",
  "abi": [
    {
      "inputs": [],
      "name": "ApprovalCallerNotOwnerNorApproved",
      "type": "error"
    },
    {
      "inputs": [],
      "name": "ApprovalQueryForNonexistentToken",
      "type": "error"
    },
    {
      "inputs": [],
      "name": "ApprovalToCurrentOwner",
      "type": "error"
    },
    {
      "inputs": [],
      "name": "ApproveToCaller",
      "type": "error"
    },
    {
      "inputs": [],
      "name": "BalanceQueryForZeroAddress",
      "type": "error"
    },
    {
      "inputs": [],
      "name": "OwnerIndexOutOfBounds",
      "type": "error"
    },
    {
      "inputs": [],
      "name": "OwnerQueryForNonexistentToken",
      "type": "error"
    },
    {
      "inputs": [],
      "name": "TokenIndexOutOfBounds",
      "type": "error"
    },
    {
      "inputs": [],
      "name": "TransferCallerNotOwnerNorApproved",
      "type": "error"
    },
    {
      "inputs": [],
      "name": "TransferFromIncorrectOwner",
      "type": "error"
    },
    {
      "inputs": [],
      "name": "TransferToNonERC721ReceiverImplementer",
      "type": "error"
    },
    {
      "inputs": [],
      "name": "TransferToZeroAddress",
      "type": "error"
    },
    {
      "inputs": [],
      "name": "URIQueryForNonexistentToken",
      "type": "error"
    },
    {
      "inputs": [],
      "name": "UnableDetermineTokenOwner",
      "type": "error"
    },
    {
      "anonymous": false,
      "inputs": [
        {
          "indexed": true,
          "internalType": "address",
          "name": "owner",
          "type": "address"
        },
        {
          "indexed": true,
          "internalType": "address",
          "name": "approved",
          "type": "address"
        },
        {
          "indexed": true,
          "internalType": "uint256",
          "name": "tokenId",
          "type": "uint256"
        }
      ],
      "name": "Approval",
      "type": "event"
    },
    {
      "anonymous": false,
      "inputs": [
        {
          "indexed": true,
          "internalType": "address",
          "name": "owner",
          "type": "address"
        },
        {
          "indexed": true,
          "internalType": "address",
          "name": "operator",
          "type": "address"
        },
        {
          "indexed": false,
          "internalType": "bool",
          "name": "approved",
          "type": "bool"
        }
      ],
      "name": "ApprovalForAll",
      "type": "event"
    },
    {
      "anonymous": false,
      "inputs": [
        {
          "indexed": true,
          "internalType": "address",
          "name": "previousOwner",
          "type": "address"
        },
        {
          "indexed": true,
          "internalType": "address",
          "name": "newOwner",
          "type": "address"
        }
      ],
      "name": "OwnershipTransferred",
      "type": "event"
    },
    {
      "anonymous": false,
      "inputs": [
        {
          "indexed": true,
          "internalType": "address",
          "name": "from",
          "type": "address"
        },
        {
          "indexed": true,
          "internalType": "address",
          "name": "to",
          "type": "address"
        },
        {
          "indexed": true,
          "internalType": "uint256",
          "name": "tokenId",
          "type": "uint256"
        }
      ],
      "name": "Transfer",
      "type": "event"
    },
    {
      "inputs": [
        {
          "internalType": "address",
          "name": "newOwner",
          "type": "address"
        }
      ],
      "name": "_transferOwnership",
      "outputs": [],
      "stateMutability": "nonpayable",
      "type": "function"
    },
    {
      "inputs": [
        {
          "internalType": "address",
          "name": "to",
          "type": "address"
        },
        {
          "internalType": "uint256",
          "name": "tokenId",
          "type": "uint256"
        }
      ],
      "name": "approve",
      "outputs": [],
      "stateMutability": "nonpayable",
      "type": "function"
    },
    {
      "inputs": [
        {
          "internalType": "address",
          "name": "owner",
          "type": "address"
        }
      ],
      "name": "balanceOf",
      "outputs": [
        {
          "internalType": "uint256",
          "name": "",
          "type": "uint256"
        }
      ],
      "stateMutability": "view",
      "type": "function"
    },
    {
      "inputs": [
        {
          "internalType": "uint256",
          "name": "tokenId",
          "type": "uint256"
        }
      ],
      "name": "getApproved",
      "outputs": [
        {
          "internalType": "address",
          "name": "",
          "type": "address"
        }
      ],
      "stateMutability": "view",
      "type": "function"
    },
    {
      "inputs": [
        {
          "internalType": "address",
          "name": "owner",
          "type": "address"
        },
        {
          "internalType": "address",
          "name": "operator",
          "type": "address"
        }
      ],
      "name": "isApprovedForAll",
      "outputs": [
        {
          "internalType": "bool",
          "name": "",
          "type": "bool"
        }
      ],
      "stateMutability": "view",
      "type": "function"
    },
    {
      "inputs": [],
      "name": "name",
      "outputs": [
        {
          "internalType": "string",
          "name": "",
          "type": "string"
        }
      ],
      "stateMutability": "view",
      "type": "function"
    },
    {
      "inputs": [],
      "name": "owner",
      "outputs": [
        {
          "internalType": "address",
          "name": "",
          "type": "address"
        }
      ],
      "stateMutability": "view",
      "type": "function"
    },
    {
      "inputs": [
        {
          "internalType": "uint256",
          "name": "tokenId",
          "type": "uint256"
        }
      ],
      "name": "ownerOf",
      "outputs": [
        {
          "internalType": "address",
          "name": "",
          "type": "address"
        }
      ],
      "stateMutability": "view",
      "type": "function"
    },
    {
      "inputs": [],
      "name": "renounceOwnership",
      "outputs": [],
      "stateMutability": "nonpayable",
      "type": "function"
    },
    {
      "inputs": [
        {
          "internalType": "address",
          "name": "from",
          "type": "address"
        },
        {
          "internalType": "address",
          "name": "to",
          "type": "address"
        },
        {
          "internalType": "uint256",
          "name": "tokenId",
          "type": "uint256"
        }
      ],
      "name": "safeTransferFrom",
      "outputs": [],
      "stateMutability": "nonpayable",
      "type": "function"
    },
    {
      "inputs": [
        {
          "internalType": "address",
          "name": "from",
          "type": "address"
        },
        {
          "internalType": "address",
          "name": "to",
          "type": "address"
        },
        {
          "internalType": "uint256",
          "name": "tokenId",
          "type": "uint256"
        },
        {
          "internalType": "bytes",
          "name": "_data",
          "type": "bytes"
        }
      ],
      "name": "safeTransferFrom",
      "outputs": [],
      "stateMutability": "nonpayable",
      "type": "function"
    },
    {
      "inputs": [
        {
          "internalType": "address",
          "name": "operator",
          "type": "address"
        },
        {
          "internalType": "bool",
          "name": "approved",
          "type": "bool"
        }
      ],
      "name": "setApprovalForAll",
      "outputs": [],
      "stateMutability": "nonpayable",
      "type": "function"
    },
    {
      "inputs": [
        {
          "internalType": "bytes4",
          "name": "interfaceId",
          "type": "bytes4"
        }
      ],
      "name": "supportsInterface",
      "outputs": [
        {
          "internalType": "bool",
          "name": "",
          "type": "bool"
        }
      ],
      "stateMutability": "view",
      "type": "function"
    },
    {
      "inputs": [],
      "name": "symbol",
      "outputs": [
        {
          "internalType": "string",
          "name": "",
          "type": "string"
        }
      ],
      "stateMutability": "view",
      "type": "function"
    },
    {
      "inputs": [
        {
          "internalType": "uint256",
          "name": "index",
          "type": "uint256"
        }
      ],
      "name": "tokenByIndex",
      "outputs": [
        {
          "internalType": "uint256",
          "name": "",
          "type": "uint256"
        }
      ],
      "stateMutability": "view",
      "type": "function"
    },
    {
      "inputs": [
        {
          "internalType": "address",
          "name": "owner",
          "type": "address"
        },
        {
          "internalType": "uint256",
          "name": "index",
          "type": "uint256"
        }
      ],
      "name": "tokenOfOwnerByIndex",
      "outputs": [
        {
          "internalType": "uint256",
          "name": "a",
          "type": "uint256"
        }
      ],
      "stateMutability": "view",
      "type": "function"
    },
    {
      "inputs": [
        {
          "internalType": "uint256",
          "name": "tokenId",
          "type": "uint256"
        }
      ],
      "name": "tokenURI",
      "outputs": [
        {
          "internalType": "string",
          "name": "",
          "type": "string"
        }
      ],
      "stateMutability": "view",
      "type": "function"
    },
    {
      "inputs": [],
      "name": "totalSupply",
      "outputs": [
        {
          "internalType": "uint256",
          "name": "",
          "type": "uint256"
        }
      ],
      "stateMutability": "view",
      "type": "function"
    },
    {
      "inputs": [
        {
          "internalType": "address",
          "name": "from",
          "type": "address"
        },
        {
          "internalType": "address",
          "name": "to",
          "type": "address"
        },
        {
          "internalType": "uint256",
          "name": "tokenId",
          "type": "uint256"
        }
      ],
      "name": "transferFrom",
      "outputs": [],
      "stateMutability": "nonpayable",
      "type": "function"
    },
    {
      "inputs": [
        {
          "internalType": "address",
          "name": "newOwner",
          "type": "address"
        }
      ],
      "name": "transferOwnership",
      "outputs": [],
      "stateMutability": "nonpayable",
      "type": "function"
    }
  ],
  "bytecode": "0x60806040523480156200001157600080fd5b5062000032620000266200003860201b60201c565b6200004060201b60201c565b62000105565b600033905090565b60008060029054906101000a900473ffffffffffffffffffffffffffffffffffffffff16905081600060026101000a81548173ffffffffffffffffffffffffffffffffffffffff021916908373ffffffffffffffffffffffffffffffffffffffff1602179055508173ffffffffffffffffffffffffffffffffffffffff168173ffffffffffffffffffffffffffffffffffffffff167f8be0079c531659141344cd1fd0a4f28419497f9722a3daafe3b4186f6b6457e060405160405180910390a35050565b61265a80620001156000396000f3fe608060405234801561001057600080fd5b506004361061012c5760003560e01c806370a08231116100ad578063b88d4fde11610071578063b88d4fde14610343578063c87b56dd1461035f578063d29d44ee1461038f578063e985e9c5146103ab578063f2fde38b146103db5761012c565b806370a08231146102b1578063715018a6146102e15780638da5cb5b146102eb57806395d89b4114610309578063a22cb465146103275761012c565b806323b872dd116100f457806323b872dd146101e95780632f745c591461020557806342842e0e146102355780634f6ccce7146102515780636352211e146102815761012c565b806301ffc9a71461013157806306fdde0314610161578063081812fc1461017f578063095ea7b3146101af57806318160ddd146101cb575b600080fd5b61014b60048036038101906101469190611e6a565b6103f7565b6040516101589190612092565b60405180910390f35b610169610541565b60405161017691906120ad565b60405180910390f35b61019960048036038101906101949190611ec4565b6105d3565b6040516101a6919061202b565b60405180910390f35b6101c960048036038101906101c49190611e2a565b61064f565b005b6101d361075a565b6040516101e0919061210f565b60405180910390f35b61020360048036038101906101fe9190611d14565b610764565b005b61021f600480360381019061021a9190611e2a565b610774565b60405161022c919061210f565b60405180910390f35b61024f600480360381019061024a9190611d14565b610935565b005b61026b60048036038101906102669190611ec4565b610955565b604051610278919061210f565b60405180910390f35b61029b60048036038101906102969190611ec4565b61099f565b6040516102a8919061202b565b60405180910390f35b6102cb60048036038101906102c69190611ca7565b6109b5565b6040516102d8919061210f565b60405180910390f35b6102e9610a95565b005b6102f3610b1d565b604051610300919061202b565b60405180910390f35b610311610b46565b60405161031e91906120ad565b60405180910390f35b610341600480360381019061033c9190611dea565b610bd8565b005b61035d60048036038101906103589190611d67565b610d50565b005b61037960048036038101906103749190611ec4565b610da3565b60405161038691906120ad565b60405180910390f35b6103a960048036038101906103a49190611ca7565b610e42565b005b6103c560048036038101906103c09190611cd4565b610f07565b6040516103d29190612092565b60405180910390f35b6103f560048036038101906103f09190611ca7565b610f9b565b005b60007f80ac58cd000000000000000000000000000000000000000000000000000000007bffffffffffffffffffffffffffffffffffffffffffffffffffffffff1916827bffffffffffffffffffffffffffffffffffffffffffffffffffffffff191614806104c257507f5b5e139f000000000000000000000000000000000000000000000000000000007bffffffffffffffffffffffffffffffffffffffffffffffffffffffff1916827bffffffffffffffffffffffffffffffffffffffffffffffffffffffff1916145b8061052a57507f780e9d63000000000000000000000000000000000000000000000000000000007bffffffffffffffffffffffffffffffffffffffffffffffffffffffff1916827bffffffffffffffffffffffffffffffffffffffffffffffffffffffff1916145b8061053a575061053982611093565b5b9050919050565b60606002805461055090612334565b80601f016020809104026020016040519081016040528092919081815260200182805461057c90612334565b80156105c95780601f1061059e576101008083540402835291602001916105c9565b820191906000526020600020905b8154815290600101906020018083116105ac57829003601f168201915b5050505050905090565b60006105de826110fd565b610614576040517fcf4700e400000000000000000000000000000000000000000000000000000000815260040160405180910390fd5b6006600083815260200190815260200160002060009054906101000a900473ffffffffffffffffffffffffffffffffffffffff169050919050565b600061065a8261099f565b90508073ffffffffffffffffffffffffffffffffffffffff168373ffffffffffffffffffffffffffffffffffffffff1614156106c2576040517f943f7b8c00000000000000000000000000000000000000000000000000000000815260040160405180910390fd5b8073ffffffffffffffffffffffffffffffffffffffff166106e161110b565b73ffffffffffffffffffffffffffffffffffffffff161415801561071357506107118161070c61110b565b610f07565b155b1561074a576040517fcfb3b94200000000000000000000000000000000000000000000000000000000815260040160405180910390fd5b610755838383611113565b505050565b6000600154905090565b61076f8383836111c5565b505050565b600061077f836109b5565b82106107b7576040517f0ddac30e00000000000000000000000000000000000000000000000000000000815260040160405180910390fd5b60006107c161075a565b905060008060005b8381101561091b576000600460008381526020019081526020016000206040518060400160405290816000820160009054906101000a900473ffffffffffffffffffffffffffffffffffffffff1673ffffffffffffffffffffffffffffffffffffffff1673ffffffffffffffffffffffffffffffffffffffff1681526020016000820160149054906101000a900467ffffffffffffffff1667ffffffffffffffff1667ffffffffffffffff16815250509050600073ffffffffffffffffffffffffffffffffffffffff16816000015173ffffffffffffffffffffffffffffffffffffffff16146108bb57806000015192505b8773ffffffffffffffffffffffffffffffffffffffff168373ffffffffffffffffffffffffffffffffffffffff16141561090d578684141561090457819550505050505061092f565b83806001019450505b5080806001019150506107c9565b50600061092b5761092a612411565b5b5050505b92915050565b61095083838360405180602001604052806000815250610d50565b505050565b600061095f61075a565b8210610997576040517fa723001c00000000000000000000000000000000000000000000000000000000815260040160405180910390fd5b819050919050565b60006109aa826116dd565b600001519050919050565b60008073ffffffffffffffffffffffffffffffffffffffff168273ffffffffffffffffffffffffffffffffffffffff161415610a1d576040517f8f4eb60400000000000000000000000000000000000000000000000000000000815260040160405180910390fd5b600560008373ffffffffffffffffffffffffffffffffffffffff1673ffffffffffffffffffffffffffffffffffffffff16815260200190815260200160002060000160009054906101000a90046fffffffffffffffffffffffffffffffff166fffffffffffffffffffffffffffffffff169050919050565b610a9d61110b565b73ffffffffffffffffffffffffffffffffffffffff16610abb610b1d565b73ffffffffffffffffffffffffffffffffffffffff1614610b11576040517f08c379a0000000000000000000000000000000000000000000000000000000008152600401610b08906120ef565b60405180910390fd5b610b1b6000610e42565b565b60008060029054906101000a900473ffffffffffffffffffffffffffffffffffffffff16905090565b606060038054610b5590612334565b80601f0160208091040260200160405190810160405280929190818152602001828054610b8190612334565b8015610bce5780601f10610ba357610100808354040283529160200191610bce565b820191906000526020600020905b815481529060010190602001808311610bb157829003601f168201915b5050505050905090565b610be061110b565b73ffffffffffffffffffffffffffffffffffffffff168273ffffffffffffffffffffffffffffffffffffffff161415610c45576040517fb06307db00000000000000000000000000000000000000000000000000000000815260040160405180910390fd5b8060076000610c5261110b565b73ffffffffffffffffffffffffffffffffffffffff1673ffffffffffffffffffffffffffffffffffffffff16815260200190815260200160002060008473ffffffffffffffffffffffffffffffffffffffff1673ffffffffffffffffffffffffffffffffffffffff16815260200190815260200160002060006101000a81548160ff0219169083151502179055508173ffffffffffffffffffffffffffffffffffffffff16610cff61110b565b73ffffffffffffffffffffffffffffffffffffffff167f17307eab39ab6107e8899845ad3d59bd9653f200f220920489ca2b5937696c3183604051610d449190612092565b60405180910390a35050565b610d5b8484846111c5565b610d6784848484611865565b610d9d576040517fd1a57ed600000000000000000000000000000000000000000000000000000000815260040160405180910390fd5b50505050565b6060610dae826110fd565b610de4576040517fa14c4b5000000000000000000000000000000000000000000000000000000000815260040160405180910390fd5b6000610dee6119f3565b9050600081511415610e0f5760405180602001604052806000815250610e3a565b80610e1984611a0a565b604051602001610e2a929190612007565b6040516020818303038152906040525b915050919050565b60008060029054906101000a900473ffffffffffffffffffffffffffffffffffffffff16905081600060026101000a81548173ffffffffffffffffffffffffffffffffffffffff021916908373ffffffffffffffffffffffffffffffffffffffff1602179055508173ffffffffffffffffffffffffffffffffffffffff168173ffffffffffffffffffffffffffffffffffffffff167f8be0079c531659141344cd1fd0a4f28419497f9722a3daafe3b4186f6b6457e060405160405180910390a35050565b6000600760008473ffffffffffffffffffffffffffffffffffffffff1673ffffffffffffffffffffffffffffffffffffffff16815260200190815260200160002060008373ffffffffffffffffffffffffffffffffffffffff1673ffffffffffffffffffffffffffffffffffffffff16815260200190815260200160002060009054906101000a900460ff16905092915050565b610fa361110b565b73ffffffffffffffffffffffffffffffffffffffff16610fc1610b1d565b73ffffffffffffffffffffffffffffffffffffffff1614611017576040517f08c379a000000000000000000000000000000000000000000000000000000000815260040161100e906120ef565b60405180910390fd5b600073ffffffffffffffffffffffffffffffffffffffff168173ffffffffffffffffffffffffffffffffffffffff161415611087576040517f08c379a000000000000000000000000000000000000000000000000000000000815260040161107e906120cf565b60405180910390fd5b61109081610e42565b50565b60007f01ffc9a7000000000000000000000000000000000000000000000000000000007bffffffffffffffffffffffffffffffffffffffffffffffffffffffff1916827bffffffffffffffffffffffffffffffffffffffffffffffffffffffff1916149050919050565b600060015482109050919050565b600033905090565b826006600084815260200190815260200160002060006101000a81548173ffffffffffffffffffffffffffffffffffffffff021916908373ffffffffffffffffffffffffffffffffffffffff160217905550818373ffffffffffffffffffffffffffffffffffffffff168273ffffffffffffffffffffffffffffffffffffffff167f8c5be1e5ebec7d5bd14f71427d1e84f3dd0314c0f7b2291e5b200ac8c7c3b92560405160405180910390a4505050565b60006111d0826116dd565b90506000816000015173ffffffffffffffffffffffffffffffffffffffff166111f761110b565b73ffffffffffffffffffffffffffffffffffffffff161480611253575061121c61110b565b73ffffffffffffffffffffffffffffffffffffffff1661123b846105d3565b73ffffffffffffffffffffffffffffffffffffffff16145b8061126f575061126e826000015161126961110b565b610f07565b5b9050806112a8576040517f59c896be00000000000000000000000000000000000000000000000000000000815260040160405180910390fd5b8473ffffffffffffffffffffffffffffffffffffffff16826000015173ffffffffffffffffffffffffffffffffffffffff1614611311576040517fa114810000000000000000000000000000000000000000000000000000000000815260040160405180910390fd5b600073ffffffffffffffffffffffffffffffffffffffff168473ffffffffffffffffffffffffffffffffffffffff161415611378576040517fea553b3400000000000000000000000000000000000000000000000000000000815260040160405180910390fd5b6113886000848460000151611113565b6001600560008773ffffffffffffffffffffffffffffffffffffffff1673ffffffffffffffffffffffffffffffffffffffff16815260200190815260200160002060000160008282829054906101000a90046fffffffffffffffffffffffffffffffff160392506101000a8154816fffffffffffffffffffffffffffffffff02191690836fffffffffffffffffffffffffffffffff1602179055506001600560008673ffffffffffffffffffffffffffffffffffffffff1673ffffffffffffffffffffffffffffffffffffffff16815260200190815260200160002060000160008282829054906101000a90046fffffffffffffffffffffffffffffffff160192506101000a8154816fffffffffffffffffffffffffffffffff02191690836fffffffffffffffffffffffffffffffff160217905550836004600085815260200190815260200160002060000160006101000a81548173ffffffffffffffffffffffffffffffffffffffff021916908373ffffffffffffffffffffffffffffffffffffffff160217905550426004600085815260200190815260200160002060000160146101000a81548167ffffffffffffffff021916908367ffffffffffffffff1602179055506000600184019050600073ffffffffffffffffffffffffffffffffffffffff166004600083815260200190815260200160002060000160009054906101000a900473ffffffffffffffffffffffffffffffffffffffff1673ffffffffffffffffffffffffffffffffffffffff16141561166d576115cc816110fd565b1561166c5782600001516004600083815260200190815260200160002060000160006101000a81548173ffffffffffffffffffffffffffffffffffffffff021916908373ffffffffffffffffffffffffffffffffffffffff16021790555082602001516004600083815260200190815260200160002060000160146101000a81548167ffffffffffffffff021916908367ffffffffffffffff1602179055505b5b50828473ffffffffffffffffffffffffffffffffffffffff168673ffffffffffffffffffffffffffffffffffffffff167fddf252ad1be2c89b69c2b068fc378daa952ba7f163c4a11628f55a4df523b3ef60405160405180910390a46116d68585856001611b6b565b5050505050565b6116e5611b94565b6116ee826110fd565b611724576040517fdf2d9b4200000000000000000000000000000000000000000000000000000000815260040160405180910390fd5b60008290505b6000811061182d576000600460008381526020019081526020016000206040518060400160405290816000820160009054906101000a900473ffffffffffffffffffffffffffffffffffffffff1673ffffffffffffffffffffffffffffffffffffffff1673ffffffffffffffffffffffffffffffffffffffff1681526020016000820160149054906101000a900467ffffffffffffffff1667ffffffffffffffff1667ffffffffffffffff16815250509050600073ffffffffffffffffffffffffffffffffffffffff16816000015173ffffffffffffffffffffffffffffffffffffffff161461181e578092505050611860565b5080806001900391505061172a565b506040517fe7c0edfb00000000000000000000000000000000000000000000000000000000815260040160405180910390fd5b919050565b60006118868473ffffffffffffffffffffffffffffffffffffffff16611b71565b156119e6578373ffffffffffffffffffffffffffffffffffffffff1663150b7a026118af61110b565b8786866040518563ffffffff1660e01b81526004016118d19493929190612046565b602060405180830381600087803b1580156118eb57600080fd5b505af192505050801561191c57506040513d601f19601f820116820180604052508101906119199190611e97565b60015b611996573d806000811461194c576040519150601f19603f3d011682016040523d82523d6000602084013e611951565b606091505b5060008151141561198e576040517fd1a57ed600000000000000000000000000000000000000000000000000000000815260040160405180910390fd5b805181602001fd5b63150b7a0260e01b7bffffffffffffffffffffffffffffffffffffffffffffffffffffffff1916817bffffffffffffffffffffffffffffffffffffffffffffffffffffffff1916149150506119eb565b600190505b949350505050565b606060405180602001604052806000815250905090565b60606000821415611a52576040518060400160405280600181526020017f30000000000000000000000000000000000000000000000000000000000000008152509050611b66565b600082905060005b60008214611a84578080611a6d90612397565b915050600a82611a7d9190612219565b9150611a5a565b60008167ffffffffffffffff811115611aa057611a9f6124fc565b5b6040519080825280601f01601f191660200182016040528015611ad25781602001600182028036833780820191505090505b5090505b60008514611b5f57600182611aeb919061224a565b9150600a85611afa91906123e0565b6030611b0691906121c3565b60f81b818381518110611b1c57611b1b6124cd565b5b60200101907effffffffffffffffffffffffffffffffffffffffffffffffffffffffffffff1916908160001a905350600a85611b589190612219565b9450611ad6565b8093505050505b919050565b50505050565b6000808273ffffffffffffffffffffffffffffffffffffffff163b119050919050565b6040518060400160405280600073ffffffffffffffffffffffffffffffffffffffff168152602001600067ffffffffffffffff1681525090565b6000611be1611bdc8461214f565b61212a565b905082815260208101848484011115611bfd57611bfc612530565b5b611c088482856122f2565b509392505050565b600081359050611c1f816125c8565b92915050565b600081359050611c34816125df565b92915050565b600081359050611c49816125f6565b92915050565b600081519050611c5e816125f6565b92915050565b600082601f830112611c7957611c7861252b565b5b8135611c89848260208601611bce565b91505092915050565b600081359050611ca18161260d565b92915050565b600060208284031215611cbd57611cbc61253a565b5b6000611ccb84828501611c10565b91505092915050565b60008060408385031215611ceb57611cea61253a565b5b6000611cf985828601611c10565b9250506020611d0a85828601611c10565b9150509250929050565b600080600060608486031215611d2d57611d2c61253a565b5b6000611d3b86828701611c10565b9350506020611d4c86828701611c10565b9250506040611d5d86828701611c92565b9150509250925092565b60008060008060808587031215611d8157611d8061253a565b5b6000611d8f87828801611c10565b9450506020611da087828801611c10565b9350506040611db187828801611c92565b925050606085013567ffffffffffffffff811115611dd257611dd1612535565b5b611dde87828801611c64565b91505092959194509250565b60008060408385031215611e0157611e0061253a565b5b6000611e0f85828601611c10565b9250506020611e2085828601611c25565b9150509250929050565b60008060408385031215611e4157611e4061253a565b5b6000611e4f85828601611c10565b9250506020611e6085828601611c92565b9150509250929050565b600060208284031215611e8057611e7f61253a565b5b6000611e8e84828501611c3a565b91505092915050565b600060208284031215611ead57611eac61253a565b5b6000611ebb84828501611c4f565b91505092915050565b600060208284031215611eda57611ed961253a565b5b6000611ee884828501611c92565b91505092915050565b611efa8161227e565b82525050565b611f0981612290565b82525050565b6000611f1a82612180565b611f248185612196565b9350611f34818560208601612301565b611f3d8161253f565b840191505092915050565b6000611f538261218b565b611f5d81856121a7565b9350611f6d818560208601612301565b611f768161253f565b840191505092915050565b6000611f8c8261218b565b611f9681856121b8565b9350611fa6818560208601612301565b80840191505092915050565b6000611fbf6026836121a7565b9150611fca82612550565b604082019050919050565b6000611fe26020836121a7565b9150611fed8261259f565b602082019050919050565b612001816122e8565b82525050565b60006120138285611f81565b915061201f8284611f81565b91508190509392505050565b60006020820190506120406000830184611ef1565b92915050565b600060808201905061205b6000830187611ef1565b6120686020830186611ef1565b6120756040830185611ff8565b81810360608301526120878184611f0f565b905095945050505050565b60006020820190506120a76000830184611f00565b92915050565b600060208201905081810360008301526120c78184611f48565b905092915050565b600060208201905081810360008301526120e881611fb2565b9050919050565b6000602082019050818103600083015261210881611fd5565b9050919050565b60006020820190506121246000830184611ff8565b92915050565b6000612134612145565b90506121408282612366565b919050565b6000604051905090565b600067ffffffffffffffff82111561216a576121696124fc565b5b6121738261253f565b9050602081019050919050565b600081519050919050565b600081519050919050565b600082825260208201905092915050565b600082825260208201905092915050565b600081905092915050565b60006121ce826122e8565b91506121d9836122e8565b9250827fffffffffffffffffffffffffffffffffffffffffffffffffffffffffffffffff0382111561220e5761220d612440565b5b828201905092915050565b6000612224826122e8565b915061222f836122e8565b92508261223f5761223e61246f565b5b828204905092915050565b6000612255826122e8565b9150612260836122e8565b92508282101561227357612272612440565b5b828203905092915050565b6000612289826122c8565b9050919050565b60008115159050919050565b60007fffffffff0000000000000000000000000000000000000000000000000000000082169050919050565b600073ffffffffffffffffffffffffffffffffffffffff82169050919050565b6000819050919050565b82818337600083830152505050565b60005b8381101561231f578082015181840152602081019050612304565b8381111561232e576000848401525b50505050565b6000600282049050600182168061234c57607f821691505b602082108114156123605761235f61249e565b5b50919050565b61236f8261253f565b810181811067ffffffffffffffff8211171561238e5761238d6124fc565b5b80604052505050565b60006123a2826122e8565b91507fffffffffffffffffffffffffffffffffffffffffffffffffffffffffffffffff8214156123d5576123d4612440565b5b600182019050919050565b60006123eb826122e8565b91506123f6836122e8565b9250826124065761240561246f565b5b828206905092915050565b7f4e487b7100000000000000000000000000000000000000000000000000000000600052600160045260246000fd5b7f4e487b7100000000000000000000000000000000000000000000000000000000600052601160045260246000fd5b7f4e487b7100000000000000000000000000000000000000000000000000000000600052601260045260246000fd5b7f4e487b7100000000000000000000000000000000000000000000000000000000600052602260045260246000fd5b7f4e487b7100000000000000000000000000000000000000000000000000000000600052603260045260246000fd5b7f4e487b7100000000000000000000000000000000000000000000000000000000600052604160045260246000fd5b600080fd5b600080fd5b600080fd5b600080fd5b6000601f19601f8301169050919050565b7f4f776e61626c653a206e6577206f776e657220697320746865207a65726f206160008201527f6464726573730000000000000000000000000000000000000000000000000000602082015250565b7f4f776e61626c653a2063616c6c6572206973206e6f7420746865206f776e6572600082015250565b6125d18161227e565b81146125dc57600080fd5b50565b6125e881612290565b81146125f357600080fd5b50565b6125ff8161229c565b811461260a57600080fd5b50565b612616816122e8565b811461262157600080fd5b5056fea26469706673582212201a6f35f7c1c8b757e8caaa0eefb7eb48e31fc51c114749f1775cb56985e3167064736f6c63430008070033",
  "linkReferences": {},
  "deployedLinkReferences": {}
}