{
  "_format": "hh-sol-artifact-1",
  "contractName": "PublicsaleLaunchpadToken",
  "sourceName": "contracts/PublicsaleLaunchpadToken.sol",
  "abi": [
    {
      "inputs": [],
      "name": "ApprovalCallerNotOwnerNorApproved",
      "type": "error"
    },
    {
      "inputs": [],
      "name": "ApprovalQueryForNonexistentToken",
      "type": "error"
    },
    {
      "inputs": [],
      "name": "ApprovalToCurrentOwner",
      "type": "error"
    },
    {
      "inputs": [],
      "name": "ApproveToCaller",
      "type": "error"
    },
    {
      "inputs": [],
      "name": "BalanceQueryForZeroAddress",
      "type": "error"
    },
    {
      "inputs": [],
      "name": "MintToZeroAddress",
      "type": "error"
    },
    {
      "inputs": [],
      "name": "OwnerIndexOutOfBounds",
      "type": "error"
    },
    {
      "inputs": [],
      "name": "OwnerQueryForNonexistentToken",
      "type": "error"
    },
    {
      "inputs": [],
      "name": "TokenIndexOutOfBounds",
      "type": "error"
    },
    {
      "inputs": [],
      "name": "TransferCallerNotOwnerNorApproved",
      "type": "error"
    },
    {
      "inputs": [],
      "name": "TransferFromIncorrectOwner",
      "type": "error"
    },
    {
      "inputs": [],
      "name": "TransferToNonERC721ReceiverImplementer",
      "type": "error"
    },
    {
      "inputs": [],
      "name": "TransferToZeroAddress",
      "type": "error"
    },
    {
      "inputs": [],
      "name": "URIQueryForNonexistentToken",
      "type": "error"
    },
    {
      "inputs": [],
      "name": "UnableDetermineTokenOwner",
      "type": "error"
    },
    {
      "anonymous": false,
      "inputs": [
        {
          "indexed": true,
          "internalType": "address",
          "name": "owner",
          "type": "address"
        },
        {
          "indexed": true,
          "internalType": "address",
          "name": "approved",
          "type": "address"
        },
        {
          "indexed": true,
          "internalType": "uint256",
          "name": "tokenId",
          "type": "uint256"
        }
      ],
      "name": "Approval",
      "type": "event"
    },
    {
      "anonymous": false,
      "inputs": [
        {
          "indexed": true,
          "internalType": "address",
          "name": "owner",
          "type": "address"
        },
        {
          "indexed": true,
          "internalType": "address",
          "name": "operator",
          "type": "address"
        },
        {
          "indexed": false,
          "internalType": "bool",
          "name": "approved",
          "type": "bool"
        }
      ],
      "name": "ApprovalForAll",
      "type": "event"
    },
    {
      "anonymous": false,
      "inputs": [
        {
          "indexed": true,
          "internalType": "address",
          "name": "previousOwner",
          "type": "address"
        },
        {
          "indexed": true,
          "internalType": "address",
          "name": "newOwner",
          "type": "address"
        }
      ],
      "name": "OwnershipTransferred",
      "type": "event"
    },
    {
      "anonymous": false,
      "inputs": [
        {
          "indexed": true,
          "internalType": "address",
          "name": "from",
          "type": "address"
        },
        {
          "indexed": true,
          "internalType": "address",
          "name": "to",
          "type": "address"
        },
        {
          "indexed": true,
          "internalType": "uint256",
          "name": "tokenId",
          "type": "uint256"
        }
      ],
      "name": "Transfer",
      "type": "event"
    },
    {
      "inputs": [
        {
          "internalType": "address",
          "name": "newOwner",
          "type": "address"
        }
      ],
      "name": "_transferOwnership",
      "outputs": [],
      "stateMutability": "nonpayable",
      "type": "function"
    },
    {
      "inputs": [
        {
          "internalType": "address",
          "name": "to",
          "type": "address"
        },
        {
          "internalType": "uint256",
          "name": "tokenId",
          "type": "uint256"
        }
      ],
      "name": "approve",
      "outputs": [],
      "stateMutability": "nonpayable",
      "type": "function"
    },
    {
      "inputs": [
        {
          "internalType": "address",
          "name": "owner",
          "type": "address"
        }
      ],
      "name": "balanceOf",
      "outputs": [
        {
          "internalType": "uint256",
          "name": "",
          "type": "uint256"
        }
      ],
      "stateMutability": "view",
      "type": "function"
    },
    {
      "inputs": [],
      "name": "baseuri",
      "outputs": [
        {
          "internalType": "string",
          "name": "",
          "type": "string"
        }
      ],
      "stateMutability": "view",
      "type": "function"
    },
    {
      "inputs": [
        {
          "internalType": "string",
          "name": "namee",
          "type": "string"
        },
        {
          "internalType": "string",
          "name": "symboll",
          "type": "string"
        },
        {
          "internalType": "uint256",
          "name": "maxSupplyy",
          "type": "uint256"
        },
        {
          "internalType": "uint256",
          "name": "maxPerTranss",
          "type": "uint256"
        },
        {
          "internalType": "uint256",
          "name": "reservee",
          "type": "uint256"
        },
        {
          "internalType": "uint256",
          "name": "pricee",
          "type": "uint256"
        },
        {
          "internalType": "string",
          "name": "baseurii",
          "type": "string"
        }
      ],
      "name": "contractDetails",
      "outputs": [],
      "stateMutability": "nonpayable",
      "type": "function"
    },
    {
      "inputs": [],
      "name": "counter",
      "outputs": [
        {
          "internalType": "uint256",
          "name": "",
          "type": "uint256"
        }
      ],
      "stateMutability": "view",
      "type": "function"
    },
    {
      "inputs": [],
      "name": "flipPauseStatus",
      "outputs": [],
      "stateMutability": "nonpayable",
      "type": "function"
    },
    {
      "inputs": [
        {
          "internalType": "uint256",
          "name": "tokenId",
          "type": "uint256"
        }
      ],
      "name": "getApproved",
      "outputs": [
        {
          "internalType": "address",
          "name": "",
          "type": "address"
        }
      ],
      "stateMutability": "view",
      "type": "function"
    },
    {
      "inputs": [
        {
          "internalType": "address",
          "name": "recepient1",
          "type": "address"
        }
      ],
      "name": "initialize",
      "outputs": [],
      "stateMutability": "nonpayable",
      "type": "function"
    },
    {
      "inputs": [
        {
          "internalType": "address",
          "name": "owner",
          "type": "address"
        },
        {
          "internalType": "address",
          "name": "operator",
          "type": "address"
        }
      ],
      "name": "isApprovedForAll",
      "outputs": [
        {
          "internalType": "bool",
          "name": "",
          "type": "bool"
        }
      ],
      "stateMutability": "view",
      "type": "function"
    },
    {
      "inputs": [],
      "name": "isSalepaused",
      "outputs": [
        {
          "internalType": "bool",
          "name": "",
          "type": "bool"
        }
      ],
      "stateMutability": "view",
      "type": "function"
    },
    {
      "inputs": [],
      "name": "maxPerTrans",
      "outputs": [
        {
          "internalType": "uint256",
          "name": "",
          "type": "uint256"
        }
      ],
      "stateMutability": "view",
      "type": "function"
    },
    {
      "inputs": [],
      "name": "maxSupply",
      "outputs": [
        {
          "internalType": "uint256",
          "name": "",
          "type": "uint256"
        }
      ],
      "stateMutability": "view",
      "type": "function"
    },
    {
      "inputs": [
        {
          "internalType": "uint256",
          "name": "quantity",
          "type": "uint256"
        }
      ],
      "name": "mint",
      "outputs": [],
      "stateMutability": "payable",
      "type": "function"
    },
    {
      "inputs": [],
      "name": "name",
      "outputs": [
        {
          "internalType": "string",
          "name": "",
          "type": "string"
        }
      ],
      "stateMutability": "view",
      "type": "function"
    },
    {
      "inputs": [],
      "name": "owner",
      "outputs": [
        {
          "internalType": "address",
          "name": "",
          "type": "address"
        }
      ],
      "stateMutability": "view",
      "type": "function"
    },
    {
      "inputs": [
        {
          "internalType": "uint256",
          "name": "tokenId",
          "type": "uint256"
        }
      ],
      "name": "ownerOf",
      "outputs": [
        {
          "internalType": "address",
          "name": "",
          "type": "address"
        }
      ],
      "stateMutability": "view",
      "type": "function"
    },
    {
      "inputs": [],
      "name": "price",
      "outputs": [
        {
          "internalType": "uint256",
          "name": "",
          "type": "uint256"
        }
      ],
      "stateMutability": "view",
      "type": "function"
    },
    {
      "inputs": [],
      "name": "renounceOwnership",
      "outputs": [],
      "stateMutability": "nonpayable",
      "type": "function"
    },
    {
      "inputs": [],
      "name": "reserve",
      "outputs": [
        {
          "internalType": "uint256",
          "name": "",
          "type": "uint256"
        }
      ],
      "stateMutability": "view",
      "type": "function"
    },
    {
      "inputs": [
        {
          "internalType": "uint256",
          "name": "quantity",
          "type": "uint256"
        }
      ],
      "name": "reserveTokens",
      "outputs": [],
      "stateMutability": "nonpayable",
      "type": "function"
    },
    {
      "inputs": [
        {
          "internalType": "address",
          "name": "from",
          "type": "address"
        },
        {
          "internalType": "address",
          "name": "to",
          "type": "address"
        },
        {
          "internalType": "uint256",
          "name": "tokenId",
          "type": "uint256"
        }
      ],
      "name": "safeTransferFrom",
      "outputs": [],
      "stateMutability": "nonpayable",
      "type": "function"
    },
    {
      "inputs": [
        {
          "internalType": "address",
          "name": "from",
          "type": "address"
        },
        {
          "internalType": "address",
          "name": "to",
          "type": "address"
        },
        {
          "internalType": "uint256",
          "name": "tokenId",
          "type": "uint256"
        },
        {
          "internalType": "bytes",
          "name": "_data",
          "type": "bytes"
        }
      ],
      "name": "safeTransferFrom",
      "outputs": [],
      "stateMutability": "nonpayable",
      "type": "function"
    },
    {
      "inputs": [
        {
          "internalType": "address",
          "name": "operator",
          "type": "address"
        },
        {
          "internalType": "bool",
          "name": "approved",
          "type": "bool"
        }
      ],
      "name": "setApprovalForAll",
      "outputs": [],
      "stateMutability": "nonpayable",
      "type": "function"
    },
    {
      "inputs": [
        {
          "internalType": "uint256",
          "name": "_quantity",
          "type": "uint256"
        }
      ],
      "name": "setMaxxQtPerTx",
      "outputs": [],
      "stateMutability": "nonpayable",
      "type": "function"
    },
    {
      "inputs": [
        {
          "internalType": "uint256",
          "name": "_newPrice",
          "type": "uint256"
        }
      ],
      "name": "setPrice",
      "outputs": [],
      "stateMutability": "nonpayable",
      "type": "function"
    },
    {
      "inputs": [
        {
          "internalType": "uint256",
          "name": "_quantity",
          "type": "uint256"
        }
      ],
      "name": "setReserveTokens",
      "outputs": [],
      "stateMutability": "nonpayable",
      "type": "function"
    },
    {
      "inputs": [
        {
          "internalType": "string",
          "name": "_newbaseURI",
          "type": "string"
        }
      ],
      "name": "setbaseURI",
      "outputs": [],
      "stateMutability": "nonpayable",
      "type": "function"
    },
    {
      "inputs": [
        {
          "internalType": "uint256",
          "name": "_newMaxSupply",
          "type": "uint256"
        }
      ],
      "name": "setmaxSupply",
      "outputs": [],
      "stateMutability": "nonpayable",
      "type": "function"
    },
    {
      "inputs": [
        {
          "internalType": "bytes4",
          "name": "interfaceId",
          "type": "bytes4"
        }
      ],
      "name": "supportsInterface",
      "outputs": [
        {
          "internalType": "bool",
          "name": "",
          "type": "bool"
        }
      ],
      "stateMutability": "view",
      "type": "function"
    },
    {
      "inputs": [],
      "name": "symbol",
      "outputs": [
        {
          "internalType": "string",
          "name": "",
          "type": "string"
        }
      ],
      "stateMutability": "view",
      "type": "function"
    },
    {
      "inputs": [
        {
          "internalType": "uint256",
          "name": "index",
          "type": "uint256"
        }
      ],
      "name": "tokenByIndex",
      "outputs": [
        {
          "internalType": "uint256",
          "name": "",
          "type": "uint256"
        }
      ],
      "stateMutability": "view",
      "type": "function"
    },
    {
      "inputs": [
        {
          "internalType": "address",
          "name": "owner",
          "type": "address"
        },
        {
          "internalType": "uint256",
          "name": "index",
          "type": "uint256"
        }
      ],
      "name": "tokenOfOwnerByIndex",
      "outputs": [
        {
          "internalType": "uint256",
          "name": "a",
          "type": "uint256"
        }
      ],
      "stateMutability": "view",
      "type": "function"
    },
    {
      "inputs": [
        {
          "internalType": "uint256",
          "name": "tokenId",
          "type": "uint256"
        }
      ],
      "name": "tokenURI",
      "outputs": [
        {
          "internalType": "string",
          "name": "",
          "type": "string"
        }
      ],
      "stateMutability": "view",
      "type": "function"
    },
    {
      "inputs": [],
      "name": "totalSupply",
      "outputs": [
        {
          "internalType": "uint256",
          "name": "",
          "type": "uint256"
        }
      ],
      "stateMutability": "view",
      "type": "function"
    },
    {
      "inputs": [
        {
          "internalType": "address",
          "name": "from",
          "type": "address"
        },
        {
          "internalType": "address",
          "name": "to",
          "type": "address"
        },
        {
          "internalType": "uint256",
          "name": "tokenId",
          "type": "uint256"
        }
      ],
      "name": "transferFrom",
      "outputs": [],
      "stateMutability": "nonpayable",
      "type": "function"
    },
    {
      "inputs": [
        {
          "internalType": "address",
          "name": "newOwner",
          "type": "address"
        }
      ],
      "name": "transferOwnership",
      "outputs": [],
      "stateMutability": "nonpayable",
      "type": "function"
    },
    {
      "inputs": [],
      "name": "withdraw",
      "outputs": [],
      "stateMutability": "nonpayable",
      "type": "function"
    }
  ],
  "bytecode": "0x608060405273c2c7d10b99bf936effd3cfdd4f5e5f6a6acddcd3600860006101000a81548173ffffffffffffffffffffffffffffffffffffffff021916908373ffffffffffffffffffffffffffffffffffffffff16021790555060006010556001601160006101000a81548160ff0219169083151502179055503480156200008657600080fd5b50620000a76200009b620000ad60201b60201c565b620000b560201b60201c565b6200017a565b600033905090565b60008060029054906101000a900473ffffffffffffffffffffffffffffffffffffffff16905081600060026101000a81548173ffffffffffffffffffffffffffffffffffffffff021916908373ffffffffffffffffffffffffffffffffffffffff1602179055508173ffffffffffffffffffffffffffffffffffffffff168173ffffffffffffffffffffffffffffffffffffffff167f8be0079c531659141344cd1fd0a4f28419497f9722a3daafe3b4186f6b6457e060405160405180910390a35050565b614108806200018a6000396000f3fe6080604052600436106102255760003560e01c80638da5cb5b11610123578063c87b56dd116100ab578063d5abeb011161006f578063d5abeb01146107e2578063e50058ef1461080d578063e985e9c514610836578063f2fde38b14610873578063fa62884c1461089c57610225565b8063c87b56dd146106fd578063cb9f530c1461073a578063cd3293de14610765578063d031370b14610790578063d29d44ee146107b957610225565b8063a035b1fe116100f2578063a035b1fe1461063b578063a0712d6814610666578063a22cb46514610682578063b88d4fde146106ab578063c4d66de8146106d457610225565b80638da5cb5b1461059357806391b7f5ed146105be57806395d89b41146105e75780639d38fd211461061257610225565b80633ccfd60b116101b15780636352211e116101755780636352211e146104ae5780636a44e173146104eb57806370a0823114610514578063715018a614610551578063780425df1461056857610225565b80633ccfd60b146103dd57806342842e0e146103f45780634a44f3791461041d5780634f6ccce71461044657806361bc221a1461048357610225565b806318160ddd116101f857806318160ddd146102f85780631a0d4bca14610323578063228025e81461034e57806323b872dd146103775780632f745c59146103a057610225565b806301ffc9a71461022a57806306fdde0314610267578063081812fc14610292578063095ea7b3146102cf575b600080fd5b34801561023657600080fd5b50610251600480360381019061024c919061337c565b6108b3565b60405161025e9190613810565b60405180910390f35b34801561027357600080fd5b5061027c6109fd565b604051610289919061382b565b60405180910390f35b34801561029e57600080fd5b506102b960048036038101906102b49190613515565b610a8f565b6040516102c691906137a9565b60405180910390f35b3480156102db57600080fd5b506102f660048036038101906102f1919061333c565b610b0b565b005b34801561030457600080fd5b5061030d610c16565b60405161031a919061396d565b60405180910390f35b34801561032f57600080fd5b50610338610c20565b604051610345919061382b565b60405180910390f35b34801561035a57600080fd5b5061037560048036038101906103709190613515565b610cae565b005b34801561038357600080fd5b5061039e60048036038101906103999190613226565b610d34565b005b3480156103ac57600080fd5b506103c760048036038101906103c2919061333c565b610d44565b6040516103d4919061396d565b60405180910390f35b3480156103e957600080fd5b506103f2610f05565b005b34801561040057600080fd5b5061041b60048036038101906104169190613226565b6110cf565b005b34801561042957600080fd5b50610444600480360381019061043f91906133d6565b6110ef565b005b34801561045257600080fd5b5061046d60048036038101906104689190613515565b611185565b60405161047a919061396d565b60405180910390f35b34801561048f57600080fd5b506104986111cf565b6040516104a5919061396d565b60405180910390f35b3480156104ba57600080fd5b506104d560048036038101906104d09190613515565b6111d5565b6040516104e291906137a9565b60405180910390f35b3480156104f757600080fd5b50610512600480360381019061050d9190613515565b6111eb565b005b34801561052057600080fd5b5061053b600480360381019061053691906131b9565b611271565b604051610548919061396d565b60405180910390f35b34801561055d57600080fd5b50610566611351565b005b34801561057457600080fd5b5061057d6113d9565b60405161058a919061396d565b60405180910390f35b34801561059f57600080fd5b506105a86113df565b6040516105b591906137a9565b60405180910390f35b3480156105ca57600080fd5b506105e560048036038101906105e09190613515565b611408565b005b3480156105f357600080fd5b506105fc61148e565b604051610609919061382b565b60405180910390f35b34801561061e57600080fd5b5061063960048036038101906106349190613515565b611520565b005b34801561064757600080fd5b506106506115a6565b60405161065d919061396d565b60405180910390f35b610680600480360381019061067b9190613515565b6115ac565b005b34801561068e57600080fd5b506106a960048036038101906106a491906132fc565b6116f4565b005b3480156106b757600080fd5b506106d260048036038101906106cd9190613279565b61186c565b005b3480156106e057600080fd5b506106fb60048036038101906106f691906131b9565b6118bf565b005b34801561070957600080fd5b50610724600480360381019061071f9190613515565b611acb565b604051610731919061382b565b60405180910390f35b34801561074657600080fd5b5061074f611b6a565b60405161075c9190613810565b60405180910390f35b34801561077157600080fd5b5061077a611b7d565b604051610787919061396d565b60405180910390f35b34801561079c57600080fd5b506107b760048036038101906107b29190613515565b611b83565b005b3480156107c557600080fd5b506107e060048036038101906107db91906131b9565b611c6a565b005b3480156107ee57600080fd5b506107f7611d2f565b604051610804919061396d565b60405180910390f35b34801561081957600080fd5b50610834600480360381019061082f919061341f565b611d35565b005b34801561084257600080fd5b5061085d600480360381019061085891906131e6565b611e01565b60405161086a9190613810565b60405180910390f35b34801561087f57600080fd5b5061089a600480360381019061089591906131b9565b611e95565b005b3480156108a857600080fd5b506108b1611f8d565b005b60007f80ac58cd000000000000000000000000000000000000000000000000000000007bffffffffffffffffffffffffffffffffffffffffffffffffffffffff1916827bffffffffffffffffffffffffffffffffffffffffffffffffffffffff1916148061097e57507f5b5e139f000000000000000000000000000000000000000000000000000000007bffffffffffffffffffffffffffffffffffffffffffffffffffffffff1916827bffffffffffffffffffffffffffffffffffffffffffffffffffffffff1916145b806109e657507f780e9d63000000000000000000000000000000000000000000000000000000007bffffffffffffffffffffffffffffffffffffffffffffffffffffffff1916827bffffffffffffffffffffffffffffffffffffffffffffffffffffffff1916145b806109f657506109f582612035565b5b9050919050565b606060098054610a0c90613c28565b80601f0160208091040260200160405190810160405280929190818152602001828054610a3890613c28565b8015610a855780601f10610a5a57610100808354040283529160200191610a85565b820191906000526020600020905b815481529060010190602001808311610a6857829003601f168201915b5050505050905090565b6000610a9a8261209f565b610ad0576040517fcf4700e400000000000000000000000000000000000000000000000000000000815260040160405180910390fd5b6006600083815260200190815260200160002060009054906101000a900473ffffffffffffffffffffffffffffffffffffffff169050919050565b6000610b16826111d5565b90508073ffffffffffffffffffffffffffffffffffffffff168373ffffffffffffffffffffffffffffffffffffffff161415610b7e576040517f943f7b8c00000000000000000000000000000000000000000000000000000000815260040160405180910390fd5b8073ffffffffffffffffffffffffffffffffffffffff16610b9d6120ad565b73ffffffffffffffffffffffffffffffffffffffff1614158015610bcf5750610bcd81610bc86120ad565b611e01565b155b15610c06576040517fcfb3b94200000000000000000000000000000000000000000000000000000000815260040160405180910390fd5b610c118383836120b5565b505050565b6000600154905090565b600b8054610c2d90613c28565b80601f0160208091040260200160405190810160405280929190818152602001828054610c5990613c28565b8015610ca65780601f10610c7b57610100808354040283529160200191610ca6565b820191906000526020600020905b815481529060010190602001808311610c8957829003601f168201915b505050505081565b610cb66120ad565b73ffffffffffffffffffffffffffffffffffffffff16610cd46113df565b73ffffffffffffffffffffffffffffffffffffffff1614610d2a576040517f08c379a0000000000000000000000000000000000000000000000000000000008152600401610d219061392d565b60405180910390fd5b80600c8190555050565b610d3f838383612167565b505050565b6000610d4f83611271565b8210610d87576040517f0ddac30e00000000000000000000000000000000000000000000000000000000815260040160405180910390fd5b6000610d91610c16565b905060008060005b83811015610eeb576000600460008381526020019081526020016000206040518060400160405290816000820160009054906101000a900473ffffffffffffffffffffffffffffffffffffffff1673ffffffffffffffffffffffffffffffffffffffff1673ffffffffffffffffffffffffffffffffffffffff1681526020016000820160149054906101000a900467ffffffffffffffff1667ffffffffffffffff1667ffffffffffffffff16815250509050600073ffffffffffffffffffffffffffffffffffffffff16816000015173ffffffffffffffffffffffffffffffffffffffff1614610e8b57806000015192505b8773ffffffffffffffffffffffffffffffffffffffff168373ffffffffffffffffffffffffffffffffffffffff161415610edd5786841415610ed4578195505050505050610eff565b83806001019450505b508080600101915050610d99565b506000610efb57610efa613d05565b5b5050505b92915050565b610f0d6120ad565b73ffffffffffffffffffffffffffffffffffffffff16610f2b6113df565b73ffffffffffffffffffffffffffffffffffffffff1614610f81576040517f08c379a0000000000000000000000000000000000000000000000000000000008152600401610f789061392d565b60405180910390fd5b600047905060006064600583610f979190613ae4565b610fa19190613ab3565b905060008183610fb19190613b3e565b90506000610fbd6113df565b73ffffffffffffffffffffffffffffffffffffffff1682604051610fe090613794565b60006040518083038185875af1925050503d806000811461101d576040519150601f19603f3d011682016040523d82523d6000602084013e611022565b606091505b505090506000600860009054906101000a900473ffffffffffffffffffffffffffffffffffffffff1673ffffffffffffffffffffffffffffffffffffffff168460405161106e90613794565b60006040518083038185875af1925050503d80600081146110ab576040519150601f19603f3d011682016040523d82523d6000602084013e6110b0565b606091505b50509050816110be57600080fd5b806110c857600080fd5b5050505050565b6110ea8383836040518060200160405280600081525061186c565b505050565b6110f76120ad565b73ffffffffffffffffffffffffffffffffffffffff166111156113df565b73ffffffffffffffffffffffffffffffffffffffff161461116b576040517f08c379a00000000000000000000000000000000000000000000000000000000081526004016111629061392d565b60405180910390fd5b80600b9080519060200190611181929190612f93565b5050565b600061118f610c16565b82106111c7576040517fa723001c00000000000000000000000000000000000000000000000000000000815260040160405180910390fd5b819050919050565b60105481565b60006111e08261267f565b600001519050919050565b6111f36120ad565b73ffffffffffffffffffffffffffffffffffffffff166112116113df565b73ffffffffffffffffffffffffffffffffffffffff1614611267576040517f08c379a000000000000000000000000000000000000000000000000000000000815260040161125e9061392d565b60405180910390fd5b80600d8190555050565b60008073ffffffffffffffffffffffffffffffffffffffff168273ffffffffffffffffffffffffffffffffffffffff1614156112d9576040517f8f4eb60400000000000000000000000000000000000000000000000000000000815260040160405180910390fd5b600560008373ffffffffffffffffffffffffffffffffffffffff1673ffffffffffffffffffffffffffffffffffffffff16815260200190815260200160002060000160009054906101000a90046fffffffffffffffffffffffffffffffff166fffffffffffffffffffffffffffffffff169050919050565b6113596120ad565b73ffffffffffffffffffffffffffffffffffffffff166113776113df565b73ffffffffffffffffffffffffffffffffffffffff16146113cd576040517f08c379a00000000000000000000000000000000000000000000000000000000081526004016113c49061392d565b60405180910390fd5b6113d76000611c6a565b565b600f5481565b60008060029054906101000a900473ffffffffffffffffffffffffffffffffffffffff16905090565b6114106120ad565b73ffffffffffffffffffffffffffffffffffffffff1661142e6113df565b73ffffffffffffffffffffffffffffffffffffffff1614611484576040517f08c379a000000000000000000000000000000000000000000000000000000000815260040161147b9061392d565b60405180910390fd5b80600e8190555050565b6060600a805461149d90613c28565b80601f01602080910402602001604051908101604052809291908181526020018280546114c990613c28565b80156115165780601f106114eb57610100808354040283529160200191611516565b820191906000526020600020905b8154815290600101906020018083116114f957829003601f168201915b5050505050905090565b6115286120ad565b73ffffffffffffffffffffffffffffffffffffffff166115466113df565b73ffffffffffffffffffffffffffffffffffffffff161461159c576040517f08c379a00000000000000000000000000000000000000000000000000000000081526004016115939061392d565b60405180910390fd5b80600f8190555050565b600e5481565b600081116115ef576040517f08c379a00000000000000000000000000000000000000000000000000000000081526004016115e69061384d565b60405180910390fd5b600f54811115611634576040517f08c379a000000000000000000000000000000000000000000000000000000000815260040161162b9061390d565b60405180910390fd5b600d54600c546116449190613b3e565b61164c610c16565b826116579190613a5d565b1115611698576040517f08c379a000000000000000000000000000000000000000000000000000000000815260040161168f906138ed565b60405180910390fd5b3481600e546116a79190613ae4565b146116e7576040517f08c379a00000000000000000000000000000000000000000000000000000000081526004016116de906138cd565b60405180910390fd5b6116f13382612807565b50565b6116fc6120ad565b73ffffffffffffffffffffffffffffffffffffffff168273ffffffffffffffffffffffffffffffffffffffff161415611761576040517fb06307db00000000000000000000000000000000000000000000000000000000815260040160405180910390fd5b806007600061176e6120ad565b73ffffffffffffffffffffffffffffffffffffffff1673ffffffffffffffffffffffffffffffffffffffff16815260200190815260200160002060008473ffffffffffffffffffffffffffffffffffffffff1673ffffffffffffffffffffffffffffffffffffffff16815260200190815260200160002060006101000a81548160ff0219169083151502179055508173ffffffffffffffffffffffffffffffffffffffff1661181b6120ad565b73ffffffffffffffffffffffffffffffffffffffff167f17307eab39ab6107e8899845ad3d59bd9653f200f220920489ca2b5937696c31836040516118609190613810565b60405180910390a35050565b611877848484612167565b61188384848484612ad7565b6118b9576040517fd1a57ed600000000000000000000000000000000000000000000000000000000815260040160405180910390fd5b50505050565b600060019054906101000a900460ff166118e75760008054906101000a900460ff16156118f0565b6118ef612c65565b5b61192f576040517f08c379a0000000000000000000000000000000000000000000000000000000008152600401611926906138ad565b60405180910390fd5b60008060019054906101000a900460ff16159050801561197f576001600060016101000a81548160ff02191690831515021790555060016000806101000a81548160ff0219169083151502179055505b611a9d6009805461198f90613c28565b80601f01602080910402602001604051908101604052809291908181526020018280546119bb90613c28565b8015611a085780601f106119dd57610100808354040283529160200191611a08565b820191906000526020600020905b8154815290600101906020018083116119eb57829003601f168201915b5050505050600a8054611a1a90613c28565b80601f0160208091040260200160405190810160405280929190818152602001828054611a4690613c28565b8015611a935780601f10611a6857610100808354040283529160200191611a93565b820191906000526020600020905b815481529060010190602001808311611a7657829003601f168201915b5050505050612c76565b611aa682611c6a565b8015611ac75760008060016101000a81548160ff0219169083151502179055505b5050565b6060611ad68261209f565b611b0c576040517fa14c4b5000000000000000000000000000000000000000000000000000000000815260040160405180910390fd5b6000611b16612cd3565b9050600081511415611b375760405180602001604052806000815250611b62565b80611b4184612d65565b604051602001611b52929190613770565b6040516020818303038152906040525b915050919050565b601160009054906101000a900460ff1681565b600d5481565b611b8b6120ad565b73ffffffffffffffffffffffffffffffffffffffff16611ba96113df565b73ffffffffffffffffffffffffffffffffffffffff1614611bff576040517f08c379a0000000000000000000000000000000000000000000000000000000008152600401611bf69061392d565b60405180910390fd5b600d54811115611c44576040517f08c379a0000000000000000000000000000000000000000000000000000000008152600401611c3b9061388d565b60405180910390fd5b80600d6000828254611c569190613b3e565b92505081905550611c673382612807565b50565b60008060029054906101000a900473ffffffffffffffffffffffffffffffffffffffff16905081600060026101000a81548173ffffffffffffffffffffffffffffffffffffffff021916908373ffffffffffffffffffffffffffffffffffffffff1602179055508173ffffffffffffffffffffffffffffffffffffffff168173ffffffffffffffffffffffffffffffffffffffff167f8be0079c531659141344cd1fd0a4f28419497f9722a3daafe3b4186f6b6457e060405160405180910390a35050565b600c5481565b600160105410611d7f57611d476113df565b73ffffffffffffffffffffffffffffffffffffffff163373ffffffffffffffffffffffffffffffffffffffff1614611d7e57600080fd5b5b8660099080519060200190611d95929190612f93565b5085600a9080519060200190611dac929190612f93565b5084600c8190555083600f8190555082600d8190555081600e8190555080600b9080519060200190611ddf929190612f93565b5060106000815480929190611df390613c8b565b919050555050505050505050565b6000600760008473ffffffffffffffffffffffffffffffffffffffff1673ffffffffffffffffffffffffffffffffffffffff16815260200190815260200160002060008373ffffffffffffffffffffffffffffffffffffffff1673ffffffffffffffffffffffffffffffffffffffff16815260200190815260200160002060009054906101000a900460ff16905092915050565b611e9d6120ad565b73ffffffffffffffffffffffffffffffffffffffff16611ebb6113df565b73ffffffffffffffffffffffffffffffffffffffff1614611f11576040517f08c379a0000000000000000000000000000000000000000000000000000000008152600401611f089061392d565b60405180910390fd5b600073ffffffffffffffffffffffffffffffffffffffff168173ffffffffffffffffffffffffffffffffffffffff161415611f81576040517f08c379a0000000000000000000000000000000000000000000000000000000008152600401611f789061386d565b60405180910390fd5b611f8a81611c6a565b50565b611f956120ad565b73ffffffffffffffffffffffffffffffffffffffff16611fb36113df565b73ffffffffffffffffffffffffffffffffffffffff1614612009576040517f08c379a00000000000000000000000000000000000000000000000000000000081526004016120009061392d565b60405180910390fd5b601160009054906101000a900460ff1615601160006101000a81548160ff021916908315150217905550565b60007f01ffc9a7000000000000000000000000000000000000000000000000000000007bffffffffffffffffffffffffffffffffffffffffffffffffffffffff1916827bffffffffffffffffffffffffffffffffffffffffffffffffffffffff1916149050919050565b600060015482109050919050565b600033905090565b826006600084815260200190815260200160002060006101000a81548173ffffffffffffffffffffffffffffffffffffffff021916908373ffffffffffffffffffffffffffffffffffffffff160217905550818373ffffffffffffffffffffffffffffffffffffffff168273ffffffffffffffffffffffffffffffffffffffff167f8c5be1e5ebec7d5bd14f71427d1e84f3dd0314c0f7b2291e5b200ac8c7c3b92560405160405180910390a4505050565b60006121728261267f565b90506000816000015173ffffffffffffffffffffffffffffffffffffffff166121996120ad565b73ffffffffffffffffffffffffffffffffffffffff1614806121f557506121be6120ad565b73ffffffffffffffffffffffffffffffffffffffff166121dd84610a8f565b73ffffffffffffffffffffffffffffffffffffffff16145b806122115750612210826000015161220b6120ad565b611e01565b5b90508061224a576040517f59c896be00000000000000000000000000000000000000000000000000000000815260040160405180910390fd5b8473ffffffffffffffffffffffffffffffffffffffff16826000015173ffffffffffffffffffffffffffffffffffffffff16146122b3576040517fa114810000000000000000000000000000000000000000000000000000000000815260040160405180910390fd5b600073ffffffffffffffffffffffffffffffffffffffff168473ffffffffffffffffffffffffffffffffffffffff16141561231a576040517fea553b3400000000000000000000000000000000000000000000000000000000815260040160405180910390fd5b61232a60008484600001516120b5565b6001600560008773ffffffffffffffffffffffffffffffffffffffff1673ffffffffffffffffffffffffffffffffffffffff16815260200190815260200160002060000160008282829054906101000a90046fffffffffffffffffffffffffffffffff160392506101000a8154816fffffffffffffffffffffffffffffffff02191690836fffffffffffffffffffffffffffffffff1602179055506001600560008673ffffffffffffffffffffffffffffffffffffffff1673ffffffffffffffffffffffffffffffffffffffff16815260200190815260200160002060000160008282829054906101000a90046fffffffffffffffffffffffffffffffff160192506101000a8154816fffffffffffffffffffffffffffffffff02191690836fffffffffffffffffffffffffffffffff160217905550836004600085815260200190815260200160002060000160006101000a81548173ffffffffffffffffffffffffffffffffffffffff021916908373ffffffffffffffffffffffffffffffffffffffff160217905550426004600085815260200190815260200160002060000160146101000a81548167ffffffffffffffff021916908367ffffffffffffffff1602179055506000600184019050600073ffffffffffffffffffffffffffffffffffffffff166004600083815260200190815260200160002060000160009054906101000a900473ffffffffffffffffffffffffffffffffffffffff1673ffffffffffffffffffffffffffffffffffffffff16141561260f5761256e8161209f565b1561260e5782600001516004600083815260200190815260200160002060000160006101000a81548173ffffffffffffffffffffffffffffffffffffffff021916908373ffffffffffffffffffffffffffffffffffffffff16021790555082602001516004600083815260200190815260200160002060000160146101000a81548167ffffffffffffffff021916908367ffffffffffffffff1602179055505b5b50828473ffffffffffffffffffffffffffffffffffffffff168673ffffffffffffffffffffffffffffffffffffffff167fddf252ad1be2c89b69c2b068fc378daa952ba7f163c4a11628f55a4df523b3ef60405160405180910390a46126788585856001612ec6565b5050505050565b612687613019565b6126908261209f565b6126c6576040517fdf2d9b4200000000000000000000000000000000000000000000000000000000815260040160405180910390fd5b60008290505b600081106127cf576000600460008381526020019081526020016000206040518060400160405290816000820160009054906101000a900473ffffffffffffffffffffffffffffffffffffffff1673ffffffffffffffffffffffffffffffffffffffff1673ffffffffffffffffffffffffffffffffffffffff1681526020016000820160149054906101000a900467ffffffffffffffff1667ffffffffffffffff1667ffffffffffffffff16815250509050600073ffffffffffffffffffffffffffffffffffffffff16816000015173ffffffffffffffffffffffffffffffffffffffff16146127c0578092505050612802565b508080600190039150506126cc565b506040517fe7c0edfb00000000000000000000000000000000000000000000000000000000815260040160405180910390fd5b919050565b60006001549050600073ffffffffffffffffffffffffffffffffffffffff168373ffffffffffffffffffffffffffffffffffffffff161415612875576040517f2e07630000000000000000000000000000000000000000000000000000000000815260040160405180910390fd5b81600560008573ffffffffffffffffffffffffffffffffffffffff1673ffffffffffffffffffffffffffffffffffffffff16815260200190815260200160002060000160008282829054906101000a90046fffffffffffffffffffffffffffffffff160192506101000a8154816fffffffffffffffffffffffffffffffff02191690836fffffffffffffffffffffffffffffffff16021790555081600560008573ffffffffffffffffffffffffffffffffffffffff1673ffffffffffffffffffffffffffffffffffffffff16815260200190815260200160002060000160108282829054906101000a90046fffffffffffffffffffffffffffffffff160192506101000a8154816fffffffffffffffffffffffffffffffff02191690836fffffffffffffffffffffffffffffffff160217905550826004600083815260200190815260200160002060000160006101000a81548173ffffffffffffffffffffffffffffffffffffffff021916908373ffffffffffffffffffffffffffffffffffffffff160217905550426004600083815260200190815260200160002060000160146101000a81548167ffffffffffffffff021916908367ffffffffffffffff160217905550600081905060005b83811015612abc57818573ffffffffffffffffffffffffffffffffffffffff16600073ffffffffffffffffffffffffffffffffffffffff167fddf252ad1be2c89b69c2b068fc378daa952ba7f163c4a11628f55a4df523b3ef60405160405180910390a481806001019250508080600101915050612a43565b508060018190555050612ad26000848385612ec6565b505050565b6000612af88473ffffffffffffffffffffffffffffffffffffffff16612ecc565b15612c58578373ffffffffffffffffffffffffffffffffffffffff1663150b7a02612b216120ad565b8786866040518563ffffffff1660e01b8152600401612b4394939291906137c4565b602060405180830381600087803b158015612b5d57600080fd5b505af1925050508015612b8e57506040513d601f19601f82011682018060405250810190612b8b91906133a9565b60015b612c08573d8060008114612bbe576040519150601f19603f3d011682016040523d82523d6000602084013e612bc3565b606091505b50600081511415612c00576040517fd1a57ed600000000000000000000000000000000000000000000000000000000815260040160405180910390fd5b805181602001fd5b63150b7a0260e01b7bffffffffffffffffffffffffffffffffffffffffffffffffffffffff1916817bffffffffffffffffffffffffffffffffffffffffffffffffffffffff191614915050612c5d565b600190505b949350505050565b6000612c7030612eef565b15905090565b600060019054906101000a900460ff16612cc5576040517f08c379a0000000000000000000000000000000000000000000000000000000008152600401612cbc9061394d565b60405180910390fd5b612ccf8282612f12565b5050565b6060600b8054612ce290613c28565b80601f0160208091040260200160405190810160405280929190818152602001828054612d0e90613c28565b8015612d5b5780601f10612d3057610100808354040283529160200191612d5b565b820191906000526020600020905b815481529060010190602001808311612d3e57829003601f168201915b5050505050905090565b60606000821415612dad576040518060400160405280600181526020017f30000000000000000000000000000000000000000000000000000000000000008152509050612ec1565b600082905060005b60008214612ddf578080612dc890613c8b565b915050600a82612dd89190613ab3565b9150612db5565b60008167ffffffffffffffff811115612dfb57612dfa613df0565b5b6040519080825280601f01601f191660200182016040528015612e2d5781602001600182028036833780820191505090505b5090505b60008514612eba57600182612e469190613b3e565b9150600a85612e559190613cd4565b6030612e619190613a5d565b60f81b818381518110612e7757612e76613dc1565b5b60200101907effffffffffffffffffffffffffffffffffffffffffffffffffffffffffffff1916908160001a905350600a85612eb39190613ab3565b9450612e31565b8093505050505b919050565b50505050565b6000808273ffffffffffffffffffffffffffffffffffffffff163b119050919050565b6000808273ffffffffffffffffffffffffffffffffffffffff163b119050919050565b600060019054906101000a900460ff16612f61576040517f08c379a0000000000000000000000000000000000000000000000000000000008152600401612f589061394d565b60405180910390fd5b8160029080519060200190612f77929190612f93565b508060039080519060200190612f8e929190612f93565b505050565b828054612f9f90613c28565b90600052602060002090601f016020900481019282612fc15760008555613008565b82601f10612fda57805160ff1916838001178555613008565b82800160010185558215613008579182015b82811115613007578251825591602001919060010190612fec565b5b5090506130159190613053565b5090565b6040518060400160405280600073ffffffffffffffffffffffffffffffffffffffff168152602001600067ffffffffffffffff1681525090565b5b8082111561306c576000816000905550600101613054565b5090565b600061308361307e846139ad565b613988565b90508281526020810184848401111561309f5761309e613e24565b5b6130aa848285613be6565b509392505050565b60006130c56130c0846139de565b613988565b9050828152602081018484840111156130e1576130e0613e24565b5b6130ec848285613be6565b509392505050565b60008135905061310381614076565b92915050565b6000813590506131188161408d565b92915050565b60008135905061312d816140a4565b92915050565b600081519050613142816140a4565b92915050565b600082601f83011261315d5761315c613e1f565b5b813561316d848260208601613070565b91505092915050565b600082601f83011261318b5761318a613e1f565b5b813561319b8482602086016130b2565b91505092915050565b6000813590506131b3816140bb565b92915050565b6000602082840312156131cf576131ce613e2e565b5b60006131dd848285016130f4565b91505092915050565b600080604083850312156131fd576131fc613e2e565b5b600061320b858286016130f4565b925050602061321c858286016130f4565b9150509250929050565b60008060006060848603121561323f5761323e613e2e565b5b600061324d868287016130f4565b935050602061325e868287016130f4565b925050604061326f868287016131a4565b9150509250925092565b6000806000806080858703121561329357613292613e2e565b5b60006132a1878288016130f4565b94505060206132b2878288016130f4565b93505060406132c3878288016131a4565b925050606085013567ffffffffffffffff8111156132e4576132e3613e29565b5b6132f087828801613148565b91505092959194509250565b6000806040838503121561331357613312613e2e565b5b6000613321858286016130f4565b925050602061333285828601613109565b9150509250929050565b6000806040838503121561335357613352613e2e565b5b6000613361858286016130f4565b9250506020613372858286016131a4565b9150509250929050565b60006020828403121561339257613391613e2e565b5b60006133a08482850161311e565b91505092915050565b6000602082840312156133bf576133be613e2e565b5b60006133cd84828501613133565b91505092915050565b6000602082840312156133ec576133eb613e2e565b5b600082013567ffffffffffffffff81111561340a57613409613e29565b5b61341684828501613176565b91505092915050565b600080600080600080600060e0888a03121561343e5761343d613e2e565b5b600088013567ffffffffffffffff81111561345c5761345b613e29565b5b6134688a828b01613176565b975050602088013567ffffffffffffffff81111561348957613488613e29565b5b6134958a828b01613176565b96505060406134a68a828b016131a4565b95505060606134b78a828b016131a4565b94505060806134c88a828b016131a4565b93505060a06134d98a828b016131a4565b92505060c088013567ffffffffffffffff8111156134fa576134f9613e29565b5b6135068a828b01613176565b91505092959891949750929550565b60006020828403121561352b5761352a613e2e565b5b6000613539848285016131a4565b91505092915050565b61354b81613b72565b82525050565b61355a81613b84565b82525050565b600061356b82613a0f565b6135758185613a25565b9350613585818560208601613bf5565b61358e81613e33565b840191505092915050565b60006135a482613a1a565b6135ae8185613a41565b93506135be818560208601613bf5565b6135c781613e33565b840191505092915050565b60006135dd82613a1a565b6135e78185613a52565b93506135f7818560208601613bf5565b80840191505092915050565b6000613610601083613a41565b915061361b82613e44565b602082019050919050565b6000613633602683613a41565b915061363e82613e6d565b604082019050919050565b6000613656602183613a41565b915061366182613ebc565b604082019050919050565b6000613679602e83613a41565b915061368482613f0b565b604082019050919050565b600061369c601d83613a41565b91506136a782613f5a565b602082019050919050565b60006136bf600f83613a41565b91506136ca82613f83565b602082019050919050565b60006136e2602183613a41565b91506136ed82613fac565b604082019050919050565b6000613705602083613a41565b915061371082613ffb565b602082019050919050565b6000613728600083613a36565b915061373382614024565b600082019050919050565b600061374b602b83613a41565b915061375682614027565b604082019050919050565b61376a81613bdc565b82525050565b600061377c82856135d2565b915061378882846135d2565b91508190509392505050565b600061379f8261371b565b9150819050919050565b60006020820190506137be6000830184613542565b92915050565b60006080820190506137d96000830187613542565b6137e66020830186613542565b6137f36040830185613761565b81810360608301526138058184613560565b905095945050505050565b60006020820190506138256000830184613551565b92915050565b600060208201905081810360008301526138458184613599565b905092915050565b6000602082019050818103600083015261386681613603565b9050919050565b6000602082019050818103600083015261388681613626565b9050919050565b600060208201905081810360008301526138a681613649565b9050919050565b600060208201905081810360008301526138c68161366c565b9050919050565b600060208201905081810360008301526138e68161368f565b9050919050565b60006020820190508181036000830152613906816136b2565b9050919050565b60006020820190508181036000830152613926816136d5565b9050919050565b60006020820190508181036000830152613946816136f8565b9050919050565b600060208201905081810360008301526139668161373e565b9050919050565b60006020820190506139826000830184613761565b92915050565b60006139926139a3565b905061399e8282613c5a565b919050565b6000604051905090565b600067ffffffffffffffff8211156139c8576139c7613df0565b5b6139d182613e33565b9050602081019050919050565b600067ffffffffffffffff8211156139f9576139f8613df0565b5b613a0282613e33565b9050602081019050919050565b600081519050919050565b600081519050919050565b600082825260208201905092915050565b600081905092915050565b600082825260208201905092915050565b600081905092915050565b6000613a6882613bdc565b9150613a7383613bdc565b9250827fffffffffffffffffffffffffffffffffffffffffffffffffffffffffffffffff03821115613aa857613aa7613d34565b5b828201905092915050565b6000613abe82613bdc565b9150613ac983613bdc565b925082613ad957613ad8613d63565b5b828204905092915050565b6000613aef82613bdc565b9150613afa83613bdc565b9250817fffffffffffffffffffffffffffffffffffffffffffffffffffffffffffffffff0483118215151615613b3357613b32613d34565b5b828202905092915050565b6000613b4982613bdc565b9150613b5483613bdc565b925082821015613b6757613b66613d34565b5b828203905092915050565b6000613b7d82613bbc565b9050919050565b60008115159050919050565b60007fffffffff0000000000000000000000000000000000000000000000000000000082169050919050565b600073ffffffffffffffffffffffffffffffffffffffff82169050919050565b6000819050919050565b82818337600083830152505050565b60005b83811015613c13578082015181840152602081019050613bf8565b83811115613c22576000848401525b50505050565b60006002820490506001821680613c4057607f821691505b60208210811415613c5457613c53613d92565b5b50919050565b613c6382613e33565b810181811067ffffffffffffffff82111715613c8257613c81613df0565b5b80604052505050565b6000613c9682613bdc565b91507fffffffffffffffffffffffffffffffffffffffffffffffffffffffffffffffff821415613cc957613cc8613d34565b5b600182019050919050565b6000613cdf82613bdc565b9150613cea83613bdc565b925082613cfa57613cf9613d63565b5b828206905092915050565b7f4e487b7100000000000000000000000000000000000000000000000000000000600052600160045260246000fd5b7f4e487b7100000000000000000000000000000000000000000000000000000000600052601160045260246000fd5b7f4e487b7100000000000000000000000000000000000000000000000000000000600052601260045260246000fd5b7f4e487b7100000000000000000000000000000000000000000000000000000000600052602260045260246000fd5b7f4e487b7100000000000000000000000000000000000000000000000000000000600052603260045260246000fd5b7f4e487b7100000000000000000000000000000000000000000000000000000000600052604160045260246000fd5b600080fd5b600080fd5b600080fd5b600080fd5b6000601f19601f8301169050919050565b7f7a65726f206e6f7420616c6c6f77656400000000000000000000000000000000600082015250565b7f4f776e61626c653a206e6577206f776e657220697320746865207a65726f206160008201527f6464726573730000000000000000000000000000000000000000000000000000602082015250565b7f546865207175616e74697479206578636565647320746865207265736572766560008201527f2e00000000000000000000000000000000000000000000000000000000000000602082015250565b7f496e697469616c697a61626c653a20636f6e747261637420697320616c72656160008201527f647920696e697469616c697a6564000000000000000000000000000000000000602082015250565b7f53656e742065746865722076616c756520697320696e636f7272656374000000600082015250565b7f7075626c69632073616c6520656e640000000000000000000000000000000000600082015250565b7f43686f73656e20416d6f756e742065786365656473204d61785175616e74697460008201527f7900000000000000000000000000000000000000000000000000000000000000602082015250565b7f4f776e61626c653a2063616c6c6572206973206e6f7420746865206f776e6572600082015250565b50565b7f496e697469616c697a61626c653a20636f6e7472616374206973206e6f74206960008201527f6e697469616c697a696e67000000000000000000000000000000000000000000602082015250565b61407f81613b72565b811461408a57600080fd5b50565b61409681613b84565b81146140a157600080fd5b50565b6140ad81613b90565b81146140b857600080fd5b50565b6140c481613bdc565b81146140cf57600080fd5b5056fea26469706673582212207094a40e9da85d367d0e8aa15b9ecdd5c5044c0c67e44a2acbabbcf22fd718f664736f6c63430008070033",
  "linkReferences": {},
  "deployedLinkReferences": {}
}