{
  "_format": "hh-sol-artifact-1",
  "contractName": "NCU_Launchpad",
  "sourceName": "contracts/ NCU_Launchpad.sol",
  "abi": [
    {
      "inputs": [],
      "stateMutability": "nonpayable",
      "type": "constructor"
    },
    {
      "anonymous": false,
      "inputs": [
        {
          "indexed": false,
          "internalType": "address",
          "name": "tokenAddress",
          "type": "address"
        }
      ],
      "name": "TokenDeployed",
      "type": "event"
    },
    {
      "inputs": [
        {
          "internalType": "address",
          "name": "",
          "type": "address"
        },
        {
          "internalType": "string",
          "name": "",
          "type": "string"
        }
      ],
      "name": "IPFSuser_data",
      "outputs": [
        {
          "internalType": "string",
          "name": "contractName",
          "type": "string"
        },
        {
          "internalType": "uint256",
          "name": "createdTime",
          "type": "uint256"
        },
        {
          "internalType": "address",
          "name": "user",
          "type": "address"
        },
        {
          "internalType": "uint256",
          "name": "price",
          "type": "uint256"
        }
      ],
      "stateMutability": "view",
      "type": "function"
    },
    {
      "inputs": [],
      "name": "NCUowner",
      "outputs": [
        {
          "internalType": "address",
          "name": "",
          "type": "address"
        }
      ],
      "stateMutability": "view",
      "type": "function"
    },
    {
      "inputs": [],
      "name": "PresalecontractCreated",
      "outputs": [
        {
          "internalType": "address",
          "name": "",
          "type": "address"
        }
      ],
      "stateMutability": "view",
      "type": "function"
    },
    {
      "inputs": [],
      "name": "PublicsalecontractCreated",
      "outputs": [
        {
          "internalType": "address",
          "name": "",
          "type": "address"
        }
      ],
      "stateMutability": "view",
      "type": "function"
    },
    {
      "inputs": [],
      "name": "RankingNFTTax",
      "outputs": [
        {
          "internalType": "uint256",
          "name": "",
          "type": "uint256"
        }
      ],
      "stateMutability": "view",
      "type": "function"
    },
    {
      "inputs": [
        {
          "internalType": "address",
          "name": "_newOwner",
          "type": "address"
        }
      ],
      "name": "_transferOwnership",
      "outputs": [],
      "stateMutability": "nonpayable",
      "type": "function"
    },
    {
      "inputs": [
        {
          "internalType": "string",
          "name": "_name",
          "type": "string"
        },
        {
          "internalType": "string",
          "name": "_symbol",
          "type": "string"
        },
        {
          "internalType": "uint256",
          "name": "_maxsupply",
          "type": "uint256"
        },
        {
          "internalType": "uint256",
          "name": "_preSaleSupply",
          "type": "uint256"
        },
        {
          "internalType": "uint256",
          "name": "_maxPerTrans",
          "type": "uint256"
        },
        {
          "internalType": "uint256",
          "name": "_reserve",
          "type": "uint256"
        },
        {
          "internalType": "uint256",
          "name": "_price",
          "type": "uint256"
        },
        {
          "internalType": "uint256",
          "name": "_presalePrice",
          "type": "uint256"
        },
        {
          "internalType": "string",
          "name": "_baseuri",
          "type": "string"
        },
        {
          "internalType": "uint256",
          "name": "_maxPerWallet",
          "type": "uint256"
        },
        {
          "internalType": "bytes32",
          "name": "_root",
          "type": "bytes32"
        }
      ],
      "name": "clonePresale",
      "outputs": [],
      "stateMutability": "payable",
      "type": "function"
    },
    {
      "inputs": [
        {
          "internalType": "string",
          "name": "_name",
          "type": "string"
        },
        {
          "internalType": "string",
          "name": "_symbol",
          "type": "string"
        },
        {
          "internalType": "uint256",
          "name": "_maxsupply",
          "type": "uint256"
        },
        {
          "internalType": "uint256",
          "name": "_maxPerTrans",
          "type": "uint256"
        },
        {
          "internalType": "uint256",
          "name": "_reserve",
          "type": "uint256"
        },
        {
          "internalType": "uint256",
          "name": "_price",
          "type": "uint256"
        },
        {
          "internalType": "string",
          "name": "_baseuri",
          "type": "string"
        }
      ],
      "name": "clonePublic",
      "outputs": [],
      "stateMutability": "payable",
      "type": "function"
    },
    {
      "inputs": [],
      "name": "contract_name",
      "outputs": [
        {
          "internalType": "string",
          "name": "",
          "type": "string"
        }
      ],
      "stateMutability": "view",
      "type": "function"
    },
    {
      "inputs": [
        {
          "internalType": "uint256",
          "name": "",
          "type": "uint256"
        }
      ],
      "name": "generationDataArray",
      "outputs": [
        {
          "internalType": "string",
          "name": "contractName",
          "type": "string"
        },
        {
          "internalType": "uint256",
          "name": "createdTime",
          "type": "uint256"
        },
        {
          "internalType": "address",
          "name": "user",
          "type": "address"
        },
        {
          "internalType": "uint256",
          "name": "price",
          "type": "uint256"
        }
      ],
      "stateMutability": "view",
      "type": "function"
    },
    {
      "inputs": [],
      "name": "generationTax",
      "outputs": [
        {
          "internalType": "uint256",
          "name": "",
          "type": "uint256"
        }
      ],
      "stateMutability": "view",
      "type": "function"
    },
    {
      "inputs": [
        {
          "internalType": "address",
          "name": "",
          "type": "address"
        },
        {
          "internalType": "string",
          "name": "",
          "type": "string"
        }
      ],
      "name": "generationUser_data",
      "outputs": [
        {
          "internalType": "string",
          "name": "contractName",
          "type": "string"
        },
        {
          "internalType": "uint256",
          "name": "createdTime",
          "type": "uint256"
        },
        {
          "internalType": "address",
          "name": "user",
          "type": "address"
        },
        {
          "internalType": "uint256",
          "name": "price",
          "type": "uint256"
        }
      ],
      "stateMutability": "view",
      "type": "function"
    },
    {
      "inputs": [
        {
          "internalType": "address",
          "name": "owner",
          "type": "address"
        }
      ],
      "name": "getCompleteDataOfGeneration",
      "outputs": [
        {
          "internalType": "string[]",
          "name": "_contractname",
          "type": "string[]"
        },
        {
          "internalType": "uint256[]",
          "name": "contract_time",
          "type": "uint256[]"
        },
        {
          "internalType": "uint256[]",
          "name": "price",
          "type": "uint256[]"
        },
        {
          "internalType": "address[]",
          "name": "contractOwner",
          "type": "address[]"
        }
      ],
      "stateMutability": "view",
      "type": "function"
    },
    {
      "inputs": [
        {
          "internalType": "address",
          "name": "owner",
          "type": "address"
        }
      ],
      "name": "getCompleteDataOfOwner",
      "outputs": [
        {
          "internalType": "address[]",
          "name": "contractAddresses",
          "type": "address[]"
        },
        {
          "internalType": "string[]",
          "name": "_contractname",
          "type": "string[]"
        },
        {
          "internalType": "uint256[]",
          "name": "contract_time",
          "type": "uint256[]"
        },
        {
          "internalType": "uint256[]",
          "name": "price",
          "type": "uint256[]"
        },
        {
          "internalType": "uint256[]",
          "name": "contractID",
          "type": "uint256[]"
        },
        {
          "internalType": "address[]",
          "name": "contractOwner",
          "type": "address[]"
        }
      ],
      "stateMutability": "view",
      "type": "function"
    },
    {
      "inputs": [
        {
          "internalType": "address",
          "name": "owner",
          "type": "address"
        }
      ],
      "name": "getCompleteDataOfipfs",
      "outputs": [
        {
          "internalType": "string[]",
          "name": "_contractname",
          "type": "string[]"
        },
        {
          "internalType": "uint256[]",
          "name": "contract_time",
          "type": "uint256[]"
        },
        {
          "internalType": "uint256[]",
          "name": "price",
          "type": "uint256[]"
        },
        {
          "internalType": "address[]",
          "name": "contractOwner",
          "type": "address[]"
        }
      ],
      "stateMutability": "view",
      "type": "function"
    },
    {
      "inputs": [
        {
          "internalType": "address",
          "name": "owner",
          "type": "address"
        }
      ],
      "name": "getCompleteDataOfrankingNFT",
      "outputs": [
        {
          "internalType": "string[]",
          "name": "_contractname",
          "type": "string[]"
        },
        {
          "internalType": "uint256[]",
          "name": "contract_time",
          "type": "uint256[]"
        },
        {
          "internalType": "uint256[]",
          "name": "price",
          "type": "uint256[]"
        },
        {
          "internalType": "address[]",
          "name": "contractOwner",
          "type": "address[]"
        }
      ],
      "stateMutability": "view",
      "type": "function"
    },
    {
      "inputs": [
        {
          "internalType": "uint256",
          "name": "",
          "type": "uint256"
        }
      ],
      "name": "ipfsDataArray",
      "outputs": [
        {
          "internalType": "string",
          "name": "contractName",
          "type": "string"
        },
        {
          "internalType": "uint256",
          "name": "createdTime",
          "type": "uint256"
        },
        {
          "internalType": "address",
          "name": "user",
          "type": "address"
        },
        {
          "internalType": "uint256",
          "name": "price",
          "type": "uint256"
        }
      ],
      "stateMutability": "view",
      "type": "function"
    },
    {
      "inputs": [
        {
          "internalType": "string",
          "name": "price",
          "type": "string"
        }
      ],
      "name": "payment",
      "outputs": [
        {
          "internalType": "bool",
          "name": "",
          "type": "bool"
        }
      ],
      "stateMutability": "payable",
      "type": "function"
    },
    {
      "inputs": [],
      "name": "presalecontractTax",
      "outputs": [
        {
          "internalType": "uint256",
          "name": "",
          "type": "uint256"
        }
      ],
      "stateMutability": "view",
      "type": "function"
    },
    {
      "inputs": [],
      "name": "publiccontractTax",
      "outputs": [
        {
          "internalType": "uint256",
          "name": "",
          "type": "uint256"
        }
      ],
      "stateMutability": "view",
      "type": "function"
    },
    {
      "inputs": [
        {
          "internalType": "uint256",
          "name": "",
          "type": "uint256"
        }
      ],
      "name": "rankingNFTDataArray",
      "outputs": [
        {
          "internalType": "string",
          "name": "contractName",
          "type": "string"
        },
        {
          "internalType": "uint256",
          "name": "createdTime",
          "type": "uint256"
        },
        {
          "internalType": "address",
          "name": "user",
          "type": "address"
        },
        {
          "internalType": "uint256",
          "name": "price",
          "type": "uint256"
        }
      ],
      "stateMutability": "view",
      "type": "function"
    },
    {
      "inputs": [
        {
          "internalType": "address",
          "name": "",
          "type": "address"
        },
        {
          "internalType": "string",
          "name": "",
          "type": "string"
        }
      ],
      "name": "rankingUser_data",
      "outputs": [
        {
          "internalType": "string",
          "name": "contractName",
          "type": "string"
        },
        {
          "internalType": "uint256",
          "name": "createdTime",
          "type": "uint256"
        },
        {
          "internalType": "address",
          "name": "user",
          "type": "address"
        },
        {
          "internalType": "uint256",
          "name": "price",
          "type": "uint256"
        }
      ],
      "stateMutability": "view",
      "type": "function"
    },
    {
      "inputs": [
        {
          "internalType": "uint256",
          "name": "a",
          "type": "uint256"
        }
      ],
      "name": "setRankingNFTTax",
      "outputs": [],
      "stateMutability": "nonpayable",
      "type": "function"
    },
    {
      "inputs": [
        {
          "internalType": "uint256",
          "name": "a",
          "type": "uint256"
        }
      ],
      "name": "setgenerationTax",
      "outputs": [],
      "stateMutability": "nonpayable",
      "type": "function"
    },
    {
      "inputs": [
        {
          "internalType": "uint256",
          "name": "a",
          "type": "uint256"
        }
      ],
      "name": "setpresalecontractTax",
      "outputs": [],
      "stateMutability": "nonpayable",
      "type": "function"
    },
    {
      "inputs": [
        {
          "internalType": "uint256",
          "name": "a",
          "type": "uint256"
        }
      ],
      "name": "setpubliccontractTax",
      "outputs": [],
      "stateMutability": "nonpayable",
      "type": "function"
    },
    {
      "inputs": [
        {
          "internalType": "uint256",
          "name": "a",
          "type": "uint256"
        }
      ],
      "name": "setuploadIPFStax",
      "outputs": [],
      "stateMutability": "nonpayable",
      "type": "function"
    },
    {
      "inputs": [
        {
          "internalType": "address payable",
          "name": "a",
          "type": "address"
        }
      ],
      "name": "setwallet",
      "outputs": [],
      "stateMutability": "nonpayable",
      "type": "function"
    },
    {
      "inputs": [],
      "name": "tokenImplementation",
      "outputs": [
        {
          "internalType": "address",
          "name": "",
          "type": "address"
        }
      ],
      "stateMutability": "view",
      "type": "function"
    },
    {
      "inputs": [],
      "name": "tokenImplementation1",
      "outputs": [
        {
          "internalType": "address",
          "name": "",
          "type": "address"
        }
      ],
      "stateMutability": "view",
      "type": "function"
    },
    {
      "inputs": [],
      "name": "uploadIPFStax",
      "outputs": [
        {
          "internalType": "uint256",
          "name": "",
          "type": "uint256"
        }
      ],
      "stateMutability": "view",
      "type": "function"
    },
    {
      "inputs": [
        {
          "internalType": "uint256",
          "name": "",
          "type": "uint256"
        }
      ],
      "name": "userDataArray",
      "outputs": [
        {
          "internalType": "address",
          "name": "contractOwner",
          "type": "address"
        },
        {
          "internalType": "address",
          "name": "contractAddress",
          "type": "address"
        },
        {
          "internalType": "string",
          "name": "contractName",
          "type": "string"
        },
        {
          "internalType": "uint256",
          "name": "createdTime",
          "type": "uint256"
        },
        {
          "internalType": "uint256",
          "name": "contractId",
          "type": "uint256"
        },
        {
          "internalType": "uint256",
          "name": "price",
          "type": "uint256"
        }
      ],
      "stateMutability": "view",
      "type": "function"
    },
    {
      "inputs": [
        {
          "internalType": "address",
          "name": "",
          "type": "address"
        },
        {
          "internalType": "string",
          "name": "",
          "type": "string"
        }
      ],
      "name": "user_data",
      "outputs": [
        {
          "internalType": "address",
          "name": "contractOwner",
          "type": "address"
        },
        {
          "internalType": "address",
          "name": "contractAddress",
          "type": "address"
        },
        {
          "internalType": "string",
          "name": "contractName",
          "type": "string"
        },
        {
          "internalType": "uint256",
          "name": "createdTime",
          "type": "uint256"
        },
        {
          "internalType": "uint256",
          "name": "contractId",
          "type": "uint256"
        },
        {
          "internalType": "uint256",
          "name": "price",
          "type": "uint256"
        }
      ],
      "stateMutability": "view",
      "type": "function"
    },
    {
      "inputs": [],
      "name": "wallet",
      "outputs": [
        {
          "internalType": "address payable",
          "name": "",
          "type": "address"
        }
      ],
      "stateMutability": "view",
      "type": "function"
    }
  ],
  "bytecode": "0x608060405273c2c7d10b99bf936effd3cfdd4f5e5f6a6acddcd36000806101000a81548173ffffffffffffffffffffffffffffffffffffffff021916908373ffffffffffffffffffffffffffffffffffffffff160217905550671bc16d674ec80000600755671bc16d674ec80000600855671bc16d674ec80000600955671bc16d674ec80000600a55671bc16d674ec80000600b556001600c55348015620000a657600080fd5b50604051620000b59062000214565b604051809103906000f080158015620000d2573d6000803e3d6000fd5b50600260006101000a81548173ffffffffffffffffffffffffffffffffffffffff021916908373ffffffffffffffffffffffffffffffffffffffff160217905550604051620001219062000222565b604051809103906000f0801580156200013e573d6000803e3d6000fd5b50600360006101000a81548173ffffffffffffffffffffffffffffffffffffffff021916908373ffffffffffffffffffffffffffffffffffffffff1602179055506040518060400160405280600f81526020017f636c6f6e696e6720666163746f7279000000000000000000000000000000000081525060019080519060200190620001cc92919062000230565b5033600460006101000a81548173ffffffffffffffffffffffffffffffffffffffff021916908373ffffffffffffffffffffffffffffffffffffffff16021790555062000345565b6151308062005a5583390190565b614292806200ab8583390190565b8280546200023e90620002e0565b90600052602060002090601f016020900481019282620002625760008555620002ae565b82601f106200027d57805160ff1916838001178555620002ae565b82800160010185558215620002ae579182015b82811115620002ad57825182559160200191906001019062000290565b5b509050620002bd9190620002c1565b5090565b5b80821115620002dc576000816000905550600101620002c2565b5090565b60006002820490506001821680620002f957607f821691505b6020821081141562000310576200030f62000316565b5b50919050565b7f4e487b7100000000000000000000000000000000000000000000000000000000600052602260045260246000fd5b61570080620003556000396000f3fe6080604052600436106101f95760003560e01c8063882203571161010d578063d9479692116100a0578063e7787d2b1161006f578063e7787d2b1461079b578063e87ec84b146107db578063eaf3888414610806578063eeb7f9ef14610848578063f30c5cc914610873576101f9565b8063d9479692146106c3578063e1bb2c89146106ee578063e4ad343814610719578063e4c3537b1461075b576101f9565b8063bac88ed2116100dc578063bac88ed214610606578063c31754fe1461062f578063d29d44ee14610658578063d52b8be914610681576101f9565b80638822035714610557578063a872c89e14610580578063aaa06e37146105ab578063af6fd4a7146105d6576101f9565b80634a9b205e116101905780636454f43b1161015f5780636454f43b146104435780636a7429ba146104835780636c6574cf146104c35780636f06bd87146104ec5780637d14ce8b14610517576101f9565b80634a9b205e1461039b578063521eb273146103c6578063599792f3146103f15780635f6e36e21461041a576101f9565b8063299e0ee1116101cc578063299e0ee1146102e95780632f3a3d5d146103295780633147b02314610354578063429bcbe314610370576101f9565b8063181e648a146101fe5780631bc253d41461023e5780632652476e1461026957806327fab148146102a9575b600080fd5b34801561020a57600080fd5b50610225600480360381019061022091906145cd565b61088f565b6040516102359493929190615054565b60405180910390f35b34801561024a57600080fd5b5061025361098a565b6040516102609190615120565b60405180910390f35b34801561027557600080fd5b50610290600480360381019061028b91906148b0565b610990565b6040516102a09493929190615054565b60405180910390f35b3480156102b557600080fd5b506102d060048036038101906102cb9190614573565b610a78565b6040516102e09493929190614e42565b60405180910390f35b3480156102f557600080fd5b50610310600480360381019061030b9190614573565b610e85565b6040516103209493929190614e42565b60405180910390f35b34801561033557600080fd5b5061033e611292565b60405161034b9190614d19565b60405180910390f35b61036e60048036038101906103699190614672565b6112b8565b005b34801561037c57600080fd5b506103856117be565b6040516103929190615120565b60405180910390f35b3480156103a757600080fd5b506103b06117c4565b6040516103bd9190614d19565b60405180910390f35b3480156103d257600080fd5b506103db6117ea565b6040516103e89190614d34565b60405180910390f35b3480156103fd57600080fd5b50610418600480360381019061041391906148b0565b61180e565b005b34801561042657600080fd5b50610441600480360381019061043c91906145a0565b6118a8565b005b34801561044f57600080fd5b5061046a600480360381019061046591906145cd565b61197b565b60405161047a9493929190615054565b60405180910390f35b34801561048f57600080fd5b506104aa60048036038101906104a591906148b0565b611a76565b6040516104ba9493929190615054565b60405180910390f35b3480156104cf57600080fd5b506104ea60048036038101906104e591906148b0565b611b5e565b005b3480156104f857600080fd5b50610501611bf8565b60405161050e9190615120565b60405180910390f35b34801561052357600080fd5b5061053e600480360381019061053991906148b0565b611bfe565b60405161054e9493929190615054565b60405180910390f35b34801561056357600080fd5b5061057e600480360381019061057991906148b0565b611ce6565b005b34801561058c57600080fd5b50610595611d80565b6040516105a29190614d19565b60405180910390f35b3480156105b757600080fd5b506105c0611da6565b6040516105cd9190614d19565b60405180910390f35b6105f060048036038101906105eb9190614629565b611dcc565b6040516105fd9190614ea3565b60405180910390f35b34801561061257600080fd5b5061062d600480360381019061062891906148b0565b612aa3565b005b34801561063b57600080fd5b50610656600480360381019061065191906148b0565b612b3d565b005b34801561066457600080fd5b5061067f600480360381019061067a9190614573565b612bd7565b005b34801561068d57600080fd5b506106a860048036038101906106a391906148b0565b612cab565b6040516106ba96959493929190614d4f565b60405180910390f35b3480156106cf57600080fd5b506106d8612dbf565b6040516106e59190614ebe565b60405180910390f35b3480156106fa57600080fd5b50610703612e4d565b6040516107109190614d19565b60405180910390f35b34801561072557600080fd5b50610740600480360381019061073b91906145cd565b612e73565b60405161075296959493929190614d4f565b60405180910390f35b34801561076757600080fd5b50610782600480360381019061077d91906145cd565b612f9a565b6040516107929493929190615054565b60405180910390f35b3480156107a757600080fd5b506107c260048036038101906107bd9190614573565b613095565b6040516107d29493929190614e42565b60405180910390f35b3480156107e757600080fd5b506107f06134a2565b6040516107fd9190615120565b60405180910390f35b34801561081257600080fd5b5061082d60048036038101906108289190614573565b6134a8565b60405161083f96959493929190614db7565b60405180910390f35b34801561085457600080fd5b5061085d613a44565b60405161086a9190615120565b60405180910390f35b61088d60048036038101906108889190614768565b613a4a565b005b601360205281600052604060002081805160208101820180518482526020830160208501208183528095505050505050600091509150508060000180546108d590615370565b80601f016020809104026020016040519081016040528092919081815260200182805461090190615370565b801561094e5780601f106109235761010080835404028352916020019161094e565b820191906000526020600020905b81548152906001019060200180831161093157829003601f168201915b5050505050908060010154908060020160009054906101000a900473ffffffffffffffffffffffffffffffffffffffff16908060030154905084565b60095481565b600e81815481106109a057600080fd5b90600052602060002090600402016000915090508060000180546109c390615370565b80601f01602080910402602001604051908101604052809291908181526020018280546109ef90615370565b8015610a3c5780601f10610a1157610100808354040283529160200191610a3c565b820191906000526020600020905b815481529060010190602001808311610a1f57829003601f168201915b5050505050908060010154908060020160009054906101000a900473ffffffffffffffffffffffffffffffffffffffff16908060030154905084565b606080606080600080610a8a87613f9b565b67ffffffffffffffff811115610aa357610aa26154a9565b5b604051908082528060200260200182016040528015610ad657816020015b6060815260200190600190039081610ac15790505b5090506000610ae488613f9b565b67ffffffffffffffff811115610afd57610afc6154a9565b5b604051908082528060200260200182016040528015610b2b5781602001602082028036833780820191505090505b5090506000610b3989613f9b565b67ffffffffffffffff811115610b5257610b516154a9565b5b604051908082528060200260200182016040528015610b805781602001602082028036833780820191505090505b5090506000610b8e8a613f9b565b67ffffffffffffffff811115610ba757610ba66154a9565b5b604051908082528060200260200182016040528015610bd55781602001602082028036833780820191505090505b50905060005b601080549050811015610e6c578a73ffffffffffffffffffffffffffffffffffffffff1660108281548110610c1357610c1261547a565b5b906000526020600020906004020160020160009054906101000a900473ffffffffffffffffffffffffffffffffffffffff1673ffffffffffffffffffffffffffffffffffffffff161415610e595760108181548110610c7557610c7461547a565b5b90600052602060002090600402016000018054610c9190615370565b80601f0160208091040260200160405190810160405280929190818152602001828054610cbd90615370565b8015610d0a5780601f10610cdf57610100808354040283529160200191610d0a565b820191906000526020600020905b815481529060010190602001808311610ced57829003601f168201915b5050505050858781518110610d2257610d2161547a565b5b602002602001018190525060108181548110610d4157610d4061547a565b5b906000526020600020906004020160010154848781518110610d6657610d6561547a565b5b60200260200101818152505060108181548110610d8657610d8561547a565b5b906000526020600020906004020160030154838781518110610dab57610daa61547a565b5b60200260200101818152505060108181548110610dcb57610dca61547a565b5b906000526020600020906004020160020160009054906101000a900473ffffffffffffffffffffffffffffffffffffffff16828781518110610e1057610e0f61547a565b5b602002602001019073ffffffffffffffffffffffffffffffffffffffff16908173ffffffffffffffffffffffffffffffffffffffff16815250508580610e55906153d3565b9650505b8080610e64906153d3565b915050610bdb565b5083838383985098509850985050505050509193509193565b606080606080600080610e9787614058565b67ffffffffffffffff811115610eb057610eaf6154a9565b5b604051908082528060200260200182016040528015610ee357816020015b6060815260200190600190039081610ece5790505b5090506000610ef188614058565b67ffffffffffffffff811115610f0a57610f096154a9565b5b604051908082528060200260200182016040528015610f385781602001602082028036833780820191505090505b5090506000610f4689614058565b67ffffffffffffffff811115610f5f57610f5e6154a9565b5b604051908082528060200260200182016040528015610f8d5781602001602082028036833780820191505090505b5090506000610f9b8a614058565b67ffffffffffffffff811115610fb457610fb36154a9565b5b604051908082528060200260200182016040528015610fe25781602001602082028036833780820191505090505b50905060005b600e80549050811015611279578a73ffffffffffffffffffffffffffffffffffffffff16600e82815481106110205761101f61547a565b5b906000526020600020906004020160020160009054906101000a900473ffffffffffffffffffffffffffffffffffffffff1673ffffffffffffffffffffffffffffffffffffffff16141561126657600e81815481106110825761108161547a565b5b9060005260206000209060040201600001805461109e90615370565b80601f01602080910402602001604051908101604052809291908181526020018280546110ca90615370565b80156111175780601f106110ec57610100808354040283529160200191611117565b820191906000526020600020905b8154815290600101906020018083116110fa57829003601f168201915b505050505085878151811061112f5761112e61547a565b5b6020026020010181905250600e818154811061114e5761114d61547a565b5b9060005260206000209060040201600101548487815181106111735761117261547a565b5b602002602001018181525050600e81815481106111935761119261547a565b5b9060005260206000209060040201600301548387815181106111b8576111b761547a565b5b602002602001018181525050600e81815481106111d8576111d761547a565b5b906000526020600020906004020160020160009054906101000a900473ffffffffffffffffffffffffffffffffffffffff1682878151811061121d5761121c61547a565b5b602002602001019073ffffffffffffffffffffffffffffffffffffffff16908173ffffffffffffffffffffffffffffffffffffffff16815250508580611262906153d3565b9650505b8080611271906153d3565b915050610fe8565b5083838383985098509850985050505050509193509193565b600260009054906101000a900473ffffffffffffffffffffffffffffffffffffffff1681565b6112f66040518060400160405280600b81526020017f636c6f6e657075626c6963000000000000000000000000000000000000000000815250611dcc565b611335576040517f08c379a000000000000000000000000000000000000000000000000000000000815260040161132c90615100565b60405180910390fd5b6000611362600360009054906101000a900473ffffffffffffffffffffffffffffffffffffffff16614115565b90508073ffffffffffffffffffffffffffffffffffffffff1663e50058ef898989898989896040518863ffffffff1660e01b81526004016113a99796959493929190614f10565b600060405180830381600087803b1580156113c357600080fd5b505af11580156113d7573d6000803e3d6000fd5b505050508073ffffffffffffffffffffffffffffffffffffffff1663c4d66de8336040518263ffffffff1660e01b81526004016114149190614d19565b600060405180830381600087803b15801561142e57600080fd5b505af1158015611442573d6000803e3d6000fd5b505050506040518060c001604052803373ffffffffffffffffffffffffffffffffffffffff1681526020018273ffffffffffffffffffffffffffffffffffffffff168152602001898152602001428152602001600c548152602001600854815250601160003373ffffffffffffffffffffffffffffffffffffffff1673ffffffffffffffffffffffffffffffffffffffff168152602001908152602001600020896040516114f09190614c99565b908152602001604051809103902060008201518160000160006101000a81548173ffffffffffffffffffffffffffffffffffffffff021916908373ffffffffffffffffffffffffffffffffffffffff16021790555060208201518160010160006101000a81548173ffffffffffffffffffffffffffffffffffffffff021916908373ffffffffffffffffffffffffffffffffffffffff16021790555060408201518160020190805190602001906115a892919061436c565b50606082015181600301556080820151816004015560a082015181600501559050506115d26143f2565b33816000019073ffffffffffffffffffffffffffffffffffffffff16908173ffffffffffffffffffffffffffffffffffffffff168152505081816020019073ffffffffffffffffffffffffffffffffffffffff16908173ffffffffffffffffffffffffffffffffffffffff168152505088816040018190525042816060018181525050600c548160800181815250506008548160a0018181525050600d81908060018154018082558091505060019003906000526020600020906006020160009091909190915060008201518160000160006101000a81548173ffffffffffffffffffffffffffffffffffffffff021916908373ffffffffffffffffffffffffffffffffffffffff16021790555060208201518160010160006101000a81548173ffffffffffffffffffffffffffffffffffffffff021916908373ffffffffffffffffffffffffffffffffffffffff160217905550604082015181600201908051906020019061174392919061436c565b50606082015181600301556080820151816004015560a0820151816005015550507f91d24864a084ab70b268a1f865e757ca12006cf298d763b6be697302ef86498c826040516117939190614d19565b60405180910390a1600c60008154809291906117ae906153d3565b9190505550505050505050505050565b60075481565b600560009054906101000a900473ffffffffffffffffffffffffffffffffffffffff1681565b60008054906101000a900473ffffffffffffffffffffffffffffffffffffffff1681565b3373ffffffffffffffffffffffffffffffffffffffff16600460009054906101000a900473ffffffffffffffffffffffffffffffffffffffff1673ffffffffffffffffffffffffffffffffffffffff161461189e576040517f08c379a0000000000000000000000000000000000000000000000000000000008152600401611895906150e0565b60405180910390fd5b80600b8190555050565b3373ffffffffffffffffffffffffffffffffffffffff16600460009054906101000a900473ffffffffffffffffffffffffffffffffffffffff1673ffffffffffffffffffffffffffffffffffffffff1614611938576040517f08c379a000000000000000000000000000000000000000000000000000000000815260040161192f90615100565b60405180910390fd5b806000806101000a81548173ffffffffffffffffffffffffffffffffffffffff021916908373ffffffffffffffffffffffffffffffffffffffff16021790555050565b601460205281600052604060002081805160208101820180518482526020830160208501208183528095505050505050600091509150508060000180546119c190615370565b80601f01602080910402602001604051908101604052809291908181526020018280546119ed90615370565b8015611a3a5780601f10611a0f57610100808354040283529160200191611a3a565b820191906000526020600020905b815481529060010190602001808311611a1d57829003601f168201915b5050505050908060010154908060020160009054906101000a900473ffffffffffffffffffffffffffffffffffffffff16908060030154905084565b600f8181548110611a8657600080fd5b9060005260206000209060040201600091509050806000018054611aa990615370565b80601f0160208091040260200160405190810160405280929190818152602001828054611ad590615370565b8015611b225780601f10611af757610100808354040283529160200191611b22565b820191906000526020600020905b815481529060010190602001808311611b0557829003601f168201915b5050505050908060010154908060020160009054906101000a900473ffffffffffffffffffffffffffffffffffffffff16908060030154905084565b3373ffffffffffffffffffffffffffffffffffffffff16600460009054906101000a900473ffffffffffffffffffffffffffffffffffffffff1673ffffffffffffffffffffffffffffffffffffffff1614611bee576040517f08c379a0000000000000000000000000000000000000000000000000000000008152600401611be5906150e0565b60405180910390fd5b80600a8190555050565b60085481565b60108181548110611c0e57600080fd5b9060005260206000209060040201600091509050806000018054611c3190615370565b80601f0160208091040260200160405190810160405280929190818152602001828054611c5d90615370565b8015611caa5780601f10611c7f57610100808354040283529160200191611caa565b820191906000526020600020905b815481529060010190602001808311611c8d57829003601f168201915b5050505050908060010154908060020160009054906101000a900473ffffffffffffffffffffffffffffffffffffffff16908060030154905084565b3373ffffffffffffffffffffffffffffffffffffffff16600460009054906101000a900473ffffffffffffffffffffffffffffffffffffffff1673ffffffffffffffffffffffffffffffffffffffff1614611d76576040517f08c379a0000000000000000000000000000000000000000000000000000000008152600401611d6d906150e0565b60405180910390fd5b8060088190555050565b600460009054906101000a900473ffffffffffffffffffffffffffffffffffffffff1681565b600660009054906101000a900473ffffffffffffffffffffffffffffffffffffffff1681565b6000604051602001611ddd90614cb0565b6040516020818303038152906040528051906020012082604051602001611e049190614c99565b604051602081830303815290604052805190602001201415611ed4573460075414611e64576040517f08c379a0000000000000000000000000000000000000000000000000000000008152600401611e5b906150c0565b60405180910390fd5b60008054906101000a900473ffffffffffffffffffffffffffffffffffffffff1673ffffffffffffffffffffffffffffffffffffffff166108fc349081150290604051600060405180830381858888f19350505050158015611eca573d6000803e3d6000fd5b5060019050612a9e565b604051602001611ee390614d04565b6040516020818303038152906040528051906020012082604051602001611f0a9190614c99565b604051602081830303815290604052805190602001201415611fda573460085414611f6a576040517f08c379a0000000000000000000000000000000000000000000000000000000008152600401611f61906150c0565b60405180910390fd5b60008054906101000a900473ffffffffffffffffffffffffffffffffffffffff1673ffffffffffffffffffffffffffffffffffffffff166108fc349081150290604051600060405180830381858888f19350505050158015611fd0573d6000803e3d6000fd5b5060019050612a9e565b604051602001611fe990614cc5565b60405160208183030381529060405280519060200120826040516020016120109190614c99565b60405160208183030381529060405280519060200120141561235d573460095414612070576040517f08c379a0000000000000000000000000000000000000000000000000000000008152600401612067906150c0565b60405180910390fd5b60008054906101000a900473ffffffffffffffffffffffffffffffffffffffff1673ffffffffffffffffffffffffffffffffffffffff166108fc349081150290604051600060405180830381858888f193505050501580156120d6573d6000803e3d6000fd5b5060405180608001604052806040518060400160405280600a81526020017f67656e65726174696f6e0000000000000000000000000000000000000000000081525081526020014281526020013373ffffffffffffffffffffffffffffffffffffffff168152602001600954815250601260003373ffffffffffffffffffffffffffffffffffffffff1673ffffffffffffffffffffffffffffffffffffffff16815260200190815260200160002060405161219090614cc5565b908152602001604051809103902060008201518160000190805190602001906121ba92919061436c565b506020820151816001015560408201518160020160006101000a81548173ffffffffffffffffffffffffffffffffffffffff021916908373ffffffffffffffffffffffffffffffffffffffff16021790555060608201518160030155905050612221614454565b6040518060400160405280600a81526020017f67656e65726174696f6e0000000000000000000000000000000000000000000081525081600001819052504281602001818152505033816040019073ffffffffffffffffffffffffffffffffffffffff16908173ffffffffffffffffffffffffffffffffffffffff1681525050600954816060018181525050600e81908060018154018082558091505060019003906000526020600020906004020160009091909190915060008201518160000190805190602001906122f592919061436c565b506020820151816001015560408201518160020160006101000a81548173ffffffffffffffffffffffffffffffffffffffff021916908373ffffffffffffffffffffffffffffffffffffffff1602179055506060820151816003015550506001915050612a9e565b60405160200161236c90614cef565b60405160208183030381529060405280519060200120826040516020016123939190614c99565b6040516020818303038152906040528051906020012014156126e05734600a54146123f3576040517f08c379a00000000000000000000000000000000000000000000000000000000081526004016123ea906150c0565b60405180910390fd5b60008054906101000a900473ffffffffffffffffffffffffffffffffffffffff1673ffffffffffffffffffffffffffffffffffffffff166108fc349081150290604051600060405180830381858888f19350505050158015612459573d6000803e3d6000fd5b5060405180608001604052806040518060400160405280600a81526020017f72616e6b696e674e46540000000000000000000000000000000000000000000081525081526020014281526020013373ffffffffffffffffffffffffffffffffffffffff168152602001600a54815250601460003373ffffffffffffffffffffffffffffffffffffffff1673ffffffffffffffffffffffffffffffffffffffff16815260200190815260200160002060405161251390614cc5565b9081526020016040518091039020600082015181600001908051906020019061253d92919061436c565b506020820151816001015560408201518160020160006101000a81548173ffffffffffffffffffffffffffffffffffffffff021916908373ffffffffffffffffffffffffffffffffffffffff160217905550606082015181600301559050506125a4614454565b6040518060400160405280600a81526020017f72616e6b696e674e46540000000000000000000000000000000000000000000081525081600001819052504281602001818152505033816040019073ffffffffffffffffffffffffffffffffffffffff16908173ffffffffffffffffffffffffffffffffffffffff1681525050600a548160600181815250506010819080600181540180825580915050600190039060005260206000209060040201600090919091909150600082015181600001908051906020019061267892919061436c565b506020820151816001015560408201518160020160006101000a81548173ffffffffffffffffffffffffffffffffffffffff021916908373ffffffffffffffffffffffffffffffffffffffff1602179055506060820151816003015550506001915050612a9e565b6040516020016126ef90614cda565b60405160208183030381529060405280519060200120826040516020016127169190614c99565b604051602081830303815290604052805190602001201415612a635734600b5414612776576040517f08c379a000000000000000000000000000000000000000000000000000000000815260040161276d906150c0565b60405180910390fd5b60008054906101000a900473ffffffffffffffffffffffffffffffffffffffff1673ffffffffffffffffffffffffffffffffffffffff166108fc349081150290604051600060405180830381858888f193505050501580156127dc573d6000803e3d6000fd5b5060405180608001604052806040518060400160405280600a81526020017f75706c6f6164697066730000000000000000000000000000000000000000000081525081526020014281526020013373ffffffffffffffffffffffffffffffffffffffff168152602001600b54815250601360003373ffffffffffffffffffffffffffffffffffffffff1673ffffffffffffffffffffffffffffffffffffffff16815260200190815260200160002060405161289690614cda565b908152602001604051809103902060008201518160000190805190602001906128c092919061436c565b506020820151816001015560408201518160020160006101000a81548173ffffffffffffffffffffffffffffffffffffffff021916908373ffffffffffffffffffffffffffffffffffffffff16021790555060608201518160030155905050612927614454565b6040518060400160405280600a81526020017f75706c6f6164697066730000000000000000000000000000000000000000000081525081600001819052504281602001818152505033816040019073ffffffffffffffffffffffffffffffffffffffff16908173ffffffffffffffffffffffffffffffffffffffff1681525050600b54816060018181525050600f81908060018154018082558091505060019003906000526020600020906004020160009091909190915060008201518160000190805190602001906129fb92919061436c565b506020820151816001015560408201518160020160006101000a81548173ffffffffffffffffffffffffffffffffffffffff021916908373ffffffffffffffffffffffffffffffffffffffff1602179055506060820151816003015550506001915050612a9e565b6040517f08c379a0000000000000000000000000000000000000000000000000000000008152600401612a9590615100565b60405180910390fd5b919050565b3373ffffffffffffffffffffffffffffffffffffffff16600460009054906101000a900473ffffffffffffffffffffffffffffffffffffffff1673ffffffffffffffffffffffffffffffffffffffff1614612b33576040517f08c379a0000000000000000000000000000000000000000000000000000000008152600401612b2a906150e0565b60405180910390fd5b8060078190555050565b3373ffffffffffffffffffffffffffffffffffffffff16600460009054906101000a900473ffffffffffffffffffffffffffffffffffffffff1673ffffffffffffffffffffffffffffffffffffffff1614612bcd576040517f08c379a0000000000000000000000000000000000000000000000000000000008152600401612bc4906150e0565b60405180910390fd5b8060098190555050565b3373ffffffffffffffffffffffffffffffffffffffff16600460009054906101000a900473ffffffffffffffffffffffffffffffffffffffff1673ffffffffffffffffffffffffffffffffffffffff1614612c67576040517f08c379a0000000000000000000000000000000000000000000000000000000008152600401612c5e90615100565b60405180910390fd5b80600460006101000a81548173ffffffffffffffffffffffffffffffffffffffff021916908373ffffffffffffffffffffffffffffffffffffffff16021790555050565b600d8181548110612cbb57600080fd5b90600052602060002090600602016000915090508060000160009054906101000a900473ffffffffffffffffffffffffffffffffffffffff16908060010160009054906101000a900473ffffffffffffffffffffffffffffffffffffffff1690806002018054612d2a90615370565b80601f0160208091040260200160405190810160405280929190818152602001828054612d5690615370565b8015612da35780601f10612d7857610100808354040283529160200191612da3565b820191906000526020600020905b815481529060010190602001808311612d8657829003601f168201915b5050505050908060030154908060040154908060050154905086565b60018054612dcc90615370565b80601f0160208091040260200160405190810160405280929190818152602001828054612df890615370565b8015612e455780601f10612e1a57610100808354040283529160200191612e45565b820191906000526020600020905b815481529060010190602001808311612e2857829003601f168201915b505050505081565b600360009054906101000a900473ffffffffffffffffffffffffffffffffffffffff1681565b601160205281600052604060002081805160208101820180518482526020830160208501208183528095505050505050600091509150508060000160009054906101000a900473ffffffffffffffffffffffffffffffffffffffff16908060010160009054906101000a900473ffffffffffffffffffffffffffffffffffffffff1690806002018054612f0590615370565b80601f0160208091040260200160405190810160405280929190818152602001828054612f3190615370565b8015612f7e5780601f10612f5357610100808354040283529160200191612f7e565b820191906000526020600020905b815481529060010190602001808311612f6157829003601f168201915b5050505050908060030154908060040154908060050154905086565b60126020528160005260406000208180516020810182018051848252602083016020850120818352809550505050505060009150915050806000018054612fe090615370565b80601f016020809104026020016040519081016040528092919081815260200182805461300c90615370565b80156130595780601f1061302e57610100808354040283529160200191613059565b820191906000526020600020905b81548152906001019060200180831161303c57829003601f168201915b5050505050908060010154908060020160009054906101000a900473ffffffffffffffffffffffffffffffffffffffff16908060030154905084565b6060806060806000806130a787614058565b67ffffffffffffffff8111156130c0576130bf6154a9565b5b6040519080825280602002602001820160405280156130f357816020015b60608152602001906001900390816130de5790505b509050600061310188614058565b67ffffffffffffffff81111561311a576131196154a9565b5b6040519080825280602002602001820160405280156131485781602001602082028036833780820191505090505b509050600061315689614058565b67ffffffffffffffff81111561316f5761316e6154a9565b5b60405190808252806020026020018201604052801561319d5781602001602082028036833780820191505090505b50905060006131ab8a614058565b67ffffffffffffffff8111156131c4576131c36154a9565b5b6040519080825280602002602001820160405280156131f25781602001602082028036833780820191505090505b50905060005b600f80549050811015613489578a73ffffffffffffffffffffffffffffffffffffffff16600f82815481106132305761322f61547a565b5b906000526020600020906004020160020160009054906101000a900473ffffffffffffffffffffffffffffffffffffffff1673ffffffffffffffffffffffffffffffffffffffff16141561347657600f81815481106132925761329161547a565b5b906000526020600020906004020160000180546132ae90615370565b80601f01602080910402602001604051908101604052809291908181526020018280546132da90615370565b80156133275780601f106132fc57610100808354040283529160200191613327565b820191906000526020600020905b81548152906001019060200180831161330a57829003601f168201915b505050505085878151811061333f5761333e61547a565b5b6020026020010181905250600f818154811061335e5761335d61547a565b5b9060005260206000209060040201600101548487815181106133835761338261547a565b5b602002602001018181525050600f81815481106133a3576133a261547a565b5b9060005260206000209060040201600301548387815181106133c8576133c761547a565b5b602002602001018181525050600f81815481106133e8576133e761547a565b5b906000526020600020906004020160020160009054906101000a900473ffffffffffffffffffffffffffffffffffffffff1682878151811061342d5761342c61547a565b5b602002602001019073ffffffffffffffffffffffffffffffffffffffff16908173ffffffffffffffffffffffffffffffffffffffff16815250508580613472906153d3565b9650505b8080613481906153d3565b9150506131f8565b5083838383985098509850985050505050509193509193565b600a5481565b6060806060806060806000806134bd896141ea565b67ffffffffffffffff8111156134d6576134d56154a9565b5b6040519080825280602002602001820160405280156135045781602001602082028036833780820191505090505b50905060006135128a6141ea565b67ffffffffffffffff81111561352b5761352a6154a9565b5b6040519080825280602002602001820160405280156135595781602001602082028036833780820191505090505b50905060006135678b6141ea565b67ffffffffffffffff8111156135805761357f6154a9565b5b6040519080825280602002602001820160405280156135b357816020015b606081526020019060019003908161359e5790505b50905060006135c18c6141ea565b67ffffffffffffffff8111156135da576135d96154a9565b5b6040519080825280602002602001820160405280156136085781602001602082028036833780820191505090505b50905060006136168d6141ea565b67ffffffffffffffff81111561362f5761362e6154a9565b5b60405190808252806020026020018201604052801561365d5781602001602082028036833780820191505090505b509050600061366b8e6141ea565b67ffffffffffffffff811115613684576136836154a9565b5b6040519080825280602002602001820160405280156136b25781602001602082028036833780820191505090505b50905060005b600d80549050811015613a21578e73ffffffffffffffffffffffffffffffffffffffff16600d82815481106136f0576136ef61547a565b5b906000526020600020906006020160000160009054906101000a900473ffffffffffffffffffffffffffffffffffffffff1673ffffffffffffffffffffffffffffffffffffffff161415613a0e57600d81815481106137525761375161547a565b5b906000526020600020906006020160010160009054906101000a900473ffffffffffffffffffffffffffffffffffffffff168689815181106137975761379661547a565b5b602002602001019073ffffffffffffffffffffffffffffffffffffffff16908173ffffffffffffffffffffffffffffffffffffffff1681525050600d81815481106137e5576137e461547a565b5b9060005260206000209060060201600201805461380190615370565b80601f016020809104026020016040519081016040528092919081815260200182805461382d90615370565b801561387a5780601f1061384f5761010080835404028352916020019161387a565b820191906000526020600020905b81548152906001019060200180831161385d57829003601f168201915b50505050508589815181106138925761389161547a565b5b6020026020010181905250600d81815481106138b1576138b061547a565b5b9060005260206000209060060201600301548489815181106138d6576138d561547a565b5b602002602001018181525050600d81815481106138f6576138f561547a565b5b90600052602060002090600602016005015483898151811061391b5761391a61547a565b5b602002602001018181525050600d818154811061393b5761393a61547a565b5b9060005260206000209060060201600401548289815181106139605761395f61547a565b5b602002602001018181525050600d81815481106139805761397f61547a565b5b906000526020600020906006020160000160009054906101000a900473ffffffffffffffffffffffffffffffffffffffff168789815181106139c5576139c461547a565b5b602002602001019073ffffffffffffffffffffffffffffffffffffffff16908173ffffffffffffffffffffffffffffffffffffffff16815250508780613a0a906153d3565b9850505b8080613a19906153d3565b9150506136b8565b5084848484848a9c509c509c509c509c509c505050505050505091939550919395565b600b5481565b613a886040518060400160405280600c81526020017f636c6f6e6570726573616c650000000000000000000000000000000000000000815250611dcc565b613ac7576040517f08c379a0000000000000000000000000000000000000000000000000000000008152600401613abe90615100565b60405180910390fd5b6000613af4600260009054906101000a900473ffffffffffffffffffffffffffffffffffffffff16614115565b90508073ffffffffffffffffffffffffffffffffffffffff1663e9e3cdc98d8d8d8d8d8d8d8d8d8d8d6040518c63ffffffff1660e01b8152600401613b439b9a99989796959493929190614f94565b600060405180830381600087803b158015613b5d57600080fd5b505af1158015613b71573d6000803e3d6000fd5b505050508073ffffffffffffffffffffffffffffffffffffffff1663c4d66de8336040518263ffffffff1660e01b8152600401613bae9190614d19565b600060405180830381600087803b158015613bc857600080fd5b505af1158015613bdc573d6000803e3d6000fd5b505050506040518060c001604052803373ffffffffffffffffffffffffffffffffffffffff1681526020018273ffffffffffffffffffffffffffffffffffffffff1681526020018d8152602001428152602001600c548152602001600754815250601160003373ffffffffffffffffffffffffffffffffffffffff1673ffffffffffffffffffffffffffffffffffffffff1681526020019081526020016000208d604051613c8a9190614c99565b908152602001604051809103902060008201518160000160006101000a81548173ffffffffffffffffffffffffffffffffffffffff021916908373ffffffffffffffffffffffffffffffffffffffff16021790555060208201518160010160006101000a81548173ffffffffffffffffffffffffffffffffffffffff021916908373ffffffffffffffffffffffffffffffffffffffff1602179055506040820151816002019080519060200190613d4292919061436c565b50606082015181600301556080820151816004015560a08201518160050155905050613d6c6143f2565b33816000019073ffffffffffffffffffffffffffffffffffffffff16908173ffffffffffffffffffffffffffffffffffffffff168152505081816020019073ffffffffffffffffffffffffffffffffffffffff16908173ffffffffffffffffffffffffffffffffffffffff16815250508c816040018190525042816060018181525050600c548160800181815250506007548160a0018181525050600d81908060018154018082558091505060019003906000526020600020906006020160009091909190915060008201518160000160006101000a81548173ffffffffffffffffffffffffffffffffffffffff021916908373ffffffffffffffffffffffffffffffffffffffff16021790555060208201518160010160006101000a81548173ffffffffffffffffffffffffffffffffffffffff021916908373ffffffffffffffffffffffffffffffffffffffff1602179055506040820151816002019080519060200190613edd92919061436c565b50606082015181600301556080820151816004015560a0820151816005015550507f91d24864a084ab70b268a1f865e757ca12006cf298d763b6be697302ef86498c82604051613f2d9190614d19565b60405180910390a1600c6000815480929190613f48906153d3565b9190505550613f8c6040518060400160405280601881526020017f2a2a2a2a776f726b696e6720746f6b656e202a2a2a2a2a2a0000000000000000815250836142a7565b50505050505050505050505050565b6000806000905060005b60108054905081101561404e578373ffffffffffffffffffffffffffffffffffffffff1660108281548110613fdd57613fdc61547a565b5b906000526020600020906004020160020160009054906101000a900473ffffffffffffffffffffffffffffffffffffffff1673ffffffffffffffffffffffffffffffffffffffff16141561403b576001826140389190615274565b91505b8080614046906153d3565b915050613fa5565b5080915050919050565b6000806000905060005b600e8054905081101561410b578373ffffffffffffffffffffffffffffffffffffffff16600e828154811061409a5761409961547a565b5b906000526020600020906004020160020160009054906101000a900473ffffffffffffffffffffffffffffffffffffffff1673ffffffffffffffffffffffffffffffffffffffff1614156140f8576001826140f59190615274565b91505b8080614103906153d3565b915050614062565b5080915050919050565b60006040517f3d602d80600a3d3981f3363d3d373d3d3d363d7300000000000000000000000081528260601b60148201527f5af43d82803e903d91602b57fd5bf3000000000000000000000000000000000060288201526037816000f0915050600073ffffffffffffffffffffffffffffffffffffffff168173ffffffffffffffffffffffffffffffffffffffff1614156141e5576040517f08c379a00000000000000000000000000000000000000000000000000000000081526004016141dc906150a0565b60405180910390fd5b919050565b6000806000905060005b600d8054905081101561429d578373ffffffffffffffffffffffffffffffffffffffff16600d828154811061422c5761422b61547a565b5b906000526020600020906006020160000160009054906101000a900473ffffffffffffffffffffffffffffffffffffffff1673ffffffffffffffffffffffffffffffffffffffff16141561428a576001826142879190615274565b91505b8080614295906153d3565b9150506141f4565b5080915050919050565b61433f82826040516024016142bd929190614ee0565b6040516020818303038152906040527f319af333000000000000000000000000000000000000000000000000000000007bffffffffffffffffffffffffffffffffffffffffffffffffffffffff19166020820180517bffffffffffffffffffffffffffffffffffffffffffffffffffffffff8381831617835250505050614343565b5050565b60008151905060006a636f6e736f6c652e6c6f679050602083016000808483855afa5050505050565b82805461437890615370565b90600052602060002090601f01602090048101928261439a57600085556143e1565b82601f106143b357805160ff19168380011785556143e1565b828001600101855582156143e1579182015b828111156143e05782518255916020019190600101906143c5565b5b5090506143ee9190614492565b5090565b6040518060c00160405280600073ffffffffffffffffffffffffffffffffffffffff168152602001600073ffffffffffffffffffffffffffffffffffffffff168152602001606081526020016000815260200160008152602001600081525090565b60405180608001604052806060815260200160008152602001600073ffffffffffffffffffffffffffffffffffffffff168152602001600081525090565b5b808211156144ab576000816000905550600101614493565b5090565b60006144c26144bd84615160565b61513b565b9050828152602081018484840111156144de576144dd6154dd565b5b6144e984828561532e565b509392505050565b6000813590506145008161566e565b92915050565b60008135905061451581615685565b92915050565b60008135905061452a8161569c565b92915050565b600082601f830112614545576145446154d8565b5b81356145558482602086016144af565b91505092915050565b60008135905061456d816156b3565b92915050565b600060208284031215614589576145886154e7565b5b6000614597848285016144f1565b91505092915050565b6000602082840312156145b6576145b56154e7565b5b60006145c484828501614506565b91505092915050565b600080604083850312156145e4576145e36154e7565b5b60006145f2858286016144f1565b925050602083013567ffffffffffffffff811115614613576146126154e2565b5b61461f85828601614530565b9150509250929050565b60006020828403121561463f5761463e6154e7565b5b600082013567ffffffffffffffff81111561465d5761465c6154e2565b5b61466984828501614530565b91505092915050565b600080600080600080600060e0888a031215614691576146906154e7565b5b600088013567ffffffffffffffff8111156146af576146ae6154e2565b5b6146bb8a828b01614530565b975050602088013567ffffffffffffffff8111156146dc576146db6154e2565b5b6146e88a828b01614530565b96505060406146f98a828b0161455e565b955050606061470a8a828b0161455e565b945050608061471b8a828b0161455e565b93505060a061472c8a828b0161455e565b92505060c088013567ffffffffffffffff81111561474d5761474c6154e2565b5b6147598a828b01614530565b91505092959891949750929550565b60008060008060008060008060008060006101608c8e03121561478e5761478d6154e7565b5b60008c013567ffffffffffffffff8111156147ac576147ab6154e2565b5b6147b88e828f01614530565b9b505060208c013567ffffffffffffffff8111156147d9576147d86154e2565b5b6147e58e828f01614530565b9a505060406147f68e828f0161455e565b99505060606148078e828f0161455e565b98505060806148188e828f0161455e565b97505060a06148298e828f0161455e565b96505060c061483a8e828f0161455e565b95505060e061484b8e828f0161455e565b9450506101008c013567ffffffffffffffff81111561486d5761486c6154e2565b5b6148798e828f01614530565b93505061012061488b8e828f0161455e565b92505061014061489d8e828f0161451b565b9150509295989b509295989b9093969950565b6000602082840312156148c6576148c56154e7565b5b60006148d48482850161455e565b91505092915050565b60006148e98383614930565b60208301905092915050565b60006149018383614a9d565b905092915050565b60006149158383614c7b565b60208301905092915050565b61492a816152dc565b82525050565b614939816152ca565b82525050565b614948816152ca565b82525050565b6000614959826151c1565b6149638185615214565b935061496e83615191565b8060005b8381101561499f57815161498688826148dd565b9750614991836151ed565b925050600181019050614972565b5085935050505092915050565b60006149b7826151cc565b6149c18185615225565b9350836020820285016149d3856151a1565b8060005b85811015614a0f57848403895281516149f085826148f5565b94506149fb836151fa565b925060208a019950506001810190506149d7565b50829750879550505050505092915050565b6000614a2c826151d7565b614a368185615236565b9350614a41836151b1565b8060005b83811015614a72578151614a598882614909565b9750614a6483615207565b925050600181019050614a45565b5085935050505092915050565b614a88816152ee565b82525050565b614a97816152fa565b82525050565b6000614aa8826151e2565b614ab28185615247565b9350614ac281856020860161533d565b614acb816154ec565b840191505092915050565b6000614ae1826151e2565b614aeb8185615258565b9350614afb81856020860161533d565b614b04816154ec565b840191505092915050565b6000614b1a826151e2565b614b248185615269565b9350614b3481856020860161533d565b80840191505092915050565b6000614b4d600c83615269565b9150614b58826154fd565b600c82019050919050565b6000614b70600a83615269565b9150614b7b82615526565b600a82019050919050565b6000614b93600a83615269565b9150614b9e8261554f565b600a82019050919050565b6000614bb6601683615258565b9150614bc182615578565b602082019050919050565b6000614bd9601883615258565b9150614be4826155a1565b602082019050919050565b6000614bfc600a83615258565b9150614c07826155ca565b602082019050919050565b6000614c1f600b83615269565b9150614c2a826155f3565b600b82019050919050565b6000614c42600b83615269565b9150614c4d8261561c565b600b82019050919050565b6000614c65600883615258565b9150614c7082615645565b602082019050919050565b614c8481615324565b82525050565b614c9381615324565b82525050565b6000614ca58284614b0f565b915081905092915050565b6000614cbb82614b40565b9150819050919050565b6000614cd082614b63565b9150819050919050565b6000614ce582614b86565b9150819050919050565b6000614cfa82614c12565b9150819050919050565b6000614d0f82614c35565b9150819050919050565b6000602082019050614d2e600083018461493f565b92915050565b6000602082019050614d496000830184614921565b92915050565b600060c082019050614d64600083018961493f565b614d71602083018861493f565b8181036040830152614d838187614ad6565b9050614d926060830186614c8a565b614d9f6080830185614c8a565b614dac60a0830184614c8a565b979650505050505050565b600060c0820190508181036000830152614dd1818961494e565b90508181036020830152614de581886149ac565b90508181036040830152614df98187614a21565b90508181036060830152614e0d8186614a21565b90508181036080830152614e218185614a21565b905081810360a0830152614e35818461494e565b9050979650505050505050565b60006080820190508181036000830152614e5c81876149ac565b90508181036020830152614e708186614a21565b90508181036040830152614e848185614a21565b90508181036060830152614e98818461494e565b905095945050505050565b6000602082019050614eb86000830184614a7f565b92915050565b60006020820190508181036000830152614ed88184614ad6565b905092915050565b60006040820190508181036000830152614efa8185614ad6565b9050614f09602083018461493f565b9392505050565b600060e0820190508181036000830152614f2a818a614ad6565b90508181036020830152614f3e8189614ad6565b9050614f4d6040830188614c8a565b614f5a6060830187614c8a565b614f676080830186614c8a565b614f7460a0830185614c8a565b81810360c0830152614f868184614ad6565b905098975050505050505050565b6000610160820190508181036000830152614faf818e614ad6565b90508181036020830152614fc3818d614ad6565b9050614fd2604083018c614c8a565b614fdf606083018b614c8a565b614fec608083018a614c8a565b614ff960a0830189614c8a565b61500660c0830188614c8a565b61501360e0830187614c8a565b8181036101008301526150268186614ad6565b9050615036610120830185614c8a565b615044610140830184614a8e565b9c9b505050505050505050505050565b6000608082019050818103600083015261506e8187614ad6565b905061507d6020830186614c8a565b61508a604083018561493f565b6150976060830184614c8a565b95945050505050565b600060208201905081810360008301526150b981614ba9565b9050919050565b600060208201905081810360008301526150d981614bcc565b9050919050565b600060208201905081810360008301526150f981614bef565b9050919050565b6000602082019050818103600083015261511981614c58565b9050919050565b60006020820190506151356000830184614c8a565b92915050565b6000615145615156565b905061515182826153a2565b919050565b6000604051905090565b600067ffffffffffffffff82111561517b5761517a6154a9565b5b615184826154ec565b9050602081019050919050565b6000819050602082019050919050565b6000819050602082019050919050565b6000819050602082019050919050565b600081519050919050565b600081519050919050565b600081519050919050565b600081519050919050565b6000602082019050919050565b6000602082019050919050565b6000602082019050919050565b600082825260208201905092915050565b600082825260208201905092915050565b600082825260208201905092915050565b600082825260208201905092915050565b600082825260208201905092915050565b600081905092915050565b600061527f82615324565b915061528a83615324565b9250827fffffffffffffffffffffffffffffffffffffffffffffffffffffffffffffffff038211156152bf576152be61541c565b5b828201905092915050565b60006152d582615304565b9050919050565b60006152e782615304565b9050919050565b60008115159050919050565b6000819050919050565b600073ffffffffffffffffffffffffffffffffffffffff82169050919050565b6000819050919050565b82818337600083830152505050565b60005b8381101561535b578082015181840152602081019050615340565b8381111561536a576000848401525b50505050565b6000600282049050600182168061538857607f821691505b6020821081141561539c5761539b61544b565b5b50919050565b6153ab826154ec565b810181811067ffffffffffffffff821117156153ca576153c96154a9565b5b80604052505050565b60006153de82615324565b91507fffffffffffffffffffffffffffffffffffffffffffffffffffffffffffffffff8214156154115761541061541c565b5b600182019050919050565b7f4e487b7100000000000000000000000000000000000000000000000000000000600052601160045260246000fd5b7f4e487b7100000000000000000000000000000000000000000000000000000000600052602260045260246000fd5b7f4e487b7100000000000000000000000000000000000000000000000000000000600052603260045260246000fd5b7f4e487b7100000000000000000000000000000000000000000000000000000000600052604160045260246000fd5b600080fd5b600080fd5b600080fd5b600080fd5b6000601f19601f8301169050919050565b7f636c6f6e6570726573616c650000000000000000000000000000000000000000600082015250565b7f67656e65726174696f6e00000000000000000000000000000000000000000000600082015250565b7f75706c6f61646970667300000000000000000000000000000000000000000000600082015250565b7f455243313136373a20637265617465206661696c656400000000000000000000600082015250565b7f656e74657220616d6f756e74206e6f7420636f72726563740000000000000000600082015250565b7f6f6e6c79206f776e657200000000000000000000000000000000000000000000600082015250565b7f72616e6b696e674e465473000000000000000000000000000000000000000000600082015250565b7f636c6f6e657075626c6963000000000000000000000000000000000000000000600082015250565b7f7265766572746564000000000000000000000000000000000000000000000000600082015250565b615677816152ca565b811461568257600080fd5b50565b61568e816152dc565b811461569957600080fd5b50565b6156a5816152fa565b81146156b057600080fd5b50565b6156bc81615324565b81146156c757600080fd5b5056fea2646970667358221220152ae5e738dbbdd9698261046faf8d29677e594aa45daffd81a79eb2144463ce64736f6c63430008070033608060405273c2c7d10b99bf936effd3cfdd4f5e5f6a6acddcd3600860006101000a81548173ffffffffffffffffffffffffffffffffffffffff021916908373ffffffffffffffffffffffffffffffffffffffff16021790555060006015556001601660006101000a81548160ff0219169083151502179055506001601660016101000a81548160ff021916908315150217905550348015620000a157600080fd5b50620000c2620000b6620000c860201b60201c565b620000d060201b60201c565b62000195565b600033905090565b60008060029054906101000a900473ffffffffffffffffffffffffffffffffffffffff16905081600060026101000a81548173ffffffffffffffffffffffffffffffffffffffff021916908373ffffffffffffffffffffffffffffffffffffffff1602179055508173ffffffffffffffffffffffffffffffffffffffff168173ffffffffffffffffffffffffffffffffffffffff167f8be0079c531659141344cd1fd0a4f28419497f9722a3daafe3b4186f6b6457e060405160405180910390a35050565b614f8b80620001a56000396000f3fe6080604052600436106102ac5760003560e01c8063780425df11610175578063c4d66de8116100dc578063d29d44ee11610095578063e9e3cdc91161006f578063e9e3cdc914610a69578063f2fde38b14610a92578063f3c7fbbb14610abb578063fa62884c14610af8576102ac565b8063d29d44ee146109d8578063d5abeb0114610a01578063e985e9c514610a2c576102ac565b8063c4d66de8146108d7578063c53825b314610900578063c87b56dd1461091c578063cb9f530c14610959578063cd3293de14610984578063d031370b146109af576102ac565b80639d38fd211161012e5780639d38fd21146107ea5780639d97294214610813578063a035b1fe1461083e578063a0712d6814610869578063a22cb46514610885578063b88d4fde146108ae576102ac565b8063780425df146106ee5780637d7eee42146107195780638da5cb5b1461074257806391b7f5ed1461076d578063921cab331461079657806395d89b41146107bf576102ac565b80632f745c591161021957806361bc221a116101d257806361bc221a146105f25780636352211e1461061d57806367f8ccb81461065a5780636a44e1731461067157806370a082311461069a578063715018a6146106d7576102ac565b80632f745c59146104e45780633aad9768146105215780633ccfd60b1461054a57806342842e0e14610561578063453c23101461058a5780634f6ccce7146105b5576102ac565b8063166866cc1161026b578063166866cc146103e857806318160ddd146104115780631a0d4bca1461043c578063228025e81461046757806323b872dd146104905780632e055bcc146104b9576102ac565b80620e7fa8146102b1578062b0e703146102dc57806301ffc9a71461031a57806306fdde0314610357578063081812fc14610382578063095ea7b3146103bf575b600080fd5b3480156102bd57600080fd5b506102c6610b0f565b6040516102d3919061467b565b60405180910390f35b3480156102e857600080fd5b5061030360048036038101906102fe9190613c6b565b610b15565b604051610311929190614455565b60405180910390f35b34801561032657600080fd5b50610341600480360381019061033c9190613e8e565b610b59565b60405161034e919061447e565b60405180910390f35b34801561036357600080fd5b5061036c610ca3565b6040516103799190614499565b60405180910390f35b34801561038e57600080fd5b506103a960048036038101906103a49190614079565b610d35565b6040516103b691906143ee565b60405180910390f35b3480156103cb57600080fd5b506103e660048036038101906103e19190613dee565b610db1565b005b3480156103f457600080fd5b5061040f600480360381019061040a9190614079565b610ebc565b005b34801561041d57600080fd5b50610426610f42565b604051610433919061467b565b60405180910390f35b34801561044857600080fd5b50610451610f4c565b60405161045e9190614499565b60405180910390f35b34801561047357600080fd5b5061048e60048036038101906104899190614079565b610fda565b005b34801561049c57600080fd5b506104b760048036038101906104b29190613cd8565b611060565b005b3480156104c557600080fd5b506104ce611070565b6040516104db919061467b565b60405180910390f35b3480156104f057600080fd5b5061050b60048036038101906105069190613dee565b611076565b604051610518919061467b565b60405180910390f35b34801561052d57600080fd5b5061054860048036038101906105439190613ee8565b611237565b005b34801561055657600080fd5b5061055f6112cd565b005b34801561056d57600080fd5b5061058860048036038101906105839190613cd8565b611497565b005b34801561059657600080fd5b5061059f6114b7565b6040516105ac919061467b565b60405180910390f35b3480156105c157600080fd5b506105dc60048036038101906105d79190614079565b6114bd565b6040516105e9919061467b565b60405180910390f35b3480156105fe57600080fd5b50610607611507565b604051610614919061467b565b60405180910390f35b34801561062957600080fd5b50610644600480360381019061063f9190614079565b61150d565b60405161065191906143ee565b60405180910390f35b34801561066657600080fd5b5061066f611523565b005b34801561067d57600080fd5b5061069860048036038101906106939190614079565b6115cb565b005b3480156106a657600080fd5b506106c160048036038101906106bc9190613c6b565b611651565b6040516106ce919061467b565b60405180910390f35b3480156106e357600080fd5b506106ec611731565b005b3480156106fa57600080fd5b506107036117b9565b604051610710919061467b565b60405180910390f35b34801561072557600080fd5b50610740600480360381019061073b9190614079565b6117bf565b005b34801561074e57600080fd5b50610757611845565b60405161076491906143ee565b60405180910390f35b34801561077957600080fd5b50610794600480360381019061078f9190614079565b61186e565b005b3480156107a257600080fd5b506107bd60048036038101906107b89190614079565b6118f4565b005b3480156107cb57600080fd5b506107d461197a565b6040516107e19190614499565b60405180910390f35b3480156107f657600080fd5b50610811600480360381019061080c9190614079565b611a0c565b005b34801561081f57600080fd5b50610828611a92565b604051610835919061447e565b60405180910390f35b34801561084a57600080fd5b50610853611aa5565b604051610860919061467b565b60405180910390f35b610883600480360381019061087e9190614079565b611aab565b005b34801561089157600080fd5b506108ac60048036038101906108a79190613dae565b611bf3565b005b3480156108ba57600080fd5b506108d560048036038101906108d09190613d2b565b611d6b565b005b3480156108e357600080fd5b506108fe60048036038101906108f99190613c6b565b611dbe565b005b61091a60048036038101906109159190613e2e565b611fca565b005b34801561092857600080fd5b50610943600480360381019061093e9190614079565b61242f565b6040516109509190614499565b60405180910390f35b34801561096557600080fd5b5061096e6124ce565b60405161097b919061447e565b60405180910390f35b34801561099057600080fd5b506109996124e1565b6040516109a6919061467b565b60405180910390f35b3480156109bb57600080fd5b506109d660048036038101906109d19190614079565b6124e7565b005b3480156109e457600080fd5b506109ff60048036038101906109fa9190613c6b565b6125ce565b005b348015610a0d57600080fd5b50610a16612693565b604051610a23919061467b565b60405180910390f35b348015610a3857600080fd5b50610a536004803603810190610a4e9190613c98565b612699565b604051610a60919061447e565b60405180910390f35b348015610a7557600080fd5b50610a906004803603810190610a8b9190613f31565b61272d565b005b348015610a9e57600080fd5b50610ab96004803603810190610ab49190613c6b565b612819565b005b348015610ac757600080fd5b50610ae26004803603810190610add9190613c6b565b612911565b604051610aef919061447e565b60405180910390f35b348015610b0457600080fd5b50610b0d612931565b005b60125481565b60096020528060005260406000206000915090508060000160009054906101000a900473ffffffffffffffffffffffffffffffffffffffff16908060010154905082565b60007f80ac58cd000000000000000000000000000000000000000000000000000000007bffffffffffffffffffffffffffffffffffffffffffffffffffffffff1916827bffffffffffffffffffffffffffffffffffffffffffffffffffffffff19161480610c2457507f5b5e139f000000000000000000000000000000000000000000000000000000007bffffffffffffffffffffffffffffffffffffffffffffffffffffffff1916827bffffffffffffffffffffffffffffffffffffffffffffffffffffffff1916145b80610c8c57507f780e9d63000000000000000000000000000000000000000000000000000000007bffffffffffffffffffffffffffffffffffffffffffffffffffffffff1916827bffffffffffffffffffffffffffffffffffffffffffffffffffffffff1916145b80610c9c5750610c9b826129d9565b5b9050919050565b6060600b8054610cb290614940565b80601f0160208091040260200160405190810160405280929190818152602001828054610cde90614940565b8015610d2b5780601f10610d0057610100808354040283529160200191610d2b565b820191906000526020600020905b815481529060010190602001808311610d0e57829003601f168201915b5050505050905090565b6000610d4082612a43565b610d76576040517fa80ee18600000000000000000000000000000000000000000000000000000000815260040160405180910390fd5b6006600083815260200190815260200160002060009054906101000a900473ffffffffffffffffffffffffffffffffffffffff169050919050565b6000610dbc8261150d565b90508073ffffffffffffffffffffffffffffffffffffffff168373ffffffffffffffffffffffffffffffffffffffff161415610e24576040517fd2f1749b00000000000000000000000000000000000000000000000000000000815260040160405180910390fd5b8073ffffffffffffffffffffffffffffffffffffffff16610e43612a51565b73ffffffffffffffffffffffffffffffffffffffff1614158015610e755750610e7381610e6e612a51565b612699565b155b15610eac576040517f9703ec3a00000000000000000000000000000000000000000000000000000000815260040160405180910390fd5b610eb7838383612a59565b505050565b610ec4612a51565b73ffffffffffffffffffffffffffffffffffffffff16610ee2611845565b73ffffffffffffffffffffffffffffffffffffffff1614610f38576040517f08c379a0000000000000000000000000000000000000000000000000000000008152600401610f2f906145db565b60405180910390fd5b8060138190555050565b6000600154905090565b600d8054610f5990614940565b80601f0160208091040260200160405190810160405280929190818152602001828054610f8590614940565b8015610fd25780601f10610fa757610100808354040283529160200191610fd2565b820191906000526020600020905b815481529060010190602001808311610fb557829003601f168201915b505050505081565b610fe2612a51565b73ffffffffffffffffffffffffffffffffffffffff16611000611845565b73ffffffffffffffffffffffffffffffffffffffff1614611056576040517f08c379a000000000000000000000000000000000000000000000000000000000815260040161104d906145db565b60405180910390fd5b80600e8190555050565b61106b838383612b0b565b505050565b60115481565b600061108183611651565b82106110b9576040517f9e265c8200000000000000000000000000000000000000000000000000000000815260040160405180910390fd5b60006110c3610f42565b905060008060005b8381101561121d576000600460008381526020019081526020016000206040518060400160405290816000820160009054906101000a900473ffffffffffffffffffffffffffffffffffffffff1673ffffffffffffffffffffffffffffffffffffffff1673ffffffffffffffffffffffffffffffffffffffff1681526020016000820160149054906101000a900467ffffffffffffffff1667ffffffffffffffff1667ffffffffffffffff16815250509050600073ffffffffffffffffffffffffffffffffffffffff16816000015173ffffffffffffffffffffffffffffffffffffffff16146111bd57806000015192505b8773ffffffffffffffffffffffffffffffffffffffff168373ffffffffffffffffffffffffffffffffffffffff16141561120f5786841415611206578195505050505050611231565b83806001019450505b5080806001019150506110cb565b50600061122d5761122c614a41565b5b5050505b92915050565b61123f612a51565b73ffffffffffffffffffffffffffffffffffffffff1661125d611845565b73ffffffffffffffffffffffffffffffffffffffff16146112b3576040517f08c379a00000000000000000000000000000000000000000000000000000000081526004016112aa906145db565b60405180910390fd5b80600d90805190602001906112c99291906139da565b5050565b6112d5612a51565b73ffffffffffffffffffffffffffffffffffffffff166112f3611845565b73ffffffffffffffffffffffffffffffffffffffff1614611349576040517f08c379a0000000000000000000000000000000000000000000000000000000008152600401611340906145db565b60405180910390fd5b60004790506000606460058361135f91906147f2565b61136991906147c1565b905060008183611379919061484c565b90506000611385611845565b73ffffffffffffffffffffffffffffffffffffffff16826040516113a8906143d9565b60006040518083038185875af1925050503d80600081146113e5576040519150601f19603f3d011682016040523d82523d6000602084013e6113ea565b606091505b505090506000600860009054906101000a900473ffffffffffffffffffffffffffffffffffffffff1673ffffffffffffffffffffffffffffffffffffffff1684604051611436906143d9565b60006040518083038185875af1925050503d8060008114611473576040519150601f19603f3d011682016040523d82523d6000602084013e611478565b606091505b505090508161148657600080fd5b8061149057600080fd5b5050505050565b6114b283838360405180602001604052806000815250611d6b565b505050565b60135481565b60006114c7610f42565b82106114ff576040517f3fe92d1900000000000000000000000000000000000000000000000000000000815260040160405180910390fd5b819050919050565b60155481565b600061151882613023565b600001519050919050565b61152b612a51565b73ffffffffffffffffffffffffffffffffffffffff16611549611845565b73ffffffffffffffffffffffffffffffffffffffff161461159f576040517f08c379a0000000000000000000000000000000000000000000000000000000008152600401611596906145db565b60405180910390fd5b601660019054906101000a900460ff1615601660016101000a81548160ff021916908315150217905550565b6115d3612a51565b73ffffffffffffffffffffffffffffffffffffffff166115f1611845565b73ffffffffffffffffffffffffffffffffffffffff1614611647576040517f08c379a000000000000000000000000000000000000000000000000000000000815260040161163e906145db565b60405180910390fd5b80600f8190555050565b60008073ffffffffffffffffffffffffffffffffffffffff168273ffffffffffffffffffffffffffffffffffffffff1614156116b9576040517fb43d505900000000000000000000000000000000000000000000000000000000815260040160405180910390fd5b600560008373ffffffffffffffffffffffffffffffffffffffff1673ffffffffffffffffffffffffffffffffffffffff16815260200190815260200160002060000160009054906101000a90046fffffffffffffffffffffffffffffffff166fffffffffffffffffffffffffffffffff169050919050565b611739612a51565b73ffffffffffffffffffffffffffffffffffffffff16611757611845565b73ffffffffffffffffffffffffffffffffffffffff16146117ad576040517f08c379a00000000000000000000000000000000000000000000000000000000081526004016117a4906145db565b60405180910390fd5b6117b760006125ce565b565b60145481565b6117c7612a51565b73ffffffffffffffffffffffffffffffffffffffff166117e5611845565b73ffffffffffffffffffffffffffffffffffffffff161461183b576040517f08c379a0000000000000000000000000000000000000000000000000000000008152600401611832906145db565b60405180910390fd5b8060128190555050565b60008060029054906101000a900473ffffffffffffffffffffffffffffffffffffffff16905090565b611876612a51565b73ffffffffffffffffffffffffffffffffffffffff16611894611845565b73ffffffffffffffffffffffffffffffffffffffff16146118ea576040517f08c379a00000000000000000000000000000000000000000000000000000000081526004016118e1906145db565b60405180910390fd5b8060108190555050565b6118fc612a51565b73ffffffffffffffffffffffffffffffffffffffff1661191a611845565b73ffffffffffffffffffffffffffffffffffffffff1614611970576040517f08c379a0000000000000000000000000000000000000000000000000000000008152600401611967906145db565b60405180910390fd5b8060128190555050565b6060600c805461198990614940565b80601f01602080910402602001604051908101604052809291908181526020018280546119b590614940565b8015611a025780601f106119d757610100808354040283529160200191611a02565b820191906000526020600020905b8154815290600101906020018083116119e557829003601f168201915b5050505050905090565b611a14612a51565b73ffffffffffffffffffffffffffffffffffffffff16611a32611845565b73ffffffffffffffffffffffffffffffffffffffff1614611a88576040517f08c379a0000000000000000000000000000000000000000000000000000000008152600401611a7f906145db565b60405180910390fd5b8060148190555050565b601660019054906101000a900460ff1681565b60105481565b60008111611aee576040517f08c379a0000000000000000000000000000000000000000000000000000000008152600401611ae59061455b565b60405180910390fd5b601454811115611b33576040517f08c379a0000000000000000000000000000000000000000000000000000000008152600401611b2a906145bb565b60405180910390fd5b600f54600e54611b43919061484c565b611b4b610f42565b82611b56919061476b565b1115611b97576040517f08c379a0000000000000000000000000000000000000000000000000000000008152600401611b8e9061459b565b60405180910390fd5b3481601054611ba691906147f2565b14611be6576040517f08c379a0000000000000000000000000000000000000000000000000000000008152600401611bdd9061457b565b60405180910390fd5b611bf033826131ab565b50565b611bfb612a51565b73ffffffffffffffffffffffffffffffffffffffff168273ffffffffffffffffffffffffffffffffffffffff161415611c60576040517fd2f3880f00000000000000000000000000000000000000000000000000000000815260040160405180910390fd5b8060076000611c6d612a51565b73ffffffffffffffffffffffffffffffffffffffff1673ffffffffffffffffffffffffffffffffffffffff16815260200190815260200160002060008473ffffffffffffffffffffffffffffffffffffffff1673ffffffffffffffffffffffffffffffffffffffff16815260200190815260200160002060006101000a81548160ff0219169083151502179055508173ffffffffffffffffffffffffffffffffffffffff16611d1a612a51565b73ffffffffffffffffffffffffffffffffffffffff167f17307eab39ab6107e8899845ad3d59bd9653f200f220920489ca2b5937696c3183604051611d5f919061447e565b60405180910390a35050565b611d76848484612b0b565b611d828484848461347b565b611db8576040517f5bc5144200000000000000000000000000000000000000000000000000000000815260040160405180910390fd5b50505050565b600060019054906101000a900460ff16611de65760008054906101000a900460ff1615611def565b611dee613609565b5b611e2e576040517f08c379a0000000000000000000000000000000000000000000000000000000008152600401611e259061453b565b60405180910390fd5b60008060019054906101000a900460ff161590508015611e7e576001600060016101000a81548160ff02191690831515021790555060016000806101000a81548160ff0219169083151502179055505b611f9c600b8054611e8e90614940565b80601f0160208091040260200160405190810160405280929190818152602001828054611eba90614940565b8015611f075780601f10611edc57610100808354040283529160200191611f07565b820191906000526020600020905b815481529060010190602001808311611eea57829003601f168201915b5050505050600c8054611f1990614940565b80601f0160208091040260200160405190810160405280929190818152602001828054611f4590614940565b8015611f925780601f10611f6757610100808354040283529160200191611f92565b820191906000526020600020905b815481529060010190602001808311611f7557829003601f168201915b505050505061361a565b611fa5826125ce565b8015611fc65760008060016101000a81548160ff0219169083151502179055505b5050565b60001515600a60003373ffffffffffffffffffffffffffffffffffffffff1673ffffffffffffffffffffffffffffffffffffffff16815260200190815260200160002060009054906101000a900460ff161515141561213b5760405180604001604052803373ffffffffffffffffffffffffffffffffffffffff1681526020016000815250600960003373ffffffffffffffffffffffffffffffffffffffff1673ffffffffffffffffffffffffffffffffffffffff16815260200190815260200160002060008201518160000160006101000a81548173ffffffffffffffffffffffffffffffffffffffff021916908373ffffffffffffffffffffffffffffffffffffffff160217905550602082015181600101559050506001600a60003373ffffffffffffffffffffffffffffffffffffffff1673ffffffffffffffffffffffffffffffffffffffff16815260200190815260200160002060006101000a81548160ff0219169083151502179055505b60001515601660019054906101000a900460ff16151514612191576040517f08c379a00000000000000000000000000000000000000000000000000000000081526004016121889061465b565b60405180910390fd5b6014548111156121d6576040517f08c379a00000000000000000000000000000000000000000000000000000000081526004016121cd906145bb565b60405180910390fd5b601154816121e2610f42565b6121ec919061476b565b111561222d576040517f08c379a0000000000000000000000000000000000000000000000000000000008152600401612224906144fb565b60405180910390fd5b60135481600960003373ffffffffffffffffffffffffffffffffffffffff1673ffffffffffffffffffffffffffffffffffffffff1681526020019081526020016000206001015461227e919061476b565b11156122bf576040517f08c379a00000000000000000000000000000000000000000000000000000000081526004016122b69061451b565b60405180910390fd5b34816012546122ce91906147f2565b1461230e576040517f08c379a00000000000000000000000000000000000000000000000000000000081526004016123059061463b565b60405180910390fd5b600033604051602001612321919061439a565b604051602081830303815290604052805190602001209050612387848480806020026020016040519081016040528093929190818152602001838360200280828437600081840152601f19601f8201169050808301925050505050505060175483613677565b6123c6576040517f08c379a00000000000000000000000000000000000000000000000000000000081526004016123bd9061461b565b60405180910390fd5b6123d033836131ab565b81600960003373ffffffffffffffffffffffffffffffffffffffff1673ffffffffffffffffffffffffffffffffffffffff1681526020019081526020016000206001016000828254612422919061476b565b9250508190555050505050565b606061243a82612a43565b612470576040517fc0db38a100000000000000000000000000000000000000000000000000000000815260040160405180910390fd5b600061247a61368e565b905060008151141561249b57604051806020016040528060008152506124c6565b806124a584613720565b6040516020016124b69291906143b5565b6040516020818303038152906040525b915050919050565b601660009054906101000a900460ff1681565b600f5481565b6124ef612a51565b73ffffffffffffffffffffffffffffffffffffffff1661250d611845565b73ffffffffffffffffffffffffffffffffffffffff1614612563576040517f08c379a000000000000000000000000000000000000000000000000000000000815260040161255a906145db565b60405180910390fd5b600f548111156125a8576040517f08c379a000000000000000000000000000000000000000000000000000000000815260040161259f906144db565b60405180910390fd5b80600f60008282546125ba919061484c565b925050819055506125cb33826131ab565b50565b60008060029054906101000a900473ffffffffffffffffffffffffffffffffffffffff16905081600060026101000a81548173ffffffffffffffffffffffffffffffffffffffff021916908373ffffffffffffffffffffffffffffffffffffffff1602179055508173ffffffffffffffffffffffffffffffffffffffff168173ffffffffffffffffffffffffffffffffffffffff167f8be0079c531659141344cd1fd0a4f28419497f9722a3daafe3b4186f6b6457e060405160405180910390a35050565b600e5481565b6000600760008473ffffffffffffffffffffffffffffffffffffffff1673ffffffffffffffffffffffffffffffffffffffff16815260200190815260200160002060008373ffffffffffffffffffffffffffffffffffffffff1673ffffffffffffffffffffffffffffffffffffffff16815260200190815260200160002060009054906101000a900460ff16905092915050565b6001601554106127775761273f611845565b73ffffffffffffffffffffffffffffffffffffffff163373ffffffffffffffffffffffffffffffffffffffff161461277657600080fd5b5b8a600b908051906020019061278d9291906139da565b5089600c90805190602001906127a49291906139da565b5088600e81905550876011819055508660148190555085600f81905550846010819055508360128190555082600d90805190602001906127e59291906139da565b50816013819055508060178190555060156000815480929190612807906149a3565b91905055505050505050505050505050565b612821612a51565b73ffffffffffffffffffffffffffffffffffffffff1661283f611845565b73ffffffffffffffffffffffffffffffffffffffff1614612895576040517f08c379a000000000000000000000000000000000000000000000000000000000815260040161288c906145db565b60405180910390fd5b600073ffffffffffffffffffffffffffffffffffffffff168173ffffffffffffffffffffffffffffffffffffffff161415612905576040517f08c379a00000000000000000000000000000000000000000000000000000000081526004016128fc906144bb565b60405180910390fd5b61290e816125ce565b50565b600a6020528060005260406000206000915054906101000a900460ff1681565b612939612a51565b73ffffffffffffffffffffffffffffffffffffffff16612957611845565b73ffffffffffffffffffffffffffffffffffffffff16146129ad576040517f08c379a00000000000000000000000000000000000000000000000000000000081526004016129a4906145db565b60405180910390fd5b601660009054906101000a900460ff1615601660006101000a81548160ff021916908315150217905550565b60007f01ffc9a7000000000000000000000000000000000000000000000000000000007bffffffffffffffffffffffffffffffffffffffffffffffffffffffff1916827bffffffffffffffffffffffffffffffffffffffffffffffffffffffff1916149050919050565b600060015482109050919050565b600033905090565b826006600084815260200190815260200160002060006101000a81548173ffffffffffffffffffffffffffffffffffffffff021916908373ffffffffffffffffffffffffffffffffffffffff160217905550818373ffffffffffffffffffffffffffffffffffffffff168273ffffffffffffffffffffffffffffffffffffffff167f8c5be1e5ebec7d5bd14f71427d1e84f3dd0314c0f7b2291e5b200ac8c7c3b92560405160405180910390a4505050565b6000612b1682613023565b90506000816000015173ffffffffffffffffffffffffffffffffffffffff16612b3d612a51565b73ffffffffffffffffffffffffffffffffffffffff161480612b995750612b62612a51565b73ffffffffffffffffffffffffffffffffffffffff16612b8184610d35565b73ffffffffffffffffffffffffffffffffffffffff16145b80612bb55750612bb48260000151612baf612a51565b612699565b5b905080612bee576040517f35eece7500000000000000000000000000000000000000000000000000000000815260040160405180910390fd5b8473ffffffffffffffffffffffffffffffffffffffff16826000015173ffffffffffffffffffffffffffffffffffffffff1614612c57576040517fb8ca083600000000000000000000000000000000000000000000000000000000815260040160405180910390fd5b600073ffffffffffffffffffffffffffffffffffffffff168473ffffffffffffffffffffffffffffffffffffffff161415612cbe576040517fb6e84e9700000000000000000000000000000000000000000000000000000000815260040160405180910390fd5b612cce6000848460000151612a59565b6001600560008773ffffffffffffffffffffffffffffffffffffffff1673ffffffffffffffffffffffffffffffffffffffff16815260200190815260200160002060000160008282829054906101000a90046fffffffffffffffffffffffffffffffff160392506101000a8154816fffffffffffffffffffffffffffffffff02191690836fffffffffffffffffffffffffffffffff1602179055506001600560008673ffffffffffffffffffffffffffffffffffffffff1673ffffffffffffffffffffffffffffffffffffffff16815260200190815260200160002060000160008282829054906101000a90046fffffffffffffffffffffffffffffffff160192506101000a8154816fffffffffffffffffffffffffffffffff02191690836fffffffffffffffffffffffffffffffff160217905550836004600085815260200190815260200160002060000160006101000a81548173ffffffffffffffffffffffffffffffffffffffff021916908373ffffffffffffffffffffffffffffffffffffffff160217905550426004600085815260200190815260200160002060000160146101000a81548167ffffffffffffffff021916908367ffffffffffffffff1602179055506000600184019050600073ffffffffffffffffffffffffffffffffffffffff166004600083815260200190815260200160002060000160009054906101000a900473ffffffffffffffffffffffffffffffffffffffff1673ffffffffffffffffffffffffffffffffffffffff161415612fb357612f1281612a43565b15612fb25782600001516004600083815260200190815260200160002060000160006101000a81548173ffffffffffffffffffffffffffffffffffffffff021916908373ffffffffffffffffffffffffffffffffffffffff16021790555082602001516004600083815260200190815260200160002060000160146101000a81548167ffffffffffffffff021916908367ffffffffffffffff1602179055505b5b50828473ffffffffffffffffffffffffffffffffffffffff168673ffffffffffffffffffffffffffffffffffffffff167fddf252ad1be2c89b69c2b068fc378daa952ba7f163c4a11628f55a4df523b3ef60405160405180910390a461301c8585856001613881565b5050505050565b61302b613a60565b61303482612a43565b61306a576040517fd216a13f00000000000000000000000000000000000000000000000000000000815260040160405180910390fd5b60008290505b60008110613173576000600460008381526020019081526020016000206040518060400160405290816000820160009054906101000a900473ffffffffffffffffffffffffffffffffffffffff1673ffffffffffffffffffffffffffffffffffffffff1673ffffffffffffffffffffffffffffffffffffffff1681526020016000820160149054906101000a900467ffffffffffffffff1667ffffffffffffffff1667ffffffffffffffff16815250509050600073ffffffffffffffffffffffffffffffffffffffff16816000015173ffffffffffffffffffffffffffffffffffffffff16146131645780925050506131a6565b50808060019003915050613070565b506040517f0d157e8c00000000000000000000000000000000000000000000000000000000815260040160405180910390fd5b919050565b60006001549050600073ffffffffffffffffffffffffffffffffffffffff168373ffffffffffffffffffffffffffffffffffffffff161415613219576040517fb317706a00000000000000000000000000000000000000000000000000000000815260040160405180910390fd5b81600560008573ffffffffffffffffffffffffffffffffffffffff1673ffffffffffffffffffffffffffffffffffffffff16815260200190815260200160002060000160008282829054906101000a90046fffffffffffffffffffffffffffffffff160192506101000a8154816fffffffffffffffffffffffffffffffff02191690836fffffffffffffffffffffffffffffffff16021790555081600560008573ffffffffffffffffffffffffffffffffffffffff1673ffffffffffffffffffffffffffffffffffffffff16815260200190815260200160002060000160108282829054906101000a90046fffffffffffffffffffffffffffffffff160192506101000a8154816fffffffffffffffffffffffffffffffff02191690836fffffffffffffffffffffffffffffffff160217905550826004600083815260200190815260200160002060000160006101000a81548173ffffffffffffffffffffffffffffffffffffffff021916908373ffffffffffffffffffffffffffffffffffffffff160217905550426004600083815260200190815260200160002060000160146101000a81548167ffffffffffffffff021916908367ffffffffffffffff160217905550600081905060005b8381101561346057818573ffffffffffffffffffffffffffffffffffffffff16600073ffffffffffffffffffffffffffffffffffffffff167fddf252ad1be2c89b69c2b068fc378daa952ba7f163c4a11628f55a4df523b3ef60405160405180910390a4818060010192505080806001019150506133e7565b5080600181905550506134766000848385613881565b505050565b600061349c8473ffffffffffffffffffffffffffffffffffffffff16613887565b156135fc578373ffffffffffffffffffffffffffffffffffffffff1663150b7a026134c5612a51565b8786866040518563ffffffff1660e01b81526004016134e79493929190614409565b602060405180830381600087803b15801561350157600080fd5b505af192505050801561353257506040513d601f19601f8201168201806040525081019061352f9190613ebb565b60015b6135ac573d8060008114613562576040519150601f19603f3d011682016040523d82523d6000602084013e613567565b606091505b506000815114156135a4576040517f5bc5144200000000000000000000000000000000000000000000000000000000815260040160405180910390fd5b805181602001fd5b63150b7a0260e01b7bffffffffffffffffffffffffffffffffffffffffffffffffffffffff1916817bffffffffffffffffffffffffffffffffffffffffffffffffffffffff191614915050613601565b600190505b949350505050565b6000613614306138aa565b15905090565b600060019054906101000a900460ff16613669576040517f08c379a0000000000000000000000000000000000000000000000000000000008152600401613660906145fb565b60405180910390fd5b61367382826138cd565b5050565b600082613684858461394e565b1490509392505050565b6060600d805461369d90614940565b80601f01602080910402602001604051908101604052809291908181526020018280546136c990614940565b80156137165780601f106136eb57610100808354040283529160200191613716565b820191906000526020600020905b8154815290600101906020018083116136f957829003601f168201915b5050505050905090565b60606000821415613768576040518060400160405280600181526020017f3000000000000000000000000000000000000000000000000000000000000000815250905061387c565b600082905060005b6000821461379a578080613783906149a3565b915050600a8261379391906147c1565b9150613770565b60008167ffffffffffffffff8111156137b6576137b5614b2c565b5b6040519080825280601f01601f1916602001820160405280156137e85781602001600182028036833780820191505090505b5090505b6000851461387557600182613801919061484c565b9150600a856138109190614a10565b603061381c919061476b565b60f81b81838151811061383257613831614afd565b5b60200101907effffffffffffffffffffffffffffffffffffffffffffffffffffffffffffff1916908160001a905350600a8561386e91906147c1565b94506137ec565b8093505050505b919050565b50505050565b6000808273ffffffffffffffffffffffffffffffffffffffff163b119050919050565b6000808273ffffffffffffffffffffffffffffffffffffffff163b119050919050565b600060019054906101000a900460ff1661391c576040517f08c379a0000000000000000000000000000000000000000000000000000000008152600401613913906145fb565b60405180910390fd5b81600290805190602001906139329291906139da565b5080600390805190602001906139499291906139da565b505050565b60008082905060005b84518110156139b857600085828151811061397557613974614afd565b5b602002602001015190508083116139975761399083826139c3565b92506139a4565b6139a181846139c3565b92505b5080806139b0906149a3565b915050613957565b508091505092915050565b600082600052816020526040600020905092915050565b8280546139e690614940565b90600052602060002090601f016020900481019282613a085760008555613a4f565b82601f10613a2157805160ff1916838001178555613a4f565b82800160010185558215613a4f579182015b82811115613a4e578251825591602001919060010190613a33565b5b509050613a5c9190613a9a565b5090565b6040518060400160405280600073ffffffffffffffffffffffffffffffffffffffff168152602001600067ffffffffffffffff1681525090565b5b80821115613ab3576000816000905550600101613a9b565b5090565b6000613aca613ac5846146bb565b614696565b905082815260208101848484011115613ae657613ae5614b6a565b5b613af18482856148fe565b509392505050565b6000613b0c613b07846146ec565b614696565b905082815260208101848484011115613b2857613b27614b6a565b5b613b338482856148fe565b509392505050565b600081359050613b4a81614ee2565b92915050565b60008083601f840112613b6657613b65614b60565b5b8235905067ffffffffffffffff811115613b8357613b82614b5b565b5b602083019150836020820283011115613b9f57613b9e614b65565b5b9250929050565b600081359050613bb581614ef9565b92915050565b600081359050613bca81614f10565b92915050565b600081359050613bdf81614f27565b92915050565b600081519050613bf481614f27565b92915050565b600082601f830112613c0f57613c0e614b60565b5b8135613c1f848260208601613ab7565b91505092915050565b600082601f830112613c3d57613c3c614b60565b5b8135613c4d848260208601613af9565b91505092915050565b600081359050613c6581614f3e565b92915050565b600060208284031215613c8157613c80614b74565b5b6000613c8f84828501613b3b565b91505092915050565b60008060408385031215613caf57613cae614b74565b5b6000613cbd85828601613b3b565b9250506020613cce85828601613b3b565b9150509250929050565b600080600060608486031215613cf157613cf0614b74565b5b6000613cff86828701613b3b565b9350506020613d1086828701613b3b565b9250506040613d2186828701613c56565b9150509250925092565b60008060008060808587031215613d4557613d44614b74565b5b6000613d5387828801613b3b565b9450506020613d6487828801613b3b565b9350506040613d7587828801613c56565b925050606085013567ffffffffffffffff811115613d9657613d95614b6f565b5b613da287828801613bfa565b91505092959194509250565b60008060408385031215613dc557613dc4614b74565b5b6000613dd385828601613b3b565b9250506020613de485828601613ba6565b9150509250929050565b60008060408385031215613e0557613e04614b74565b5b6000613e1385828601613b3b565b9250506020613e2485828601613c56565b9150509250929050565b600080600060408486031215613e4757613e46614b74565b5b600084013567ffffffffffffffff811115613e6557613e64614b6f565b5b613e7186828701613b50565b93509350506020613e8486828701613c56565b9150509250925092565b600060208284031215613ea457613ea3614b74565b5b6000613eb284828501613bd0565b91505092915050565b600060208284031215613ed157613ed0614b74565b5b6000613edf84828501613be5565b91505092915050565b600060208284031215613efe57613efd614b74565b5b600082013567ffffffffffffffff811115613f1c57613f1b614b6f565b5b613f2884828501613c28565b91505092915050565b60008060008060008060008060008060006101608c8e031215613f5757613f56614b74565b5b60008c013567ffffffffffffffff811115613f7557613f74614b6f565b5b613f818e828f01613c28565b9b505060208c013567ffffffffffffffff811115613fa257613fa1614b6f565b5b613fae8e828f01613c28565b9a50506040613fbf8e828f01613c56565b9950506060613fd08e828f01613c56565b9850506080613fe18e828f01613c56565b97505060a0613ff28e828f01613c56565b96505060c06140038e828f01613c56565b95505060e06140148e828f01613c56565b9450506101008c013567ffffffffffffffff81111561403657614035614b6f565b5b6140428e828f01613c28565b9350506101206140548e828f01613c56565b9250506101406140668e828f01613bbb565b9150509295989b509295989b9093969950565b60006020828403121561408f5761408e614b74565b5b600061409d84828501613c56565b91505092915050565b6140af81614880565b82525050565b6140c66140c182614880565b6149ec565b82525050565b6140d581614892565b82525050565b60006140e68261471d565b6140f08185614733565b935061410081856020860161490d565b61410981614b79565b840191505092915050565b600061411f82614728565b614129818561474f565b935061413981856020860161490d565b61414281614b79565b840191505092915050565b600061415882614728565b6141628185614760565b935061417281856020860161490d565b80840191505092915050565b600061418b60268361474f565b915061419682614b97565b604082019050919050565b60006141ae60218361474f565b91506141b982614be6565b604082019050919050565b60006141d160298361474f565b91506141dc82614c35565b604082019050919050565b60006141f460278361474f565b91506141ff82614c84565b604082019050919050565b6000614217602e8361474f565b915061422282614cd3565b604082019050919050565b600061423a60128361474f565b915061424582614d22565b602082019050919050565b600061425d601d8361474f565b915061426882614d4b565b602082019050919050565b6000614280600f8361474f565b915061428b82614d74565b602082019050919050565b60006142a360218361474f565b91506142ae82614d9d565b604082019050919050565b60006142c660208361474f565b91506142d182614dec565b602082019050919050565b60006142e9600083614744565b91506142f482614e15565b600082019050919050565b600061430c602b8361474f565b915061431782614e18565b604082019050919050565b600061432f600d8361474f565b915061433a82614e67565b602082019050919050565b6000614352601d8361474f565b915061435d82614e90565b602082019050919050565b600061437560208361474f565b915061438082614eb9565b602082019050919050565b614394816148f4565b82525050565b60006143a682846140b5565b60148201915081905092915050565b60006143c1828561414d565b91506143cd828461414d565b91508190509392505050565b60006143e4826142dc565b9150819050919050565b600060208201905061440360008301846140a6565b92915050565b600060808201905061441e60008301876140a6565b61442b60208301866140a6565b614438604083018561438b565b818103606083015261444a81846140db565b905095945050505050565b600060408201905061446a60008301856140a6565b614477602083018461438b565b9392505050565b600060208201905061449360008301846140cc565b92915050565b600060208201905081810360008301526144b38184614114565b905092915050565b600060208201905081810360008301526144d48161417e565b9050919050565b600060208201905081810360008301526144f4816141a1565b9050919050565b60006020820190508181036000830152614514816141c4565b9050919050565b60006020820190508181036000830152614534816141e7565b9050919050565b600060208201905081810360008301526145548161420a565b9050919050565b600060208201905081810360008301526145748161422d565b9050919050565b6000602082019050818103600083015261459481614250565b9050919050565b600060208201905081810360008301526145b481614273565b9050919050565b600060208201905081810360008301526145d481614296565b9050919050565b600060208201905081810360008301526145f4816142b9565b9050919050565b60006020820190508181036000830152614614816142ff565b9050919050565b6000602082019050818103600083015261463481614322565b9050919050565b6000602082019050818103600083015261465481614345565b9050919050565b6000602082019050818103600083015261467481614368565b9050919050565b6000602082019050614690600083018461438b565b92915050565b60006146a06146b1565b90506146ac8282614972565b919050565b6000604051905090565b600067ffffffffffffffff8211156146d6576146d5614b2c565b5b6146df82614b79565b9050602081019050919050565b600067ffffffffffffffff82111561470757614706614b2c565b5b61471082614b79565b9050602081019050919050565b600081519050919050565b600081519050919050565b600082825260208201905092915050565b600081905092915050565b600082825260208201905092915050565b600081905092915050565b6000614776826148f4565b9150614781836148f4565b9250827fffffffffffffffffffffffffffffffffffffffffffffffffffffffffffffffff038211156147b6576147b5614a70565b5b828201905092915050565b60006147cc826148f4565b91506147d7836148f4565b9250826147e7576147e6614a9f565b5b828204905092915050565b60006147fd826148f4565b9150614808836148f4565b9250817fffffffffffffffffffffffffffffffffffffffffffffffffffffffffffffffff048311821515161561484157614840614a70565b5b828202905092915050565b6000614857826148f4565b9150614862836148f4565b92508282101561487557614874614a70565b5b828203905092915050565b600061488b826148d4565b9050919050565b60008115159050919050565b6000819050919050565b60007fffffffff0000000000000000000000000000000000000000000000000000000082169050919050565b600073ffffffffffffffffffffffffffffffffffffffff82169050919050565b6000819050919050565b82818337600083830152505050565b60005b8381101561492b578082015181840152602081019050614910565b8381111561493a576000848401525b50505050565b6000600282049050600182168061495857607f821691505b6020821081141561496c5761496b614ace565b5b50919050565b61497b82614b79565b810181811067ffffffffffffffff8211171561499a57614999614b2c565b5b80604052505050565b60006149ae826148f4565b91507fffffffffffffffffffffffffffffffffffffffffffffffffffffffffffffffff8214156149e1576149e0614a70565b5b600182019050919050565b60006149f7826149fe565b9050919050565b6000614a0982614b8a565b9050919050565b6000614a1b826148f4565b9150614a26836148f4565b925082614a3657614a35614a9f565b5b828206905092915050565b7f4e487b7100000000000000000000000000000000000000000000000000000000600052600160045260246000fd5b7f4e487b7100000000000000000000000000000000000000000000000000000000600052601160045260246000fd5b7f4e487b7100000000000000000000000000000000000000000000000000000000600052601260045260246000fd5b7f4e487b7100000000000000000000000000000000000000000000000000000000600052602260045260246000fd5b7f4e487b7100000000000000000000000000000000000000000000000000000000600052603260045260246000fd5b7f4e487b7100000000000000000000000000000000000000000000000000000000600052604160045260246000fd5b600080fd5b600080fd5b600080fd5b600080fd5b600080fd5b600080fd5b6000601f19601f8301169050919050565b60008160601b9050919050565b7f4f776e61626c653a206e6577206f776e657220697320746865207a65726f206160008201527f6464726573730000000000000000000000000000000000000000000000000000602082015250565b7f546865207175616e74697479206578636565647320746865207265736572766560008201527f2e00000000000000000000000000000000000000000000000000000000000000602082015250565b7f5175616e746974792069732067726561746572207468616e2072656d61696e6960008201527f6e6720537570706c790000000000000000000000000000000000000000000000602082015250565b7f5175616e74697479204d757374204265204c6573736572205468616e204d617860008201527f20537570706c7900000000000000000000000000000000000000000000000000602082015250565b7f496e697469616c697a61626c653a20636f6e747261637420697320616c72656160008201527f647920696e697469616c697a6564000000000000000000000000000000000000602082015250565b7f7a65726f206e6f7420616c6c6f77656461610000000000000000000000000000600082015250565b7f53656e742065746865722076616c756520697320696e636f7272656374000000600082015250565b7f7075626c69632073616c6520656e640000000000000000000000000000000000600082015250565b7f43686f73656e20416d6f756e742065786365656473204d61785175616e74697460008201527f7900000000000000000000000000000000000000000000000000000000000000602082015250565b7f4f776e61626c653a2063616c6c6572206973206e6f7420746865206f776e6572600082015250565b50565b7f496e697469616c697a61626c653a20636f6e7472616374206973206e6f74206960008201527f6e697469616c697a696e67000000000000000000000000000000000000000000602082015250565b7f496e76616c69642050726f6f6600000000000000000000000000000000000000600082015250565b7f53656e742045746865722056616c756520497320496e636f7272656374000000600082015250565b7f53616c65206973206e6f742061637469766520617420746865206d6f6d656e74600082015250565b614eeb81614880565b8114614ef657600080fd5b50565b614f0281614892565b8114614f0d57600080fd5b50565b614f198161489e565b8114614f2457600080fd5b50565b614f30816148a8565b8114614f3b57600080fd5b50565b614f47816148f4565b8114614f5257600080fd5b5056fea2646970667358221220a2a3d3f9068bd34b1a35d1822509f6b79c2349236ea8ef6b4183b643c61dc30f64736f6c63430008070033608060405273c2c7d10b99bf936effd3cfdd4f5e5f6a6acddcd3600860006101000a81548173ffffffffffffffffffffffffffffffffffffffff021916908373ffffffffffffffffffffffffffffffffffffffff16021790555060006010556001601160006101000a81548160ff0219169083151502179055503480156200008657600080fd5b50620000a76200009b620000ad60201b60201c565b620000b560201b60201c565b6200017a565b600033905090565b60008060029054906101000a900473ffffffffffffffffffffffffffffffffffffffff16905081600060026101000a81548173ffffffffffffffffffffffffffffffffffffffff021916908373ffffffffffffffffffffffffffffffffffffffff1602179055508173ffffffffffffffffffffffffffffffffffffffff168173ffffffffffffffffffffffffffffffffffffffff167f8be0079c531659141344cd1fd0a4f28419497f9722a3daafe3b4186f6b6457e060405160405180910390a35050565b614108806200018a6000396000f3fe6080604052600436106102255760003560e01c80638da5cb5b11610123578063c87b56dd116100ab578063d5abeb011161006f578063d5abeb01146107e2578063e50058ef1461080d578063e985e9c514610836578063f2fde38b14610873578063fa62884c1461089c57610225565b8063c87b56dd146106fd578063cb9f530c1461073a578063cd3293de14610765578063d031370b14610790578063d29d44ee146107b957610225565b8063a035b1fe116100f2578063a035b1fe1461063b578063a0712d6814610666578063a22cb46514610682578063b88d4fde146106ab578063c4d66de8146106d457610225565b80638da5cb5b1461059357806391b7f5ed146105be57806395d89b41146105e75780639d38fd211461061257610225565b80633ccfd60b116101b15780636352211e116101755780636352211e146104ae5780636a44e173146104eb57806370a0823114610514578063715018a614610551578063780425df1461056857610225565b80633ccfd60b146103dd57806342842e0e146103f45780634a44f3791461041d5780634f6ccce71461044657806361bc221a1461048357610225565b806318160ddd116101f857806318160ddd146102f85780631a0d4bca14610323578063228025e81461034e57806323b872dd146103775780632f745c59146103a057610225565b806301ffc9a71461022a57806306fdde0314610267578063081812fc14610292578063095ea7b3146102cf575b600080fd5b34801561023657600080fd5b50610251600480360381019061024c919061337c565b6108b3565b60405161025e9190613810565b60405180910390f35b34801561027357600080fd5b5061027c6109fd565b604051610289919061382b565b60405180910390f35b34801561029e57600080fd5b506102b960048036038101906102b49190613515565b610a8f565b6040516102c691906137a9565b60405180910390f35b3480156102db57600080fd5b506102f660048036038101906102f1919061333c565b610b0b565b005b34801561030457600080fd5b5061030d610c16565b60405161031a919061396d565b60405180910390f35b34801561032f57600080fd5b50610338610c20565b604051610345919061382b565b60405180910390f35b34801561035a57600080fd5b5061037560048036038101906103709190613515565b610cae565b005b34801561038357600080fd5b5061039e60048036038101906103999190613226565b610d34565b005b3480156103ac57600080fd5b506103c760048036038101906103c2919061333c565b610d44565b6040516103d4919061396d565b60405180910390f35b3480156103e957600080fd5b506103f2610f05565b005b34801561040057600080fd5b5061041b60048036038101906104169190613226565b6110cf565b005b34801561042957600080fd5b50610444600480360381019061043f91906133d6565b6110ef565b005b34801561045257600080fd5b5061046d60048036038101906104689190613515565b611185565b60405161047a919061396d565b60405180910390f35b34801561048f57600080fd5b506104986111cf565b6040516104a5919061396d565b60405180910390f35b3480156104ba57600080fd5b506104d560048036038101906104d09190613515565b6111d5565b6040516104e291906137a9565b60405180910390f35b3480156104f757600080fd5b50610512600480360381019061050d9190613515565b6111eb565b005b34801561052057600080fd5b5061053b600480360381019061053691906131b9565b611271565b604051610548919061396d565b60405180910390f35b34801561055d57600080fd5b50610566611351565b005b34801561057457600080fd5b5061057d6113d9565b60405161058a919061396d565b60405180910390f35b34801561059f57600080fd5b506105a86113df565b6040516105b591906137a9565b60405180910390f35b3480156105ca57600080fd5b506105e560048036038101906105e09190613515565b611408565b005b3480156105f357600080fd5b506105fc61148e565b604051610609919061382b565b60405180910390f35b34801561061e57600080fd5b5061063960048036038101906106349190613515565b611520565b005b34801561064757600080fd5b506106506115a6565b60405161065d919061396d565b60405180910390f35b610680600480360381019061067b9190613515565b6115ac565b005b34801561068e57600080fd5b506106a960048036038101906106a491906132fc565b6116f4565b005b3480156106b757600080fd5b506106d260048036038101906106cd9190613279565b61186c565b005b3480156106e057600080fd5b506106fb60048036038101906106f691906131b9565b6118bf565b005b34801561070957600080fd5b50610724600480360381019061071f9190613515565b611acb565b604051610731919061382b565b60405180910390f35b34801561074657600080fd5b5061074f611b6a565b60405161075c9190613810565b60405180910390f35b34801561077157600080fd5b5061077a611b7d565b604051610787919061396d565b60405180910390f35b34801561079c57600080fd5b506107b760048036038101906107b29190613515565b611b83565b005b3480156107c557600080fd5b506107e060048036038101906107db91906131b9565b611c6a565b005b3480156107ee57600080fd5b506107f7611d2f565b604051610804919061396d565b60405180910390f35b34801561081957600080fd5b50610834600480360381019061082f919061341f565b611d35565b005b34801561084257600080fd5b5061085d600480360381019061085891906131e6565b611e01565b60405161086a9190613810565b60405180910390f35b34801561087f57600080fd5b5061089a600480360381019061089591906131b9565b611e95565b005b3480156108a857600080fd5b506108b1611f8d565b005b60007f80ac58cd000000000000000000000000000000000000000000000000000000007bffffffffffffffffffffffffffffffffffffffffffffffffffffffff1916827bffffffffffffffffffffffffffffffffffffffffffffffffffffffff1916148061097e57507f5b5e139f000000000000000000000000000000000000000000000000000000007bffffffffffffffffffffffffffffffffffffffffffffffffffffffff1916827bffffffffffffffffffffffffffffffffffffffffffffffffffffffff1916145b806109e657507f780e9d63000000000000000000000000000000000000000000000000000000007bffffffffffffffffffffffffffffffffffffffffffffffffffffffff1916827bffffffffffffffffffffffffffffffffffffffffffffffffffffffff1916145b806109f657506109f582612035565b5b9050919050565b606060098054610a0c90613c28565b80601f0160208091040260200160405190810160405280929190818152602001828054610a3890613c28565b8015610a855780601f10610a5a57610100808354040283529160200191610a85565b820191906000526020600020905b815481529060010190602001808311610a6857829003601f168201915b5050505050905090565b6000610a9a8261209f565b610ad0576040517fcf4700e400000000000000000000000000000000000000000000000000000000815260040160405180910390fd5b6006600083815260200190815260200160002060009054906101000a900473ffffffffffffffffffffffffffffffffffffffff169050919050565b6000610b16826111d5565b90508073ffffffffffffffffffffffffffffffffffffffff168373ffffffffffffffffffffffffffffffffffffffff161415610b7e576040517f943f7b8c00000000000000000000000000000000000000000000000000000000815260040160405180910390fd5b8073ffffffffffffffffffffffffffffffffffffffff16610b9d6120ad565b73ffffffffffffffffffffffffffffffffffffffff1614158015610bcf5750610bcd81610bc86120ad565b611e01565b155b15610c06576040517fcfb3b94200000000000000000000000000000000000000000000000000000000815260040160405180910390fd5b610c118383836120b5565b505050565b6000600154905090565b600b8054610c2d90613c28565b80601f0160208091040260200160405190810160405280929190818152602001828054610c5990613c28565b8015610ca65780601f10610c7b57610100808354040283529160200191610ca6565b820191906000526020600020905b815481529060010190602001808311610c8957829003601f168201915b505050505081565b610cb66120ad565b73ffffffffffffffffffffffffffffffffffffffff16610cd46113df565b73ffffffffffffffffffffffffffffffffffffffff1614610d2a576040517f08c379a0000000000000000000000000000000000000000000000000000000008152600401610d219061392d565b60405180910390fd5b80600c8190555050565b610d3f838383612167565b505050565b6000610d4f83611271565b8210610d87576040517f0ddac30e00000000000000000000000000000000000000000000000000000000815260040160405180910390fd5b6000610d91610c16565b905060008060005b83811015610eeb576000600460008381526020019081526020016000206040518060400160405290816000820160009054906101000a900473ffffffffffffffffffffffffffffffffffffffff1673ffffffffffffffffffffffffffffffffffffffff1673ffffffffffffffffffffffffffffffffffffffff1681526020016000820160149054906101000a900467ffffffffffffffff1667ffffffffffffffff1667ffffffffffffffff16815250509050600073ffffffffffffffffffffffffffffffffffffffff16816000015173ffffffffffffffffffffffffffffffffffffffff1614610e8b57806000015192505b8773ffffffffffffffffffffffffffffffffffffffff168373ffffffffffffffffffffffffffffffffffffffff161415610edd5786841415610ed4578195505050505050610eff565b83806001019450505b508080600101915050610d99565b506000610efb57610efa613d05565b5b5050505b92915050565b610f0d6120ad565b73ffffffffffffffffffffffffffffffffffffffff16610f2b6113df565b73ffffffffffffffffffffffffffffffffffffffff1614610f81576040517f08c379a0000000000000000000000000000000000000000000000000000000008152600401610f789061392d565b60405180910390fd5b600047905060006064600583610f979190613ae4565b610fa19190613ab3565b905060008183610fb19190613b3e565b90506000610fbd6113df565b73ffffffffffffffffffffffffffffffffffffffff1682604051610fe090613794565b60006040518083038185875af1925050503d806000811461101d576040519150601f19603f3d011682016040523d82523d6000602084013e611022565b606091505b505090506000600860009054906101000a900473ffffffffffffffffffffffffffffffffffffffff1673ffffffffffffffffffffffffffffffffffffffff168460405161106e90613794565b60006040518083038185875af1925050503d80600081146110ab576040519150601f19603f3d011682016040523d82523d6000602084013e6110b0565b606091505b50509050816110be57600080fd5b806110c857600080fd5b5050505050565b6110ea8383836040518060200160405280600081525061186c565b505050565b6110f76120ad565b73ffffffffffffffffffffffffffffffffffffffff166111156113df565b73ffffffffffffffffffffffffffffffffffffffff161461116b576040517f08c379a00000000000000000000000000000000000000000000000000000000081526004016111629061392d565b60405180910390fd5b80600b9080519060200190611181929190612f93565b5050565b600061118f610c16565b82106111c7576040517fa723001c00000000000000000000000000000000000000000000000000000000815260040160405180910390fd5b819050919050565b60105481565b60006111e08261267f565b600001519050919050565b6111f36120ad565b73ffffffffffffffffffffffffffffffffffffffff166112116113df565b73ffffffffffffffffffffffffffffffffffffffff1614611267576040517f08c379a000000000000000000000000000000000000000000000000000000000815260040161125e9061392d565b60405180910390fd5b80600d8190555050565b60008073ffffffffffffffffffffffffffffffffffffffff168273ffffffffffffffffffffffffffffffffffffffff1614156112d9576040517f8f4eb60400000000000000000000000000000000000000000000000000000000815260040160405180910390fd5b600560008373ffffffffffffffffffffffffffffffffffffffff1673ffffffffffffffffffffffffffffffffffffffff16815260200190815260200160002060000160009054906101000a90046fffffffffffffffffffffffffffffffff166fffffffffffffffffffffffffffffffff169050919050565b6113596120ad565b73ffffffffffffffffffffffffffffffffffffffff166113776113df565b73ffffffffffffffffffffffffffffffffffffffff16146113cd576040517f08c379a00000000000000000000000000000000000000000000000000000000081526004016113c49061392d565b60405180910390fd5b6113d76000611c6a565b565b600f5481565b60008060029054906101000a900473ffffffffffffffffffffffffffffffffffffffff16905090565b6114106120ad565b73ffffffffffffffffffffffffffffffffffffffff1661142e6113df565b73ffffffffffffffffffffffffffffffffffffffff1614611484576040517f08c379a000000000000000000000000000000000000000000000000000000000815260040161147b9061392d565b60405180910390fd5b80600e8190555050565b6060600a805461149d90613c28565b80601f01602080910402602001604051908101604052809291908181526020018280546114c990613c28565b80156115165780601f106114eb57610100808354040283529160200191611516565b820191906000526020600020905b8154815290600101906020018083116114f957829003601f168201915b5050505050905090565b6115286120ad565b73ffffffffffffffffffffffffffffffffffffffff166115466113df565b73ffffffffffffffffffffffffffffffffffffffff161461159c576040517f08c379a00000000000000000000000000000000000000000000000000000000081526004016115939061392d565b60405180910390fd5b80600f8190555050565b600e5481565b600081116115ef576040517f08c379a00000000000000000000000000000000000000000000000000000000081526004016115e69061384d565b60405180910390fd5b600f54811115611634576040517f08c379a000000000000000000000000000000000000000000000000000000000815260040161162b9061390d565b60405180910390fd5b600d54600c546116449190613b3e565b61164c610c16565b826116579190613a5d565b1115611698576040517f08c379a000000000000000000000000000000000000000000000000000000000815260040161168f906138ed565b60405180910390fd5b3481600e546116a79190613ae4565b146116e7576040517f08c379a00000000000000000000000000000000000000000000000000000000081526004016116de906138cd565b60405180910390fd5b6116f13382612807565b50565b6116fc6120ad565b73ffffffffffffffffffffffffffffffffffffffff168273ffffffffffffffffffffffffffffffffffffffff161415611761576040517fb06307db00000000000000000000000000000000000000000000000000000000815260040160405180910390fd5b806007600061176e6120ad565b73ffffffffffffffffffffffffffffffffffffffff1673ffffffffffffffffffffffffffffffffffffffff16815260200190815260200160002060008473ffffffffffffffffffffffffffffffffffffffff1673ffffffffffffffffffffffffffffffffffffffff16815260200190815260200160002060006101000a81548160ff0219169083151502179055508173ffffffffffffffffffffffffffffffffffffffff1661181b6120ad565b73ffffffffffffffffffffffffffffffffffffffff167f17307eab39ab6107e8899845ad3d59bd9653f200f220920489ca2b5937696c31836040516118609190613810565b60405180910390a35050565b611877848484612167565b61188384848484612ad7565b6118b9576040517fd1a57ed600000000000000000000000000000000000000000000000000000000815260040160405180910390fd5b50505050565b600060019054906101000a900460ff166118e75760008054906101000a900460ff16156118f0565b6118ef612c65565b5b61192f576040517f08c379a0000000000000000000000000000000000000000000000000000000008152600401611926906138ad565b60405180910390fd5b60008060019054906101000a900460ff16159050801561197f576001600060016101000a81548160ff02191690831515021790555060016000806101000a81548160ff0219169083151502179055505b611a9d6009805461198f90613c28565b80601f01602080910402602001604051908101604052809291908181526020018280546119bb90613c28565b8015611a085780601f106119dd57610100808354040283529160200191611a08565b820191906000526020600020905b8154815290600101906020018083116119eb57829003601f168201915b5050505050600a8054611a1a90613c28565b80601f0160208091040260200160405190810160405280929190818152602001828054611a4690613c28565b8015611a935780601f10611a6857610100808354040283529160200191611a93565b820191906000526020600020905b815481529060010190602001808311611a7657829003601f168201915b5050505050612c76565b611aa682611c6a565b8015611ac75760008060016101000a81548160ff0219169083151502179055505b5050565b6060611ad68261209f565b611b0c576040517fa14c4b5000000000000000000000000000000000000000000000000000000000815260040160405180910390fd5b6000611b16612cd3565b9050600081511415611b375760405180602001604052806000815250611b62565b80611b4184612d65565b604051602001611b52929190613770565b6040516020818303038152906040525b915050919050565b601160009054906101000a900460ff1681565b600d5481565b611b8b6120ad565b73ffffffffffffffffffffffffffffffffffffffff16611ba96113df565b73ffffffffffffffffffffffffffffffffffffffff1614611bff576040517f08c379a0000000000000000000000000000000000000000000000000000000008152600401611bf69061392d565b60405180910390fd5b600d54811115611c44576040517f08c379a0000000000000000000000000000000000000000000000000000000008152600401611c3b9061388d565b60405180910390fd5b80600d6000828254611c569190613b3e565b92505081905550611c673382612807565b50565b60008060029054906101000a900473ffffffffffffffffffffffffffffffffffffffff16905081600060026101000a81548173ffffffffffffffffffffffffffffffffffffffff021916908373ffffffffffffffffffffffffffffffffffffffff1602179055508173ffffffffffffffffffffffffffffffffffffffff168173ffffffffffffffffffffffffffffffffffffffff167f8be0079c531659141344cd1fd0a4f28419497f9722a3daafe3b4186f6b6457e060405160405180910390a35050565b600c5481565b600160105410611d7f57611d476113df565b73ffffffffffffffffffffffffffffffffffffffff163373ffffffffffffffffffffffffffffffffffffffff1614611d7e57600080fd5b5b8660099080519060200190611d95929190612f93565b5085600a9080519060200190611dac929190612f93565b5084600c8190555083600f8190555082600d8190555081600e8190555080600b9080519060200190611ddf929190612f93565b5060106000815480929190611df390613c8b565b919050555050505050505050565b6000600760008473ffffffffffffffffffffffffffffffffffffffff1673ffffffffffffffffffffffffffffffffffffffff16815260200190815260200160002060008373ffffffffffffffffffffffffffffffffffffffff1673ffffffffffffffffffffffffffffffffffffffff16815260200190815260200160002060009054906101000a900460ff16905092915050565b611e9d6120ad565b73ffffffffffffffffffffffffffffffffffffffff16611ebb6113df565b73ffffffffffffffffffffffffffffffffffffffff1614611f11576040517f08c379a0000000000000000000000000000000000000000000000000000000008152600401611f089061392d565b60405180910390fd5b600073ffffffffffffffffffffffffffffffffffffffff168173ffffffffffffffffffffffffffffffffffffffff161415611f81576040517f08c379a0000000000000000000000000000000000000000000000000000000008152600401611f789061386d565b60405180910390fd5b611f8a81611c6a565b50565b611f956120ad565b73ffffffffffffffffffffffffffffffffffffffff16611fb36113df565b73ffffffffffffffffffffffffffffffffffffffff1614612009576040517f08c379a00000000000000000000000000000000000000000000000000000000081526004016120009061392d565b60405180910390fd5b601160009054906101000a900460ff1615601160006101000a81548160ff021916908315150217905550565b60007f01ffc9a7000000000000000000000000000000000000000000000000000000007bffffffffffffffffffffffffffffffffffffffffffffffffffffffff1916827bffffffffffffffffffffffffffffffffffffffffffffffffffffffff1916149050919050565b600060015482109050919050565b600033905090565b826006600084815260200190815260200160002060006101000a81548173ffffffffffffffffffffffffffffffffffffffff021916908373ffffffffffffffffffffffffffffffffffffffff160217905550818373ffffffffffffffffffffffffffffffffffffffff168273ffffffffffffffffffffffffffffffffffffffff167f8c5be1e5ebec7d5bd14f71427d1e84f3dd0314c0f7b2291e5b200ac8c7c3b92560405160405180910390a4505050565b60006121728261267f565b90506000816000015173ffffffffffffffffffffffffffffffffffffffff166121996120ad565b73ffffffffffffffffffffffffffffffffffffffff1614806121f557506121be6120ad565b73ffffffffffffffffffffffffffffffffffffffff166121dd84610a8f565b73ffffffffffffffffffffffffffffffffffffffff16145b806122115750612210826000015161220b6120ad565b611e01565b5b90508061224a576040517f59c896be00000000000000000000000000000000000000000000000000000000815260040160405180910390fd5b8473ffffffffffffffffffffffffffffffffffffffff16826000015173ffffffffffffffffffffffffffffffffffffffff16146122b3576040517fa114810000000000000000000000000000000000000000000000000000000000815260040160405180910390fd5b600073ffffffffffffffffffffffffffffffffffffffff168473ffffffffffffffffffffffffffffffffffffffff16141561231a576040517fea553b3400000000000000000000000000000000000000000000000000000000815260040160405180910390fd5b61232a60008484600001516120b5565b6001600560008773ffffffffffffffffffffffffffffffffffffffff1673ffffffffffffffffffffffffffffffffffffffff16815260200190815260200160002060000160008282829054906101000a90046fffffffffffffffffffffffffffffffff160392506101000a8154816fffffffffffffffffffffffffffffffff02191690836fffffffffffffffffffffffffffffffff1602179055506001600560008673ffffffffffffffffffffffffffffffffffffffff1673ffffffffffffffffffffffffffffffffffffffff16815260200190815260200160002060000160008282829054906101000a90046fffffffffffffffffffffffffffffffff160192506101000a8154816fffffffffffffffffffffffffffffffff02191690836fffffffffffffffffffffffffffffffff160217905550836004600085815260200190815260200160002060000160006101000a81548173ffffffffffffffffffffffffffffffffffffffff021916908373ffffffffffffffffffffffffffffffffffffffff160217905550426004600085815260200190815260200160002060000160146101000a81548167ffffffffffffffff021916908367ffffffffffffffff1602179055506000600184019050600073ffffffffffffffffffffffffffffffffffffffff166004600083815260200190815260200160002060000160009054906101000a900473ffffffffffffffffffffffffffffffffffffffff1673ffffffffffffffffffffffffffffffffffffffff16141561260f5761256e8161209f565b1561260e5782600001516004600083815260200190815260200160002060000160006101000a81548173ffffffffffffffffffffffffffffffffffffffff021916908373ffffffffffffffffffffffffffffffffffffffff16021790555082602001516004600083815260200190815260200160002060000160146101000a81548167ffffffffffffffff021916908367ffffffffffffffff1602179055505b5b50828473ffffffffffffffffffffffffffffffffffffffff168673ffffffffffffffffffffffffffffffffffffffff167fddf252ad1be2c89b69c2b068fc378daa952ba7f163c4a11628f55a4df523b3ef60405160405180910390a46126788585856001612ec6565b5050505050565b612687613019565b6126908261209f565b6126c6576040517fdf2d9b4200000000000000000000000000000000000000000000000000000000815260040160405180910390fd5b60008290505b600081106127cf576000600460008381526020019081526020016000206040518060400160405290816000820160009054906101000a900473ffffffffffffffffffffffffffffffffffffffff1673ffffffffffffffffffffffffffffffffffffffff1673ffffffffffffffffffffffffffffffffffffffff1681526020016000820160149054906101000a900467ffffffffffffffff1667ffffffffffffffff1667ffffffffffffffff16815250509050600073ffffffffffffffffffffffffffffffffffffffff16816000015173ffffffffffffffffffffffffffffffffffffffff16146127c0578092505050612802565b508080600190039150506126cc565b506040517fe7c0edfb00000000000000000000000000000000000000000000000000000000815260040160405180910390fd5b919050565b60006001549050600073ffffffffffffffffffffffffffffffffffffffff168373ffffffffffffffffffffffffffffffffffffffff161415612875576040517f2e07630000000000000000000000000000000000000000000000000000000000815260040160405180910390fd5b81600560008573ffffffffffffffffffffffffffffffffffffffff1673ffffffffffffffffffffffffffffffffffffffff16815260200190815260200160002060000160008282829054906101000a90046fffffffffffffffffffffffffffffffff160192506101000a8154816fffffffffffffffffffffffffffffffff02191690836fffffffffffffffffffffffffffffffff16021790555081600560008573ffffffffffffffffffffffffffffffffffffffff1673ffffffffffffffffffffffffffffffffffffffff16815260200190815260200160002060000160108282829054906101000a90046fffffffffffffffffffffffffffffffff160192506101000a8154816fffffffffffffffffffffffffffffffff02191690836fffffffffffffffffffffffffffffffff160217905550826004600083815260200190815260200160002060000160006101000a81548173ffffffffffffffffffffffffffffffffffffffff021916908373ffffffffffffffffffffffffffffffffffffffff160217905550426004600083815260200190815260200160002060000160146101000a81548167ffffffffffffffff021916908367ffffffffffffffff160217905550600081905060005b83811015612abc57818573ffffffffffffffffffffffffffffffffffffffff16600073ffffffffffffffffffffffffffffffffffffffff167fddf252ad1be2c89b69c2b068fc378daa952ba7f163c4a11628f55a4df523b3ef60405160405180910390a481806001019250508080600101915050612a43565b508060018190555050612ad26000848385612ec6565b505050565b6000612af88473ffffffffffffffffffffffffffffffffffffffff16612ecc565b15612c58578373ffffffffffffffffffffffffffffffffffffffff1663150b7a02612b216120ad565b8786866040518563ffffffff1660e01b8152600401612b4394939291906137c4565b602060405180830381600087803b158015612b5d57600080fd5b505af1925050508015612b8e57506040513d601f19601f82011682018060405250810190612b8b91906133a9565b60015b612c08573d8060008114612bbe576040519150601f19603f3d011682016040523d82523d6000602084013e612bc3565b606091505b50600081511415612c00576040517fd1a57ed600000000000000000000000000000000000000000000000000000000815260040160405180910390fd5b805181602001fd5b63150b7a0260e01b7bffffffffffffffffffffffffffffffffffffffffffffffffffffffff1916817bffffffffffffffffffffffffffffffffffffffffffffffffffffffff191614915050612c5d565b600190505b949350505050565b6000612c7030612eef565b15905090565b600060019054906101000a900460ff16612cc5576040517f08c379a0000000000000000000000000000000000000000000000000000000008152600401612cbc9061394d565b60405180910390fd5b612ccf8282612f12565b5050565b6060600b8054612ce290613c28565b80601f0160208091040260200160405190810160405280929190818152602001828054612d0e90613c28565b8015612d5b5780601f10612d3057610100808354040283529160200191612d5b565b820191906000526020600020905b815481529060010190602001808311612d3e57829003601f168201915b5050505050905090565b60606000821415612dad576040518060400160405280600181526020017f30000000000000000000000000000000000000000000000000000000000000008152509050612ec1565b600082905060005b60008214612ddf578080612dc890613c8b565b915050600a82612dd89190613ab3565b9150612db5565b60008167ffffffffffffffff811115612dfb57612dfa613df0565b5b6040519080825280601f01601f191660200182016040528015612e2d5781602001600182028036833780820191505090505b5090505b60008514612eba57600182612e469190613b3e565b9150600a85612e559190613cd4565b6030612e619190613a5d565b60f81b818381518110612e7757612e76613dc1565b5b60200101907effffffffffffffffffffffffffffffffffffffffffffffffffffffffffffff1916908160001a905350600a85612eb39190613ab3565b9450612e31565b8093505050505b919050565b50505050565b6000808273ffffffffffffffffffffffffffffffffffffffff163b119050919050565b6000808273ffffffffffffffffffffffffffffffffffffffff163b119050919050565b600060019054906101000a900460ff16612f61576040517f08c379a0000000000000000000000000000000000000000000000000000000008152600401612f589061394d565b60405180910390fd5b8160029080519060200190612f77929190612f93565b508060039080519060200190612f8e929190612f93565b505050565b828054612f9f90613c28565b90600052602060002090601f016020900481019282612fc15760008555613008565b82601f10612fda57805160ff1916838001178555613008565b82800160010185558215613008579182015b82811115613007578251825591602001919060010190612fec565b5b5090506130159190613053565b5090565b6040518060400160405280600073ffffffffffffffffffffffffffffffffffffffff168152602001600067ffffffffffffffff1681525090565b5b8082111561306c576000816000905550600101613054565b5090565b600061308361307e846139ad565b613988565b90508281526020810184848401111561309f5761309e613e24565b5b6130aa848285613be6565b509392505050565b60006130c56130c0846139de565b613988565b9050828152602081018484840111156130e1576130e0613e24565b5b6130ec848285613be6565b509392505050565b60008135905061310381614076565b92915050565b6000813590506131188161408d565b92915050565b60008135905061312d816140a4565b92915050565b600081519050613142816140a4565b92915050565b600082601f83011261315d5761315c613e1f565b5b813561316d848260208601613070565b91505092915050565b600082601f83011261318b5761318a613e1f565b5b813561319b8482602086016130b2565b91505092915050565b6000813590506131b3816140bb565b92915050565b6000602082840312156131cf576131ce613e2e565b5b60006131dd848285016130f4565b91505092915050565b600080604083850312156131fd576131fc613e2e565b5b600061320b858286016130f4565b925050602061321c858286016130f4565b9150509250929050565b60008060006060848603121561323f5761323e613e2e565b5b600061324d868287016130f4565b935050602061325e868287016130f4565b925050604061326f868287016131a4565b9150509250925092565b6000806000806080858703121561329357613292613e2e565b5b60006132a1878288016130f4565b94505060206132b2878288016130f4565b93505060406132c3878288016131a4565b925050606085013567ffffffffffffffff8111156132e4576132e3613e29565b5b6132f087828801613148565b91505092959194509250565b6000806040838503121561331357613312613e2e565b5b6000613321858286016130f4565b925050602061333285828601613109565b9150509250929050565b6000806040838503121561335357613352613e2e565b5b6000613361858286016130f4565b9250506020613372858286016131a4565b9150509250929050565b60006020828403121561339257613391613e2e565b5b60006133a08482850161311e565b91505092915050565b6000602082840312156133bf576133be613e2e565b5b60006133cd84828501613133565b91505092915050565b6000602082840312156133ec576133eb613e2e565b5b600082013567ffffffffffffffff81111561340a57613409613e29565b5b61341684828501613176565b91505092915050565b600080600080600080600060e0888a03121561343e5761343d613e2e565b5b600088013567ffffffffffffffff81111561345c5761345b613e29565b5b6134688a828b01613176565b975050602088013567ffffffffffffffff81111561348957613488613e29565b5b6134958a828b01613176565b96505060406134a68a828b016131a4565b95505060606134b78a828b016131a4565b94505060806134c88a828b016131a4565b93505060a06134d98a828b016131a4565b92505060c088013567ffffffffffffffff8111156134fa576134f9613e29565b5b6135068a828b01613176565b91505092959891949750929550565b60006020828403121561352b5761352a613e2e565b5b6000613539848285016131a4565b91505092915050565b61354b81613b72565b82525050565b61355a81613b84565b82525050565b600061356b82613a0f565b6135758185613a25565b9350613585818560208601613bf5565b61358e81613e33565b840191505092915050565b60006135a482613a1a565b6135ae8185613a41565b93506135be818560208601613bf5565b6135c781613e33565b840191505092915050565b60006135dd82613a1a565b6135e78185613a52565b93506135f7818560208601613bf5565b80840191505092915050565b6000613610601083613a41565b915061361b82613e44565b602082019050919050565b6000613633602683613a41565b915061363e82613e6d565b604082019050919050565b6000613656602183613a41565b915061366182613ebc565b604082019050919050565b6000613679602e83613a41565b915061368482613f0b565b604082019050919050565b600061369c601d83613a41565b91506136a782613f5a565b602082019050919050565b60006136bf600f83613a41565b91506136ca82613f83565b602082019050919050565b60006136e2602183613a41565b91506136ed82613fac565b604082019050919050565b6000613705602083613a41565b915061371082613ffb565b602082019050919050565b6000613728600083613a36565b915061373382614024565b600082019050919050565b600061374b602b83613a41565b915061375682614027565b604082019050919050565b61376a81613bdc565b82525050565b600061377c82856135d2565b915061378882846135d2565b91508190509392505050565b600061379f8261371b565b9150819050919050565b60006020820190506137be6000830184613542565b92915050565b60006080820190506137d96000830187613542565b6137e66020830186613542565b6137f36040830185613761565b81810360608301526138058184613560565b905095945050505050565b60006020820190506138256000830184613551565b92915050565b600060208201905081810360008301526138458184613599565b905092915050565b6000602082019050818103600083015261386681613603565b9050919050565b6000602082019050818103600083015261388681613626565b9050919050565b600060208201905081810360008301526138a681613649565b9050919050565b600060208201905081810360008301526138c68161366c565b9050919050565b600060208201905081810360008301526138e68161368f565b9050919050565b60006020820190508181036000830152613906816136b2565b9050919050565b60006020820190508181036000830152613926816136d5565b9050919050565b60006020820190508181036000830152613946816136f8565b9050919050565b600060208201905081810360008301526139668161373e565b9050919050565b60006020820190506139826000830184613761565b92915050565b60006139926139a3565b905061399e8282613c5a565b919050565b6000604051905090565b600067ffffffffffffffff8211156139c8576139c7613df0565b5b6139d182613e33565b9050602081019050919050565b600067ffffffffffffffff8211156139f9576139f8613df0565b5b613a0282613e33565b9050602081019050919050565b600081519050919050565b600081519050919050565b600082825260208201905092915050565b600081905092915050565b600082825260208201905092915050565b600081905092915050565b6000613a6882613bdc565b9150613a7383613bdc565b9250827fffffffffffffffffffffffffffffffffffffffffffffffffffffffffffffffff03821115613aa857613aa7613d34565b5b828201905092915050565b6000613abe82613bdc565b9150613ac983613bdc565b925082613ad957613ad8613d63565b5b828204905092915050565b6000613aef82613bdc565b9150613afa83613bdc565b9250817fffffffffffffffffffffffffffffffffffffffffffffffffffffffffffffffff0483118215151615613b3357613b32613d34565b5b828202905092915050565b6000613b4982613bdc565b9150613b5483613bdc565b925082821015613b6757613b66613d34565b5b828203905092915050565b6000613b7d82613bbc565b9050919050565b60008115159050919050565b60007fffffffff0000000000000000000000000000000000000000000000000000000082169050919050565b600073ffffffffffffffffffffffffffffffffffffffff82169050919050565b6000819050919050565b82818337600083830152505050565b60005b83811015613c13578082015181840152602081019050613bf8565b83811115613c22576000848401525b50505050565b60006002820490506001821680613c4057607f821691505b60208210811415613c5457613c53613d92565b5b50919050565b613c6382613e33565b810181811067ffffffffffffffff82111715613c8257613c81613df0565b5b80604052505050565b6000613c9682613bdc565b91507fffffffffffffffffffffffffffffffffffffffffffffffffffffffffffffffff821415613cc957613cc8613d34565b5b600182019050919050565b6000613cdf82613bdc565b9150613cea83613bdc565b925082613cfa57613cf9613d63565b5b828206905092915050565b7f4e487b7100000000000000000000000000000000000000000000000000000000600052600160045260246000fd5b7f4e487b7100000000000000000000000000000000000000000000000000000000600052601160045260246000fd5b7f4e487b7100000000000000000000000000000000000000000000000000000000600052601260045260246000fd5b7f4e487b7100000000000000000000000000000000000000000000000000000000600052602260045260246000fd5b7f4e487b7100000000000000000000000000000000000000000000000000000000600052603260045260246000fd5b7f4e487b7100000000000000000000000000000000000000000000000000000000600052604160045260246000fd5b600080fd5b600080fd5b600080fd5b600080fd5b6000601f19601f8301169050919050565b7f7a65726f206e6f7420616c6c6f77656400000000000000000000000000000000600082015250565b7f4f776e61626c653a206e6577206f776e657220697320746865207a65726f206160008201527f6464726573730000000000000000000000000000000000000000000000000000602082015250565b7f546865207175616e74697479206578636565647320746865207265736572766560008201527f2e00000000000000000000000000000000000000000000000000000000000000602082015250565b7f496e697469616c697a61626c653a20636f6e747261637420697320616c72656160008201527f647920696e697469616c697a6564000000000000000000000000000000000000602082015250565b7f53656e742065746865722076616c756520697320696e636f7272656374000000600082015250565b7f7075626c69632073616c6520656e640000000000000000000000000000000000600082015250565b7f43686f73656e20416d6f756e742065786365656473204d61785175616e74697460008201527f7900000000000000000000000000000000000000000000000000000000000000602082015250565b7f4f776e61626c653a2063616c6c6572206973206e6f7420746865206f776e6572600082015250565b50565b7f496e697469616c697a61626c653a20636f6e7472616374206973206e6f74206960008201527f6e697469616c697a696e67000000000000000000000000000000000000000000602082015250565b61407f81613b72565b811461408a57600080fd5b50565b61409681613b84565b81146140a157600080fd5b50565b6140ad81613b90565b81146140b857600080fd5b50565b6140c481613bdc565b81146140cf57600080fd5b5056fea26469706673582212207094a40e9da85d367d0e8aa15b9ecdd5c5044c0c67e44a2acbabbcf22fd718f664736f6c63430008070033",
  "linkReferences": {},
  "deployedLinkReferences": {}
}